:020000040800F2
:10000000184A0020AD010008A9310008910200083B
:10001000A53100082D0F0008D133000800000000B2
:10002000000000000000000000000000BF01000808
:10003000310F0008000000001B020008AD3100086D
:10004000C7010008C7010008C7010008C701000870
:10005000C7010008C7010008C7010008C701000860
:10006000C7010008C7010008C7010008C701000850
:10007000C7010008C7010008C7010008C701000840
:10008000C7010008C7010008C7010008C701000830
:10009000C7010008C7010008C7010008C701000820
:1000A000C7010008AD320008C7010008C7010008F9
:1000B000C7010008C7010008C7010008C701000800
:1000C000C7010008C7010008C7010008C7010008F0
:1000D000C7010008C7010008C5330008C7010008B0
:1000E000C7010008C7010008C701000800F002F8B6
:1000F00000F04DF80AA090E8000C82448344AAF175
:100100000107DA4501D100F042F8AFF2090EBAE872
:100110000F0013F0010F18BFFB1A43F0010318473B
:100120006C8500008C850000103A24BF78C878C127
:10013000FAD8520724BF30C830C144BF04680C60ED
:10014000704700000023002400250026103A28BF35
:1001500078C1FBD8520728BF30C148BF0B60704739
:10016000662907F0E086642900F0F880732900F022
:100170003885002070471FB500F038FD04000020CE
:10018000002107F043FEE0601FBD10B510BD00F078
:100190002DFE1146FFF7EFFF00F09EFE00F04BFE34
:1001A00003B4FFF7F2FF03BC00F08EFE094880475E
:1001B00009480047FEE7FEE7FEE7FEE7FEE7FEE749
:1001C000FEE7FEE7FEE7FEE704480549054A064B61
:1001D00070470000A9320008ED0000081844002014
:1001E000184A00201846002018460020EFF310801F
:1001F00072B6704780F310887047324A1368012B3B
:1002000004D04FF0010313602F4A10602F4A116091
:100210002F484FF0805101607047EFF3108272B6A3
:100220002848016891B14FF000010160264801683B
:1002300029B1EFF3098121E9F00F0068016023493A
:1002400009680968B1E8F00F81F3098882F3108822
:100250004EF0040E70471D4908601B494FF0000026
:10026000086018494FF0010008601A481A49D0F890
:10027000002041EA0201016015484FF08051016001
:1002800016480068006880F3088861B662B6704757
:100290001EF0040F0CBFEFF30880EFF3098020E994
:1002A000F00F40F804ED1EF0040F0CBF80F3088837
:1002B00080F3098800B505F06DF95DF804EB4EF0A8
:1002C000040E7047084300207C400020844000203A
:1002D00004ED00E020ED00E00000FFFF08ED00E08D
:1002E0000FB41CB5074B06AA7B44694600900598DD
:1002F00000F04DFC0020694600F05CFC1CBC5DF881
:1003000014FB0000C908000070B50C460546012A20
:1003100005D02878800600D5EA69002302E0012391
:1003200005E05B1C934202D2E05C0028F9D1A86989
:10033000E618C01AA861286A184428622846AFF354
:10034000008004E0D5E9012114F8010B9047B44284
:10035000F8D32846AFF3008070BD00002DE9F041CE
:100360000646002410687529314616A510D0AFF353
:100370000080002802DA404213A507E031688A07AE
:1003800001D512A502E0490704D511A5012401E019
:10039000AFF3008000210A2206F1240709E0B0FB38
:1003A000F2FCB0FBF2F302FB1C003030785418462C
:1003B000491C0028F3D123462A463046BDE8F041C7
:1003C00000F078B9000000002D0000002B000000B4
:1003D000200000002DE9F0474FF0000A894604464E
:1003E000C0F820A02046E1688847002876D025285C
:1003F00006D0D4E901219047206A401C2062F1E731
:10040000E168204600258847C4F81CA0064600275E
:10041000C4F818A02A2E09D0304607F0EFFC38B3F4
:1004200004EB8708303EC8F8186019E059F8041B3F
:10043000204604EB87029161E1688847012F064658
:1004400018D1E069002820DA25F020051DE0D8F851
:10045000180000EB800006EB40003038C8F81800A8
:100460002046E1688847064607F0C8FC0028EED120
:10047000012F0AD02E2E08D12046E16888477F1C24
:100480000646022F45F02005C4DBA069002803DAE8
:10049000404245F00105A061E80701D025F01005B4
:1004A000B6B1A6F14100192802D8203645F40065FE
:1004B0004A463146204625604D46FFF751FE58B169
:1004C000012806D0ED1D25F0070000F1080989E795
:1004D00004E005F1040985E730468AE7206ABDE8B3
:1004E000F08710B5431C02E010F8011B71B18107C1
:1004F000FAD14FF0013202C88C1A8C4314EAC211AF
:10050000F9D0C01A0A0603D0C01E10BDC01A10BD13
:100510000A0401D0801E10BD0902FCD0401E10BD8F
:1005200040EA010370B59B072ED14FF00136042A33
:100530002AD308C810C99D1B9D43121F15EAC61572
:1005400017D0D8B2E1B2401A50EA056110D198B282
:10055000A1B2401A50EA05410AD123F07F4024F0AD
:100560007F41401A50EA052102D1180EA0EB146019
:1005700070BDA342DBD018BA21BA884201D901204C
:1005800070BD4FF0FF3070BD0AB9002070BD10F88B
:10059000013B11F8014B63B1A3420AD1521E08D0AE
:1005A00010F8013B11F8014B1BB1A34201D1521EBF
:1005B000EDD1181B70BD02F0FF0343EA032242EAAB
:1005C000024200F002B84FF000020429C0F012808D
:1005D00010F0030C00F01B80CCF1040CBCF1020FF6
:1005E00018BF00F8012BA8BF20F8022BA1EB0C01CB
:1005F00000F00DB85FEAC17C24BF00F8012B00F8C1
:10060000012B48BF00F8012B70474FF0000200B5E6
:10061000134694469646203922BFA0E80C50A0E825
:100620000C50B1F12001BFF4F7AF090728BFA0E8D3
:100630000C5048BF0CC05DF804EB890028BF40F89F
:10064000042B08BF704748BF20F8022B11F0804FE1
:1006500018BF00F8012B704710B5044610F0030FC7
:1006600008BF11F0030F40F015804FF0013E121F3C
:10067000C0F20E8051F8043BA3EB0E0C2CEA030CE5
:100680001CEACE1C08BF40F8043BF0D0A1F10401E5
:1006900002F10402521E08DB11F8013B00F8013B95
:1006A000002BF7D11146FFF78EFF204610BD704793
:1006B000704770472DE9F0470D469946924604462B
:1006C00000F124080168880604D5E06921F01001D2
:1006D000216000E00120A84201DD471B00E0002767
:1006E000A1697A1902EB0900081AA0612078C006F6
:1006F00002D42046AFF30080002608E0D4E90121AF
:100700001AF806009047206A401C761C20624E456D
:10071000F4DB2078C0060AD52046AFF3008006E05F
:10072000D4E9012130209047206A401C2062381E05
:10073000A7F10107F4DC07E0D4E9012118F805006E
:100740009047206A401C2062281EA5F10105F3DCB9
:100750002046AFF300802078000602D50220BDE8D5
:10076000F0870120FBE72DE9FF4F0C461E464FF0B6
:10077000FF378BB0D2E90001DDF860800A908A462D
:10078000C1F30A5505B93D46002108464FF0000067
:10079000BAF1000F00F4400005DA00EB80004FF4DE
:1007A000400101EA50004FEA9059B9F1010F00DD14
:1007B000B9460A9850EA4A000ED044F61050A5F205
:1007C000FF3545432F14B8F1000F1ED07542291E86
:1007D0001EDDC9F100021CE0B8F1010F4FF000006E
:1007E00001D0302103E0F24305E02154401CB04227
:1007F000FBDB30460022002121540B99C1F8088010
:10080000C1E900200FB0BDE8F08FBD1B6D1CDEE715
:100810004A4600DA694206A800F072FA06AB93E88D
:10082000070003AB83E8070050460A9906F009FF6A
:100830008DE80700A0F500501F3800900398002DA8
:100840000ADD42F21F014A460844002303A903902F
:10085000684607F073F909E0A0F500504A461F38D2
:10086000002303A90390684607F07DF98DE807008F
:100870000004000C03D04FF0FF30410800E01046A8
:10088000B8F1000F03D00022009215461EE0751E3D
:1008900005D400F0AFF9303262556D1EF9D5B3467C
:1008A0000122084302D000227F1C04E02078302877
:1008B00001D100227F1E002A099784D01DE0112D4E
:1008C00007DA00F097F9303262556D1C50EA0102E8
:1008D000F5D1084302D00098C8B10EE00021681E8F
:1008E00005E0235C625C63542254401E491C814233
:1008F000F7DBAB46A81B401E0990002004F80B0054
:100900000B98099AC0F80880C0E9002B7AE71126F5
:100910004FF0000857E72DE9F04F88460446D21DF6
:1009200022F0070191B0D1E90001CDE90A0107F0F9
:1009300051FA02460B98C00F01D02D2007E0206825
:10094000810701D52B2002E0202101EAC000032A03
:10095000099001D0072A05DB03464146204600F0F6
:100960008FF90BE12078800601D5E06900E00620D0
:10097000B8F1650F814606D0B8F1660F18D0B8F10E
:10098000670F70D131E00020B9F1110F009001DB49
:10099000112301E009F101030AAA01A90CA8FFF73C
:1009A000E2FEDDE90C70002609F10105834647E00F
:1009B00001204B4600904FF000470AAA01A90CA85D
:1009C000FFF7D1FEDDE90DB00C995D46002610B9A8
:1009D00009F101000D18B9EB050003D4C0F1FF3691
:1009E00009F10105A5EB09002BE0B9F1010F01DACE
:1009F0004FF001090020B9F1110F0090484601DDC8
:100A0000112300E003460AAA01A90CA8FFF7ABFED8
:100A1000DDE90C704D4600268346207800070AD495
:100A2000AB4500DA5D4601A8012D04DD411911F83E
:100A3000011C302907D04F4502DA17F1040F04DA00
:100A4000012082460FE06D1EEEE7002F02DCED1B59
:100A50003E4403E0781CA84200DD7D1CB81B00F179
:100A6000010A4FF000472078000703D4AA4501DBB4
:100A70004FF0FF3A0021B7F1004F0DF143088DF818
:100A8000431024D002202B23002F01DA7F422D2394
:100A90000A21021EA0F1010000DC5FB197FBF1FC0E
:100AA00097FBF1F201FB1C7C17460CF1300C08F8A7
:100AB00001CDEEE7A8F1010003702188090501D5F9
:100AC000452100E06521A0F1010800F8011C09980A
:100AD0000FA9A1EB0807FF1D00B10120411901EB8F
:100AE000EA70A1693844081A401EA0612078C00647
:100AF00002D42046AFF30080099828B1D4E901213F
:100B00009047206A401C20622078C00622D52046EB
:100B1000AFF300801EE0002E04DBB34502DD01A828
:100B2000805D00E03020D4E901219047206A401C1C
:100B30002062761CAAF101005FEA000A0AD100F0E7
:100B400055F8C0680168405CD4E901219047206AEB
:100B5000401C2062281EA5F10105DCDC07E0D4E979
:100B6000012118F8010B9047206A401C2062381EB2
:100B7000A7F10107F3DC2046AFF30080032011B09A
:100B800041E6000001694A1C02610878704700B51F
:100B90008FB0CDE901310021059105497944CDE9B6
:100BA000031011466846FFF715FC0FB000BD0000AA
:100BB000E5FFFFFF0A6802F8010B0A60704710B5F5
:100BC000436913B1AFF3008001E0FFF79DFB012003
:100BD00010BD127800F124010A7000224A7001222F
:100BE000EDE711684FF0FF32E9E700000048704779
:100BF0006000002030B5B0F10A0271F100034FEA45
:100C0000900E4EEA817EB0EB0E0061EB91014FEA4F
:100C1000101E4EEA017E10EB0E0041EB11114FEA5F
:100C2000102E4EEA016E10EB0E0041EB11214FEA3F
:100C3000104E4EEA014E10EB0E0041EB11414018F0
:100C400041F100014FEAD00040EA41704FEAD10182
:100C50004FEA810444EA907410EB800544EB0104F0
:100C60006D1944EB0404521BA3414FF0000348BF2D
:100C70000A3200D530BD401C41F1000130BD0000FA
:100C80002DE9F0411F46044603260168072A01F4B6
:100C9000006004DB08B116A505E016A503E008B165
:100CA00015A500E015A521F010002060A069C01E68
:100CB000A0610FB1401EA0612046AFF300804FB18C
:100CC000D4E9012138469047206A401C2062C01CAC
:100CD000206206E0206AFAE7D4E9012115F8010B49
:100CE0009047761EF8D22046AFF30080BDE8F08131
:100CF0004E414E006E616E00494E4600696E6600C0
:100D00002DE9F047814616468AB0354878440DC82B
:100D10008DE80D0032487844801C03AC0DC884E88F
:100D20000D0041F69B300844372190FBF1F290FB17
:100D3000F1F5A5F1800501FB12041B3C02D56442CC
:100D4000012000E00020DFF898A080460027FA4448
:100D5000AAF1BE0A0EE0E0070AD03246684607EB69
:100D6000470101230AEB810106F0FDFE8DE8070033
:100D700064107F1C002CEED1194F7F44AE3F19E068
:100D8000E80715D007EB04100DF1180A90E80E00E3
:100D90008AE80E00C068F04201D1981908903246E6
:100DA000012306A903A806F0DEFE03AB83E80700D3
:100DB0006D10641C002DE3D14FF0010332466946EB
:100DC000B8F1000F03A802D006F0B8FE01E006F06B
:100DD000CAFEC9E90001C9F808200AB0BDE8F087D9
:100DE0009872000000487047400000207546FFF7E9
:100DF000F9FFAE4605006946534620F007008546D8
:100E000018B020B5FFF7E0F9BDE820404FF000062C
:100E10004FF000074FF000084FF0000BAC46ACE875
:100E2000C009ACE8C009ACE8C009ACE8C00921F0D1
:100E300007018D46704710B50446AFF30080204689
:100E4000BDE81040FFF7ACB94FF0013C50F8042B5F
:100E500051F8043B9A4221D1A2EB0C03934313EACD
:100E6000CC1317D150F8042B51F8043B9A4215D1FA
:100E7000A2EB0C03934313EACC130BD150F8042BD1
:100E800051F8043B9A4209D1A2EB0C03934313EAB5
:100E9000CC13DBD04FF00000704700BFD01A01BA6E
:100EA000B1FA81F101F0180122FA01F0CB40DBB276
:100EB000C0B2C01AC1F120012CFA01F3D11A91433A
:100EC00011EAC311E6D1704701491820ABBEFEE715
:100ED000260002007047000080B582B0FFF786F957
:100EE00004F0F4FA05F098F905F05CFB05F0ACFAB3
:100EF0000A20009048F2483044F225714FF0140C5B
:100F0000C0F60000C0F6000100224FF48063CDF867
:100F100004C005F051FB05F0E3FC05F04BFB05F0C8
:100F200001FC05F027FB002002B080BDFEE70000B9
:100F300070470000EFF3108072B600BFFEE70000BC
:100F40002DE9F0438DB040F27034C2F200040F4638
:100F5000054627A120469846914606F041FB4FF4EE
:100F6000FA6005F04FFC25A1204606F039FB4FF44E
:100F7000FA6005F047FC0DF1020624A130462A462E
:100F80003B46FFF7ADF92046314606F029FB41F21A
:100F9000883005F037FC23A130464A464346FFF728
:100FA0009FF92046314606F01BFB4FF4FA6005F02E
:100FB00029FC23A1204606F013FB4FF4FA6005F04C
:100FC00021FC23A1204606F00BFB4FF4FA6005F04C
:100FD00019FC40F2A410C2F2000001212268016055
:100FE00050681FA004F026FD0DB0BDE8F08300BFDF
:100FF00041542B5253540D0A0000000041542B431E
:10100000574D4F44453D310D0A00000041542B43DC
:10101000574A41503D222573222C222573220D0A66
:101020000000000041542B43495053544152543D59
:1010300022544350222C222573222C25640D0A00B1
:1010400041542B4349504D4F44453D310D0A00005A
:1010500041542B43495053454E440D0A00000000B3
:10106000E5889DE5A78BE58C96E5AE8CE688900A31
:101070000000000010B581B00022009290F82420FA
:10108000012A03D10221084601B010BD4B6801229C
:10109000062B80F8242015D8026803EB8303A3F104
:1010A000050E1F23D2F834C003FA0EF40B682CEAA5
:1010B000040C03FA0EF444EA0C045463092B17D908
:1010C00037E000BF02680C2B20D803EB8303A3F1A9
:1010D00023041F23D2F830C003FA04FE0B682CEA65
:1010E0000E0C03FA04F444EA0C041463092B20D810
:1010F000D2F810C003EB4303072489689C402CEA14
:101100000404994021431161002136E003EB83037D
:10111000A3F141041F23D2F82CC003FA04FE0B688C
:101120002CEA0E0C03FA04F444EA0C04D462092BF2
:10113000DED903EB4304D2F80CC0A4F11E0E072441
:10114000896804FA0EF42CEA040401FA0EF1214332
:1011500023F00104102CD1600ED142F20841C4F2F8
:101160000101A1F10804A2420ED0816A41F02001E0
:101170008162012101E000BF0021002280F82420CB
:10118000084601B010BD00BF0A68120230D40A68D8
:10119000102B42F400020A602CD140F20801C2F286
:1011A000000109684DF68362C4F21B32A1FB0212F2
:1011B000910C01EB8101490000910099E1B1009986
:1011C000013900910099C9B1009901390091009944
:1011D000B1B1009901390091009999B10099013993
:1011E0000091009900294FF00001E8D1C5E700BF48
:1011F0000021C2E70021C0E70021BEE70021BCE7D3
:101200000021BAE70021B8E7B0B5002800F0A880B7
:101210000446806A20B121688868C0070BD114E0B9
:101220000020E06284F82400204600F09BF821684A
:101230008868C00709D0886820F00100886000F045
:1012400071FA21688A68D20726D1A06AC0063AD40A
:10125000A06A41F2021290430230A062E069D4E930
:10126000013240EA030C531EB3FA83F35D091346BF
:10127000B2F5807F18BF2B02207D257B01284CEA28
:10128000450030D135B3A56A45F02005A562E56A71
:1012900045F00105E56226E0054602E08868C007E2
:1012A000D3D000F03FFA401B21680328F6D38868AA
:1012B000C007F3D0A06A40F01000A062E06A40F0DE
:1012C0000100E062A06AA06A40F01000A062012064
:1012D000B0BD00BFD4F818C04EF60005CFF6FF75BC
:1012E00005EB4C352B434D68B2F5807F25F46945FD
:1012F00043EA05034B608B684FF2FD75CFF6E1754D
:1013000003EA050343EA00038B6001D0012A07D1F9
:1013100022690023CFF6F07303EB025201E000BF15
:101320000022CB6A23F470031A43CA62896840F62C
:10133000FE62CFF61F721140814207D10020E062A9
:10134000A16A012262F30101A162B0BDA06A40F06E
:10135000100020F00200A062E06A40F00100E062AC
:101360000120B0BD80B586B0006842F60001C4F22D
:10137000010188424FF00001CDE90411CDE90211CD
:101380001ED042F20041C4F20101884239D141F23B
:101390001800C4F20200016841F4007101600168A4
:1013A00001F4007101910199016841F004010160AB
:1013B000006800F0040001900198012017E000BFD0
:1013C00041F21800C4F20200016841F4806101603A
:1013D000016801F4806101910199016841F0040103
:1013E0000160006800F00400019001980220029062
:1013F0000320039040F60000C4F2010002A900F0AF
:1014000081F806B080BD0000014690F82100022856
:1014100016D10868D1E90FC3026822F00E020260FB
:10142000026822F001020260012000FA03F2CCF807
:10143000042081F821000020002281F8202070473C
:10144000042088630120002281F8202070470000DA
:1014500080B590F82110022924D10268116821F08A
:101460000E0111602F211368C4F202018A4240F27A
:101470000401C4F2020123F00103136016DD3023DE
:10148000C4F202039A421DD04423C4F202039A42DA
:101490001CD05823C4F202039A421DD14FF480336A
:1014A00022E000BF04218163012080BD0823C4F233
:1014B00002039A420ED01C23C4F202039A420BD1BB
:1014C000102311E04FF480730EE000BF4FF48053FF
:1014D0000AE000BF012307E001F1680C4FF08073C0
:1014E000624508BF4FF480130B60012180F8211082
:1014F000426B002180F820100AB190470021084675
:1015000080BD00002DE9F04F82B041F20042C4F2EC
:1015100001020E680423904208BF0323002E0093AB
:1015200000F0F68040F2004C4FF6FF7E0022C4F23D
:10153000010C0124C1F2100E4FF0000A4FF0000917
:1015400047E000BF012502F00C040F27A7402BEA5B
:10155000070705FA04F43C4343F82640D1F804B0E9
:1015600040F20C455FEACB23DCF8083054BF23EA95
:10157000080343EA0803C4F20105CCF808302B68DD
:101580005FEA8B2454BF23EA080343EA08032B6075
:101590005FEA8B34DCF8043054BF23EA080343EAE3
:1015A00008035FEACB34CCF80430DCF800304FF0AD
:1015B000010454BF23EA080343EA0803CCF80030CF
:1015C0000E680AF1010A36FA0AF302F1040200F089
:1015D0009F8004FA0AF816EA080FF1D04B687345A9
:1015E00012DC122B56D8DFE803F0350B4549555570
:1015F00055555555555555555555554D510000BFE7
:10160000D1F80C9046E000BF4FF6FF75C1F22105FE
:10161000AB420FDC0025C1F21105AB421AD0002508
:10162000C1F21205AB4215D00025C1F22105AB4233
:1016300010D02FE00025C1F22205AB420AD00025D0
:10164000C1F23105AB4205D00025C1F23205AB42F3
:1016500020D100BF8B684BB1012B14BFC0F81480A0
:10166000C0F810804FF0080914E000BF4FF00409E3
:1016700010E000BFCB6803F108090BE04FF0000950
:1016800008E000BFCB6803F1040903E0CB6803F175
:101690000C0900BF13460546BAF1080F24BF203BD2
:1016A00004352E680F279F40BE4309FA03F33343E6
:1016B0002B60CB79DB067FF583AF41F21804C4F2CF
:1016C000020423684FEA9A0643F00103236023686B
:1016D00040F6000403F001030193019BACF57E7317
:1016E00053F826B0C4F20104A0420FD040F60044E3
:1016F000C4F20104A0423FF425AF41F20004C4F259
:101700000104009DA04208BF02251CE700251AE73E
:1017100002B0BDE8F08F0000002A08BF0904016193
:101720007047000044F21040C2F2000000687047A9
:1017300070B5B8B3044690F83D0028B9002084F88D
:101740003C00204600F0B0F8242084F83D002068DA
:10175000016821F001010160016841F4004101606C
:10176000016821F40041016000F046FB48F280412D
:10177000C0F21E0140F60013D4F804E088424FF096
:101780000001C0F23D0348F2A16C4FF0000238BFE7
:1017900001219842C0F2010C38BF0122E64538BF52
:1017A0000A460AB1012070BD4DF68361C4F21B31B7
:1017B000A0FB01122168950C4B684FF4967623F03C
:1017C0003F0343EA9243754344F6D3564B60C1F25C
:1017D00062060B6AA5FB0656B50923F03F03E645F2
:1017E00038BF950C6A1C1A430A62CA6948F2A0669F
:1017F0004CF6FF73C0F20106B64522EA03020BD88D
:1018000001384FEA4E03B0FBF3F001306FF31F30A5
:10181000042898BF04201EE0A368013863B119238F
:101820000EFB03F3B0FBF3F001306FF31F3078B120
:1018300000F5804008E000BF0EEB4E03B0FBF3F074
:1018400001306FF31F3028B100F5004003E000BF06
:10185000012000E001201043C8610868D4E9072393
:1018600020F0C000104318430860886848F2FF3237
:1018700004F10C0690434CCE18431043A5698860D0
:10188000C86820F0FF0030432843C860086840F073
:101890000100086000202021206484F83D102063AE
:1018A00084F83E0070BD000010B586B045F20041DE
:1018B0000068C4F2000100228842049202D006B0FF
:1018C00010BD00BF41F21804C4F20204206840F0C9
:1018D00008002060206800F0080001900198C020F6
:1018E0000290122003900320059001F5384002A9D0
:1018F000FFF708FE606840F400106060606800F464
:1019000000100190019806B010BD000040F20000E8
:1019100044F21041C2F20000C2F2000100780A68ED
:10192000104408607047000080B542F20000C4F225
:101930000200016841F010010160032000F0BEF8D0
:101940000F2000F005F800F05BF8002080BD0000DB
:10195000B0B586B041F21801C4F202010A6804462B
:1019600042F400620A60096801A801F40061019173
:101970000199694600F018FA00F052FA4DF68361B9
:10198000C4F21B31A0FB01014FF0FF3000EB91418D
:1019900040F2E02042F60042C2F20000C4F201022E
:1019A00040F2E7330025C0E90021C0E90253056198
:1019B000856100F03DFC054610B1284606B0B0BD7B
:1019C00040F2E020C2F2000000F0B2FC0546002820
:1019D000F3D1192000F036F80F2C0DD8192021462C
:1019E0000022002500F03EF840F20400C2F20000A0
:1019F0000460284606B0B0BD0125284606B0B0BD3B
:101A000082B041F21800C4F202000168022241F0E3
:101A100001010160016801F0010101910199416832
:101A200041F080514160406800F080500090009883
:101A30000420C4F20100016862F31A61016002B07F
:101A400070470000002848BF704700F01F010122C6
:101A500002FA01F14EF200124009CEF2000242F801
:101A60002010704710B54EF60C5CCEF2000CDCF87E
:101A70000030C3F3022E8EF00704042C28BF042488
:101A8000BEF103034FF0FF3E0EFA04F438BF00230B
:101A9000A14399400EFA03F39A43114300F00F0259
:101AA000043A624409010C3200F16043B0F1FF3F97
:101AB000C8BF03F56442117010BD00004EF60C5112
:101AC000CEF200010A684FF6FF031A4060F30A22C3
:101AD00042F0806040F0FD70086070472DE9F041F1
:101AE00082B00446007841F21C06C007C4F2020628
:101AF0004AD0306810F0805808D1306840F08050EB
:101B00003060306800F080500190019847F2000783
:101B1000C4F200073868C00512D4386840F48070F9
:101B20003860FFF7FFFD05463868C00508D4FFF7A9
:101B3000F9FD401B6428F7D9032002B0BDE8F0810D
:101B4000706810F4407012D0616801F440718842EE
:101B50000DD0706840F24042C4F24222012320F4CA
:101B6000407113600023C007136071602AD1706850
:101B7000616820F440700843B8F1000F706003D131
:101B8000306820F0805030602068810707D556F813
:101B9000181CA26821F44041114346F8181CC006E5
:101BA00004D4002002B0BDE8F08100BF56F8180C44
:101BB000E16820F48000084346F8180C002002B0C9
:101BC000BDE8F081FFF7AEFD054641F2883700BF62
:101BD00070688007CBD4FFF7A5FD401BB8424FF0DB
:101BE0000300F5D9EBE700002DE9F04381B00028B0
:101BF00000F0858042F20008C4F202080446D8F8DA
:101C000000000D4600F0070088420CD2D8F8000012
:101C100020F007002843C8F80000D8F8000000F0C2
:101C20000700A8426BD1206841F204098107C4F281
:101C3000020917D5410705D5D9F8001041F4E06134
:101C4000C9F80010010705D5D9F8001041F460511A
:101C5000C9F80010D9F80010A26821F0F001114372
:101C6000C9F80010C00741D1D8F8000000F0070003
:101C7000A8420CD9D8F8000020F007002843C8F883
:101C80000000D8F8000000F00700A84237D1206813
:101C9000410707D5D9F80010E26821F4E06111434B
:101CA000C9F80010000708D5D9F80000216920F410
:101CB000605040EAC100C9F80000D9F8002002F0E5
:101CC0000C00082841F20020C0F27A0050D148F2FE
:101CD000DA03C2F38341C0F60003595CD2033BD45C
:101CE00040F60010C0F23D00484341E06068022821
:101CF0000AD001282AD159F8041C890308D40120EC
:101D000001B0BDE8F08300BF59F8041C8901F6D585
:101D1000D9F8001021F003010843C9F80000FFF7CB
:101D200001FD064641F28837D9F80000616800F0ED
:101D30000C00B0EB810F97D0FFF7F4FC801BB8428A
:101D4000F2D9032001B0BDE8F08300BF59F8041CAC
:101D50008907D4D5DCE700BFD9F8002047F6D8734F
:101D6000C2F34042C0F600039A5C4843B0FBF2F075
:101D7000D9F8001047F6C072C1F30311C0F6000293
:101D8000515C40F2080220FA01F140F20400C2F274
:101D900000000068C2F200021160FFF7D9FD0020C8
:101DA00001B0BDE8F08300000F22026041F204029E
:101DB000C4F20202136803F003034360136803F0E4
:101DC000F0038360136803F4E063C36012684FF4A8
:101DD000E06303EAD202026142F20000C4F20200B0
:101DE000006800F0070008607047000040F208003B
:101DF000C2F200000068704740F2080041F204019E
:101E0000C2F20000C4F202010068096847F6D0720D
:101E1000C1F30221C0F60002515CC84070470000C7
:101E200040F2080041F20401C2F20000C4F20201D3
:101E30000068096847F6D072C1F3C221C0F60002FB
:101E4000515CC840704700002DE9F04182B0002885
:101E500068D00446007841F20006C007C4F20206CA
:101E600025D0706800F00C0004281BD0706800F0CA
:101E70000C00082802D17068C00313D460680028E1
:101E800000F06881B0F5A02F00F07C81B0F5803FB4
:101E900000F07C81306820F480303060306820F4BD
:101EA000802076E13068800301D56068D0B3207867
:101EB000800718D5706810F00C0F07D0706800F01C
:101EC0000C0008286ED17068C0036BD4306880079E
:101ED00002D52069012825D13068616920F0F80019
:101EE00040EAC1003060207800071FD42078400706
:101EF00032D4E56995B1706800F00C00082840F014
:101F00008F80012D0ED07068216A00F480328A42E1
:101F100008D1616A00F47010884203D1002002B039
:101F2000BDE8F081012002B0BDE8F081A069002881
:101F300062D00020C4F242200121C0F88014FFF7D3
:101F4000F1FB0546706A800700F18C80FFF7EAFB21
:101F5000401B0228F6D92AE1F06910F0805808D118
:101F6000F06940F08050F061F06900F0805000901E
:101F7000009847F20007C4F200073868C00529D46A
:101F8000386840F480703860FFF7CCFB054600BF2E
:101F90003868C0051ED4FFF7C5FB401B6428F7D97D
:101FA00005E100BF2069002840F20000C4F2422091
:101FB00000F0828001210160FFF7B4FB054600BFFD
:101FC000306880073FF588AFFFF7ACFB401B022865
:101FD000F6D9ECE0E068002800F08080052800F0E9
:101FE0009780012800F09880306A20F0010030626C
:101FF000306A20F0040092E00020C4F24220002168
:10200000C0F88014FFF78EFB054600BF706A80079A
:102010007FF56CAFFFF786FB401B0228F6D9C6E0C0
:102020000027C4F2422700203866FFF77BFB022D11
:1020300005460BD13068800140F1BE80FFF772FB8E
:10204000401B02284FF00300F4D968E73068800194
:102050007FF564AFFFF766FB401B02284FF00300DB
:10206000F4D95CE740F20800C2F20000006844F6D0
:10207000D351C1F26201A0FB0101480A019000BFE7
:1020800000BF0198411E002801913FF42FAF00BF0F
:102090000198411E002801913FF428AF00BF01982C
:1020A000411E002801913FF421AF00BF0198411E5D
:1020B00000280191E4D119E700210160FFF732FB0C
:1020C000054600BF306880077FF50DAFFFF72AFB9C
:1020D000401B02284FF00300F4D920E7306A20F0BB
:1020E00001003062306A20F004003062FFF71AFB12
:1020F000054641F2883700BF306A800720D5FFF7D8
:1021000011FB401BB8424FF00300F5D907E700BFB1
:10211000306A40F004003062306A40F00100306202
:10212000FFF700FB054641F2883700BF306A8007A1
:1021300006D4FFF7F7FA401BB842F7D937E000BFE3
:10214000B8F1000F7FF4D5AEF06920F08050F06157
:10215000CFE600BF306820F480303060306820F473
:1021600080203060FFF7DEFA054600BF306880034C
:102170007FF59DAEFFF7D6FA401B64284FF00300B1
:10218000F4D9CCE6306840F480203060306840F408
:1021900080303060FFF7C6FA054600BF3068800324
:1021A0003FF585AEFFF7BEFA401B6428F6D9032041
:1021B00002B0BDE8F08100BF206AB0F5803F05D1D4
:1021C0007168A26821F40031114371607168626A1C
:1021D00021F4741110430843706001203866FFF742
:1021E000A1FA0446306880013FF598AEFFF79AFAED
:1021F000001B02284FF00300F4D990E6411E002096
:10220000B0EB116F1CBF012070474EF21002CEF2EE
:10221000000251604EF62351CEF20001F0230B7004
:102220000721906011607047704700007047000000
:10223000002804BF0120704710B5044690F83D0007
:1022400028B9002084F83C00204600F06FF80220F6
:1022500084F83D00206840F2FF730268C4F2000376
:1022600042F6004C9842C4F2010C15DCB0F1804FEC
:102270001AD040F20041C4F20001884214D09842C2
:1022800018DCB0F1804F1DD040F20041C4F20001D3
:10229000884217D01AE000BF604505D040F6000123
:1022A000C4F200018842EAD1A16822F070020A4318
:1022B0009842E6DD604505D040F60001C4F2000119
:1022C000884203D1216922F440720A43A36922F0B3
:1022D0008001D4F804E0E268194360450160C262FD
:1022E000C0F828E002D16169CCF8301001214161C9
:1022F0000269D20703D0026922F0010202610020C4
:1023000084F8461084F83E1084F83F1084F840109A
:1023100084F8411084F8421084F8431084F8441083
:1023200084F8451084F83D1010BD0000704700008F
:1023300090F83D1001291CBF01207047022180F850
:102340003D10006840F2FF72C168C4F20002904282
:1023500041F00101C16009DCB0F1804F12D040F2C0
:102360000041C4F2000188420CD012E042F6004164
:10237000C4F20101884205D040F60001C4F2000118
:10238000884206D1816801F00701062904BF0020B8
:102390007047016841F001010160002070470000B2
:1023A0007047000070B504460068C5680669B1074B
:1023B00016D515F0020113D06FF002010161012161
:1023C00021778069800703D02046FFF7E9FF05E009
:1023D000204600F08FF8204600F08EF8002020778D
:1023E000700719D515F0040016D020686FF00401AD
:1023F000016102212177806910F4407F04D02046DA
:10240000FFF7CEFF06E000BF204600F073F820463D
:1024100000F072F800202077300717D515F008007B
:1024200014D020686FF00801016104212177C06990
:10243000800703D02046FFF7B3FF05E0204600F0F9
:1024400059F8204600F058F800202077F00619D5FA
:1024500015F0100016D020686FF0100101610821FE
:102460002177C06910F4407F04D02046FFF798FF21
:1024700006E000BF204600F03DF8204600F03CF8A2
:1024800000202077F00718BF15F0010002D13006B8
:1024900009D412E020686FF001010161204600F0CC
:1024A0002DF8300609D515F0800006D020686FF0B1
:1024B000800101612046FFF7B7FE700609D515F0CF
:1024C000400006D020686FF040010161204600F016
:1024D0001FF8B00658BF70BD15F0200008D0216865
:1024E0006FF0200220460A61BDE87040FFF79EBEF3
:1024F00070BD00007047000070470000006842F6A1
:102500000041C4F20101884208BFFFF7FFB97047DC
:10251000704700007047000070470000B0B582B0FF
:10252000044600680168C368426901F02F05202D48
:1025300003F0200506D12DB1204602B0BDE8B04021
:1025400000F0C0BE5FEA017C1EBF02F0010E03F482
:10255000907212EB0E0255D1226B012A05D111F0B7
:10256000100218BF13F0100236D10A0622D513F05C
:1025700080021FD094F84110212941D1A168B1F502
:10258000805F03D12169002900F07282216A4A1C10
:10259000226209784160E18C01390A04E1842FD17B
:1025A000C16821F08001C160C16841F04001C16093
:1025B00002B0B0BD490623D513F0400120D0C16858
:1025C00021F04001C1602021204684F8411002B072
:1025D000BDE8B04000F0CEBC00210191016801913E
:1025E0004168019101994169490600F18F80A18DEF
:1025F000E28DE38D002B1CBF891A5FEA01420CD1EA
:1026000002B0B0BDCA0718BF13F4807240F0388121
:102610004A0700F13B8140E1206850E8030F22683F
:1026200020F4907042E80303DBB1206850E8030F08
:10263000226820F4907042E8030393B1206850E8C8
:10264000030F226820F4907042E803034BB1206826
:1026500050E8030F226820F4907042E80303002B37
:10266000DAD1206850E8050F226820F0010042E826
:102670000503DBB1206850E8050F226820F0010057
:1026800042E8050393B1206850E8050F226820F066
:10269000010042E805034BB1206850E8050F2268AD
:1026A00020F0010042E80503002BDAD1202084F855
:1026B000420000202063206850E8030F226820F0C9
:1026C000100042E80303DBB1206850E8030F2268E2
:1026D00020F0100042E8030393B1206850E8030F94
:1026E000226820F0100042E803034BB1206850E854
:1026F000030F226820F0100042E80303002BDAD118
:10270000022289B220466263B4E000BFE16B0A682E
:10271000526893B2002B3FF473AFA58DAB42BFF468
:102720006FAFE2858969202900F09D8050E8030F92
:10273000216820F4807041E80302EAB1206850E883
:10274000030F216820F4807041E80302A2B12068E1
:1027500050E8030F216820F4807041E803025AB169
:10276000206850E8030F216820F4807041E80302DC
:1027700012B12068DAE700BF206850E8050F216831
:1027800020F0010041E80502DAB1206850E8050FA9
:10279000216820F0010041E8050292B1206850E86C
:1027A000050F216820F0010041E805024AB12068C8
:1027B00050E8050F216820F0010041E80502002AD9
:1027C000DAD1206850E8050F216820F0400041E888
:1027D0000502DAB1206850E8050F216820F04000BA
:1027E00041E8050292B1206850E8050F216820F009
:1027F000400041E805024AB1206850E8050F216811
:1028000020F0400041E80502002ADAD1202084F8B7
:10281000420000202063206850E8030F216820F068
:10282000100041E80302DAB1206850E8030F216884
:1028300020F0100041E8030292B1206850E8030F35
:10284000216820F0100041E803024AB1206850E8F6
:10285000030F216820F0100041E80302002ADAD1BA
:10286000E06BFEF7D1FD02206063A08DE18D401A80
:1028700081B2204602B0BDE8B040FFF74BBE00BFBA
:10288000626C42F0010262644A0706D5BEF1000F95
:1028900003D0626C42F0020262648A0706D5BEF180
:1028A000000F03D0626C42F004026264BCF1000FBE
:1028B00006D555EA0E0203D0626C42F0080262644B
:1028C000626C002A3FF49CAE11F0200118BF002D6D
:1028D00003D0204600F0F6FC20684169626C01F0EC
:1028E000400102F00802891800F0A28050E8030FAE
:1028F000216820F4907041E80302C2B3206850E8D8
:10290000030F216820F4907041E803027AB3206835
:1029100050E8030F216820F4907041E8030232B3BD
:10292000206850E8030F216820F4907041E803020A
:10293000EAB12068DAE700BF206850E8050F216897
:1029400020F0010041E80502DAB1206850E8050FE7
:10295000216820F0010041E8050292B1206850E8AA
:10296000050F216820F0010041E805024AB1206806
:1029700050E8050F216820F0010041E80502002A17
:10298000DAD1206B012824D1206850E8030F216898
:1029900020F0100041E80302DAB1206850E8030F8C
:1029A000216820F0100041E8030292B1206850E84D
:1029B000030F216820F0100041E803024AB12068AB
:1029C00050E8030F216820F0100041E80302002ABC
:1029D000DAD1202084F84200002020632068416979
:1029E00049063FD550E8050F216820F0400041E836
:1029F00005022AB3206850E8050F216820F0400046
:102A000041E80502E2B1206850E8050F216820F096
:102A1000400041E805029AB1206850E8050F21689E
:102A200020F0400041E8050252B12068DAE700BF1B
:102A30002046FFF771FD0020606402B0B0BD00BF0A
:102A4000E06B78B143F2B921C0F600014163FEF7B3
:102A5000FFFC00283FF4D4ADE06B416B02B0BDE851
:102A6000B0400847204602B0BDE8B040FFF754BD73
:102A7000216A31F8022B6FF35F22426021628AE5FE
:102A8000002804BF0120704710B5044690F84100AB
:102A900028B9002084F84000204600F061F8242086
:102AA00084F841002068D4E90212C36823F400537B
:102AB000C360036923F440531A430261D4E9042339
:102AC0001143C268194341F20C639A431143C16038
:102AD0004169A26921F44071114343F60002C4F236
:102AE00001029042416103D0FFF786F902E000BF86
:102AF000FFF796F96268192148439100B0FBF1F0A5
:102B000048F21F51C5F2EB11A0FB01235A096FF0E7
:102B1000630302FB0300322303EB0010A0FB01015F
:102B2000F02303EA5113206803EB0212C1F34311AF
:102B300011448160016921F490410161416921F0F2
:102B40002A014161C16841F40051C1600020202187
:102B5000606484F8411084F84210606310BD000086
:102B600070B586B0006844F20041C4F2000100264E
:102B700088420596CDE9036602963FD044F60001EF
:102B8000C4F20001884271D043F60001C4F2010191
:102B9000884240F09D8041F21800C4F202000168B2
:102BA00040F6000441F4804101600168C4F2010470
:102BB00001F4804101910199016802AD41F00401E5
:102BC00001600068294600F00400019001984FF46C
:102BD0000070029002200390032005902046FEF72B
:102BE00091FC4FF4806002900020CDE90300204664
:102BF0002946FEF787FC06B070BD00BF41F2180001
:102C0000C4F20200416840F6000441F40031416022
:102C10004168C4F2010401F4003101910199016895
:102C200002AD41F0040101600068294600F0040093
:102C30000190019804200290022003900320059047
:102C40002046FEF75FFC0820CDE902062046294613
:102C50000496FEF757FC262000210022FEF702FF13
:102C60002620FEF7EFFE06B070BD00BF41F218004F
:102C7000C4F20200416802AD41F480214160416824
:102C800001F4802101910199016841F0080101607E
:102C90000068294600F00800019001984FF4806018
:102CA0000290022003900320059040F60000C4F239
:102CB000010000F580642046FEF724FC4FF400601C
:102CC00002900020CDE9030020462946FEF71AFCB9
:102CD00006B070BD90F84230202B1CBF0220704718
:102CE00000294FF0010318BF002A01D11846704790
:102CF00000230363816222218285C285436480F8B8
:102D000042100169006819B1C16841F48071C16065
:102D10004169002341F001014161C16841F0200196
:102D2000C16018467047000040F27031C2F20001E5
:102D3000884218BF704770B540F2A015C2F2000576
:102D4000286844F20C44032804BF00202860C2F223
:102D500000042068F92808DB44F21030C2F20000B9
:102D6000FA21FDF730FC0020206040F2A006C2F2FC
:102D7000000631780A2907D144F2103122A0C2F2AC
:102D8000000102F057FE2068411C0DD02A68022A7B
:102D90000ED0012A14D103281ADC32783044216085
:102DA00080F8242022E000BF002020601EE000BF49
:102DB000B26A904214DA3278F36A21601A5415E04C
:102DC0003278216044F21031C2F200010A540DE061
:102DD00048F2DE20C0F6000002F02CFE06E000BF44
:102DE00048F2EE20C0F6000002F024FE40F27030FF
:102DF00040F2A001C2F20000C2F200010122BDE8CF
:102E00007040FFF767BF00BF257300002DE9F04158
:102E1000044690F8410020281CBF0220BDE8F08144
:102E20000F4600294FF0010000F082801646002A6C
:102E300008BFBDE8F0814FF0000821201D46C4F80E
:102E4000448084F84100FEF76DFCA684E684A16806
:102E50000646B1F5805F05D12069002814BF3846C9
:102E6000B8460746E08CC8B1681C19D0002D61D166
:102E7000216807E017F8010B4860E08C0138E08416
:102E8000E08C68B3086800064CD5002FF2D138F802
:102E9000020B00276FF35F20EEE700BF21681FE001
:102EA000216802E00868000609D40868000606D414
:102EB000086800065CBF08685FEA0060F2D51FB1D1
:102EC00017F8010B05E000BF38F8020B00276FF37D
:102ED0005F204860E08C0138E084E08C0028E4D179
:102EE000086840061CD4EDB1681C0FD10868400684
:102EF00016D40868400613D40868400610D4086841
:102F000040064FF00000F1D50FE000BFFEF70AFCCD
:102F1000801BA84208D82068C16800684006F5D523
:102F2000002002E0FEF7FEFB0320202184F8411080
:102F3000BDE8F081216800BF0868000608D4FEF7EC
:102F4000F1FB801BA842EFD82168C868F4E700BFF6
:102F500017B117F8010B04E038F8020B00276FF3E4
:102F60005F204860E08C0138E084E08C0028E3D1E9
:102F7000B6E7000070470000B0B584B040F22C20E6
:102F800042F20041C2F20000C4F201010024012516
:102F90004FF4602205730475C261C0E900148460B7
:102FA0000561FEF731F9002818BFFDF7C3FF40F2B5
:102FB0002C20C2F2000001A9CDE901450394FEF7DF
:102FC00059F8002818BFFDF7B5FF04B0B0BD0000E8
:102FD000B0B584B040F25C2042F60001C2F20000BD
:102FE000C4F20101002401254FF460220573047529
:102FF000C261C0E9001484600561FEF705F900288C
:1030000018BFFDF797FF40F25C20C2F2000001A953
:10301000CDE901550394FEF72DF8002818BFFDF700
:1030200089FF04B0B0BD0000F0B585B0002641F2C4
:1030300018000496C4F20200016840F6000441F052
:10304000200101600168C4F2010401F02001009137
:1030500000990168002241F0040101600168202705
:1030600001F0040100910099016841F0080101603C
:103070000068202100F00800009000982046FEF72C
:103080004BFB102001ADCDE90106204629460396F1
:10309000FEF738FA0120CDE902060220049020460E
:1030A00029460197FEF72EFA05B0F0BD80B540F233
:1030B0008C2045F20041C2F20000C4F2000148F247
:1030C000A06200234FF4804CC0F2010280E80E00A1
:1030D000C0E9033CC0E90533C0E90733FEF728FB2C
:1030E000002808BF80BDBDE88040FDF723BF000079
:1030F00080B540F2283043F60001C2F20000C4F26D
:10310000010100234FF00C0C4FF4E13280E80E0077
:10311000C0E90333C0E905C3C361FFF7B1FC002870
:1031200008BF80BDBDE88040FDF704BF80B540F218
:10313000703044F20041C2F20000C4F200010023EA
:103140004FF00C0C4FF4E13280E80E00C0E903337D
:10315000C0E905C3C361FFF793FC002808BF80BD29
:10316000BDE88040FDF7E6BE80B540F2B83044F6D9
:103170000001C2F20000C4F2000100234FF00C0C69
:103180004FF4E13280E80E00C0E90333C0E905C323
:10319000C361FFF775FC002808BF80BDBDE8804013
:1031A000FDF7C8BEFEE70000FEE7000080B502F0B4
:1031B00025FC03F04BFCBDE8804002F02DBC000074
:1031C000B0B594B00AAC201D2421FDF71EFA0220F0
:1031D0000A9001200E90102000250F9020460495A3
:1031E000CDE902551195FEF72FFE28B1EFF31080BF
:1031F00072B600BFFEE700BF0F20CDE9050505A8A8
:103200000021CDE907550995FEF7EEFC20B1EFF35B
:10321000108072B6FEE700BF0220019000200390EC
:1032200001A8FEF75BFC28B1EFF3108072B600BF77
:10323000FEE700BF14B0B0BD41F20400C4F20200CA
:10324000016801F00C01082941F20021C0F27A0165
:1032500019D102680368C2F38342DB0302F1020260
:1032600006D440F60011C0F23D0151430BE000BF0F
:1032700003689B0302D4514305E000BF40F60011F0
:10328000C0F23D01514340F20802C2F20002116057
:10329000006847F6C073C0F30310C0F60003185C63
:1032A00021FA00F0106070477047000040F2E02003
:1032B000C2F20000FFF776B8406A0021C185C184E0
:1032C000FFF72AB981B090F84210222920D18368F3
:1032D000B3F5805F08D10169002965D000F12801AC
:1032E0000A6803685B680AE0014651F8282F13B9A1
:1032F0000369002BF5D003685B6803F07F0313704C
:103300000A6801320A60C18D01390A04C18501D001
:1033100001B070470168CA6822F02002CA60CA681A
:1033200022F48072CA604A6922F001024A612022B6
:1033300080F8422000224263036B012B3ED10263DE
:1033400051E8031F026821F0100142E803130168ED
:10335000DBB151E8031F026821F0100142E80313BA
:10336000016893B151E8031F026821F0100142E89F
:10337000031301684BB151E8031F026821F01001EB
:1033800042E803130168002BDAD10A68D20606D599
:10339000002200920A680092496800910099818D8C
:1033A00001B0FFF7B7B800BF0168826A49686FF3E0
:1033B0005F2122F8021B8262A5E700BF01B0FFF780
:1033C000B3BC000040F27030C2F20000FFF7A6B8B4
:1033D000FEE70000002804BF00207047C1B209B119
:1033E00001200CE010F47F4102D0090A092006E018
:1033F00010F47F0107BF010E1920090C112047F6B8
:10340000DA72C0F60002515C0844704780B500F0E3
:10341000D1FB002080BD000080B500F037FD00200A
:1034200080BD00002DE9F04FA3B02BA02DA130A24C
:1034300042F2B823FDF784FD40F2A410C2F200006E
:103440000068002844D000BF40F2A006C2F2000687
:10345000D6E90107D6E9035804F0F4FCCDE90810D9
:10346000384604F0EFFC83462846894604F0EAFC1F
:10347000054640468A4604F0E5FC044670690E465F
:1034800004F0E0FCCDE904460AACDDE908320F4661
:10349000069020461AA1CDE900B9CDE9025A079756
:1034A000FCF71EFF1EA0214602F0C4FA20460021B0
:1034B00000F04CF81EA002F0BDFA4FF4FA6003F0E1
:1034C000A1F940F2A410C2F2000000680028BBD1AC
:1034D00023B0BDE8F08F00BF417370795261696E0F
:1034E000000000005B46726F6D6D65746F555D0086
:1034F0003139322E3136382E37302E313931000005
:10350000646174613A252E31662C252E31662C2596
:103510002E31662C252E31662C252E31660A0000B0
:10352000E58F91E98081E695B0E68DAE25730A00BE
:10353000E6ADA3E59CA8E8BF90E8A18C3A77696660
:1035400069E9809AE4BFA10A0000000010B50129D2
:1035500004460DD12046FCF7C4FF48B1204410F8C2
:10356000010C0A2804D02046FCF7BBFF0A21215297
:1035700009A002F05FFA40F27030C2F2000021466A
:1035800004F02EF84FF47A7003F03CF906A0BDE881
:10359000104002F04FBA00BFE58F91E98081E695B7
:1035A000B0E68DAE0A000000E58F91E98081E5AEBE
:1035B0008CE688900A00000070B582B040F2401698
:1035C00048F2E45048F28C61C2F20006C0F60000F6
:1035D000C0F60001C6E900010120782101F056FE85
:1035E000706128B30A201521CDE9001043F269610A
:1035F00013A0C0F6000100224FF48063002402F003
:10360000DBFF7269054610A110460022002302F07C
:103610004BFD706990F8211041F0020180F82110F3
:103620001DB1284603F05CF90024204602B070BDAD
:1036300007A002F0FFF94FF0FF34204602B070BD42
:10364000747368656C6C0000736872780000000029
:103650006E6F206D656D6F727920666F7220736872
:10366000656C6C0A0000000040F2401AC2F2000AC9
:10367000DAF8140040F2A81490F82110C2F2000405
:1036800041F0010280F82120880703D40020207037
:1036900026E000BFDAF8101041B140F2A810C2F2E3
:1036A00000008022FCF7D8FF1AE000BF01F068FBA1
:1036B00030B10020207147F26D30C2F2680009E09D
:1036C00046F67300C0F22000C4F8030046F6661008
:1036D000C7F26E3020602046FCF703FF3E212152E6
:1036E000204602F0A7F948F2C5564FF0010B4FF003
:1036F0000008C0F60006022702E000BF80F820B0F4
:1037000001F004FF8146DAF81400B9F11B0FF5D07F
:1037100090F82010022909D0012940F07580B9F1F4
:103720005B0F40F06F8080F82070E9E7A9F141015C
:10373000022980F82080E3D3B9F1440F00F292808F
:10374000DFE819F046009700970097009700970070
:1037500097009700A000E0007000970097007000AD
:1037600097009700970097009700970097009700A1
:103770009700970097009700970097009700970091
:103780009700970097009700970097009700970081
:103790009700970097009700970097009700970071
:1037A0009700970097009700970097009700970061
:1037B0009700970097009700970097009700970051
:1037C000970097009700970097004800840100BF7A
:1037D00096E700BFB0F87410B0F872209142BFF4C1
:1037E0008FAF084490F8221048F2C750C0F600008E
:1037F00002F020F9DAF81400B0F874100131A0F8E2
:1038000074107DE780F82080B9F10D0F2AD8DFE829
:1038100009F0073030303030303039790930300934
:103820006EE700BF01F0ACFA012812D1DAF81400FB
:1038300090F82110C90707D048F24640C0F60000B2
:1038400002F0F8F8DAF81400B0F87210223001F043
:1038500045F8DAF8140090F82100800778D484F84D
:1038600000801DE1B9F17F0F0CD0B9F1FF0F3FF4DB
:1038700047AFB0F87220502A74D30022A0F872200B
:10388000A4E000BFB0F8741000293FF439AFB0F8DD
:1038900072200139531E9AB2A0F872308BB29A424C
:1038A000A0F8741040F2B480C11801F12200233155
:1038B000D21A02F0BBF9DAF81400B0F8721008441A
:1038C00080F82280DAF81400B0F87410084400F18F
:1038D000220189A002F0AEF8DAF81410B1F87400F1
:1038E000B1F8721088423FF60BAF451E304602F029
:1038F000A1F8DAF814000135B0F872008542F5D36A
:10390000FEE600BFB0F8741051B10025304602F059
:1039100091F8DAF814000135B0F874108D42F5D33F
:1039200000F1220548F24640C0F6000002F082F89D
:1039300001F026FA012802D1284600F00DFFDAF83E
:10394000140090F8210080076ED484F80080C1E054
:10395000DAF8101000296FD020468022FCF77CFE98
:103960009EE000BFB0F874309A422FD9C11801F11F
:1039700023002231D21A02F059F9DAF81400B0F813
:103980007410084480F82290DAF8140090F821109E
:10399000C90709D0B0F87410084400F122015AA0F8
:1039A00002F048F8DAF81400B0F87450B0F8721069
:1039B0008D421DD2304602F03DF8DAF81400013590
:1039C000B0F872108D42F5D312E000BF104480F8B9
:1039D0002290DAF8140090F82110C90708D048F2B4
:1039E000C750C0F60000494602F024F8DAF8140087
:1039F000B0F87210B0F874200131A0F8721089B2DA
:103A000001325029A0F8742028BFC0F8728077E6F0
:103A100038A002F00FF8DAF81400B0F87210084479
:103A200080F822806CE600BFDAF81010F1B1204671
:103A30008022FCF711FE4DE001F0A2F900B347F23D
:103A40006D3084F80480C2F2680023E0B0F874009E
:103A500000283FF455AE304601F0ECFFDAF81400D0
:103A6000B0F874100139A0F8741049E601F088F933
:103A700000B347F26D3084F80480C2F2680023E09E
:103A800046F67300C0F22000C4F8030046F6661044
:103A9000C7F26E3020602046FCF723FD3E21215204
:103AA000204601F0C7FFDAF8140054212230FCF759
:103AB0008AFD25E646F67300C0F22000C4F8030034
:103AC00046F66610C7F26E3020602046FCF709FD0E
:103AD0003E2121520AA021462A4601F0ABFFDAF826
:103AE000145005F12200FCF7FCFCA5F87200A5F8C3
:103AF000740005E60820080008257320200800004F
:103B000025732573000000002573000080B502A016
:103B100001F090FF002080BD48656C6C6F2052540E
:103B20002D546872656164210A0000002DE9F0439C
:103B300081B016A001F07EFF40F2401040F244191F
:103B4000C2F20000C2F200090768D9F80050AF4283
:103B500018D213A40FF24C0803E000BF0C37AF4299
:103B600010D23E68214630460222FCF7D9FC0028DC
:103B7000F4D07A684046314601F05CFFD9F8005035
:103B8000ECE700BF002001B0BDE8F0832D2D4675A5
:103B90006E6374696F6E204C6973743A0A0000009A
:103BA0005F5F0000252D313673202D2D2025730AEF
:103BB0000000000010B540F2E804C2F200042168E1
:103BC00006A001F037FF216909A001F033FF616908
:103BD0000CA0BDE8104001F02DBF00BF746F7461F0
:103BE0006C206D656D6F72793A2025640A000000C3
:103BF00075736564206D656D6F7279203A20256458
:103C00000A0000006D6178696D756D20616C6C6FE4
:103C10006361746564206D656D6F72793A20256407
:103C20000A0000002DE9F04F8DB0022002F052F999
:103C300000F104087AA081A2082101F0FBFE48F2FD
:103C40008354C0F60004204601F0F4FE204601F043
:103C5000F1FE204601F0EEFE204601F0EBFE20468C
:103C600001F0E8FE204601F0E5FE204601F0E2FE0C
:103C7000204601F0DFFE74A001F0DCFE00260DF10D
:103C8000140B7BA77BA4CDF80C8005E0049EDDF827
:103C90000C80002E00F0C0803546002E08BF45463F
:103CA000FCF7A4FA36B115F8041C01F07F010229D3
:103CB00040F0B0802968414500F0AC800A68059169
:103CC00042451DD01168069241451DD00A680791F2
:103CD00042451DD01168089241451DD00A680991DE
:103CE00042451DD011680A9241451DD00A680B91CA
:103CF00042451DD04FF00808114604920C921BE07B
:103D00004FF0010816E000BF4FF0020812E000BFBC
:103D10004FF003080EE000BF4FF004080AE000BFB8
:103D20004FF0050806E000BF4FF0060802E000BFB4
:103D30004FF007080021049150A5FCF75BFA4FF003
:103D4000000905E0FCF756FA09F10109C1459DD0CB
:103D50005BF829A0FCF74AFA1AF8041C01F07F016D
:103D60000229EFD1FCF746FA5AF8081F0026BAF8E4
:103D700008005145AAF1140351460FD00968514576
:103D80001FD00968514519D00968514518D00968F4
:103D900004365145F2D1013E13E000BF0968514598
:103DA0002FD00968514529D00968514528D00968A4
:103DB00004365145F2D1013E23E000BF013600E058
:103DC0000236009026A008210822019601F032FE5A
:103DD000DAF8006056450DD0A6F11401384601F01E
:103DE00029FE3068504505D0204601F023FE366894
:103DF0005645F1D120A001F01DFEA5E7013600E0F7
:103E000002360090284608210822019601F012FE91
:103E10009AE700BFFCF7EEF900200DB0BDE8F08F87
:103E2000252D2A2E73207620202073757370656EE1
:103E300064207468726561640A00000073656D61D6
:103E400070686F7265000000202D2D2D202D2D2D06
:103E50002D2D2D2D2D2D2D2D2D2D2D0A0000000069
:103E6000252D2A2E2A7320253033642025643A001C
:103E7000257300002F0000000A000000252D2A2EC7
:103E80002A7320253033642025640A002DE9F04F81
:103E90008DB0012002F01EF8051D48F20E50C0F64C
:103EA000000073A2082101F0C5FD48F28354C0F65A
:103EB0000004204601F0BEFD204601F0BBFD204677
:103EC00001F0B8FD204601F0B5FD204601F0B2FD3D
:103ED000204601F0AFFD204601F0ACFD204601F088
:103EE000A9FD65A001F0A6FD00240DF1140A0395BB
:103EF00005E000BF049C039D002C00F0B580264621
:103F0000002C08BF2E46FCF771F934B116F8041CDA
:103F100001F07F01012940F0A5803168A94200F03D
:103F2000A1800A680591AA421ED011680692A94292
:103F30001ED00A680791AA421ED011680892A942B1
:103F40001ED00A680991AA421ED011680A92A9429D
:103F50001ED00A680B91AA421ED04FF008081146E5
:103F600004920C921CE000BF4FF0010816E000BF65
:103F70004FF0020812E000BF4FF003080EE000BF50
:103F80004FF004080AE000BF4FF0050806E000BF4C
:103F90004FF0060802E000BF4FF00708002104912F
:103FA000FCF728F94FF0000906E000BFFCF722F902
:103FB00009F10109C1459DD05AF829B0FCF716F95D
:103FC0001BF8041C01F07F010129EFD1ABF10C06B5
:103FD000FCF710F99BF8294037A008210822334646
:103FE000009401F027FD9BF8280000F00F00042842
:103FF00004D834A151F8200001F01CFDDBF81C00AE
:10400000C11C00BF11F8032C232A0DD111F8022C7A
:10401000232A0BD111F8012C232A09D111F8042BE2
:10402000232AEFD0043904E0033902E0023900E02A
:104030000139DBE90824DBF810601718401A104436
:1040400064214843DBF83450B0FBF2F3B91B22A0E3
:104050000095019401F0EEFC09F10109C145ABD1D5
:1040600048E700BFFCF7C6F800200DB0BDE8F08FB0
:104070007468726561640000202D2D2D20202D2D87
:104080002D2D2D2D2D202D2D2D2D2D2D2D2D2D2D6D
:10409000202D2D2D2D2D2D2D2D2D2D20202D2D2D77
:1040A0002D2D2D20202D2D2D2D2D2D2D2D2D2D2067
:1040B0002D2D2D0A00000000252D2A2E2A732025E3
:1040C0003364200052850008648500088585000857
:1040D0008E8500085B8500082030782530387820F0
:1040E000307825303878202020202530326425256E
:1040F00020202030782530387820253033640A009D
:104100002DE9F04F8FB00A2001F0E4FE00F1040920
:104110000FF2B0400FF2D442082101F08BFC48F2BC
:104120008354C0F60004204601F084FC204601F0D0
:1041300081FC204601F07EFC204601F07BFC2046FD
:1041400001F078FC204601F075FC204601F072FC7D
:10415000204601F06FFC0FF29C4001F06BFC002642
:1041600023E000BFA4F10C07FCF744F8D4E90605EE
:104170000821009048F26D50C0F6000008223B462E
:10418000019501F057FC14F8030CC00707BF48F273
:104190000150C0F6000048F20350C0F6000001F0E4
:1041A00049FC00BF002E00F003823446002E08BFF9
:1041B0004C46FCF71BF836B114F8041C01F07F01E3
:1041C0000A2940F0F3812168494500F0EF810A682F
:1041D00007914A4520D011680892494522D00A68C3
:1041E00009914A4500F0C28011680A92494500F0E1
:1041F000F9800A680B914A4500F0328111680C92EF
:10420000494500F039810E680D914E4500F07681E8
:1042100000240E9602E000BF002601244FF0000BA0
:1042200004E000BF4FF0010B002600244FF0000A0D
:1042300000210691002105910021049100210391A4
:10424000FBF7D8FFDDF81C80FBF7D0FF18F8041C43
:1042500001F07F010A2923D1A8F10C07FBF7CAFF5F
:10426000D8E906050821009048F26D50C0F600001C
:1042700008223B46019501F0DDFB18F8030CC0074E
:1042800007BF48F20150C0F6000048F20350C0F6E4
:10429000000001F0CFFB002C7FF484AF05E000BFED
:1042A000FBF7A8FF002C7FF47DAF089CFBF79EFF77
:1042B00014F8041C01F07F010A2923D1A4F10C0792
:1042C000FBF798FFD4E906050821009048F26D50ED
:1042D000C0F6000008223B46019501F0ABFB14F844
:1042E000030CC00707BF48F20150C0F6000048F2B7
:1042F0000350C0F6000001F09DFBBBF1000F7FF4FE
:1043000051AF05E0FBF776FFBBF1000F7FF44AAF3A
:10431000099CFBF76BFF14F8041C01F07F010A29CC
:104320002CD1A4F10C07FBF765FFD4E906050821A1
:10433000009048F26D50C0F6000008223B460195FF
:1043400001F078FB14F8030CC00707BF48F20150D6
:10435000C0F6000048F20350C0F6000001F06AFB0E
:10436000BAF1000F7FF41EAF0EE000BF4FF0010A5C
:10437000002600244FF0000B5AE700BFFBF73AFF7E
:10438000BAF1000F7FF40EAF0A9CFBF72FFF14F871
:10439000041C01F07F010A292ED1A4F10C07FBF7C0
:1043A00029FFD4E906050821009048F26D50C0F6B7
:1043B000000008223B46019501F03CFB14F8030C79
:1043C000C00707BF48F20150C0F6000048F2035092
:1043D000C0F6000001F02EFB069800287FF4E2AE44
:1043E00010E000BF01210691002600244FF0000BD1
:1043F0004FF0000A1EE700BFFBF7FCFE06980028FE
:104400007FF4D0AE0B9CFBF7F1FE14F8041C01F016
:104410007F010A293ED1A4F10C07FBF7EBFED4E99A
:1044200006050821009048F26D50C0F600000822F1
:104430003B46019501F0FEFA14F8030CC00707BFD4
:1044400048F20150C0F6000048F20350C0F60000E8
:1044500001F0F0FA059800287FF4A4AE20E000BF38
:10446000012105910021002600244FF0000B4FF0A0
:10447000000A0691E0E600BF0121049100210691A7
:104480000021002600244FF0000B4FF0000A059198
:10449000D4E600BFFBF7AEFE059800287FF482AE9D
:1044A0000C9CFBF7A3FE14F8041C01F07F010A2901
:1044B00034D1A4F10C07FBF79DFED4E906050821D1
:1044C000009048F26D50C0F6000008223B4601956E
:1044D00001F0B0FA14F8030CC00707BF48F201500E
:1044E000C0F6000048F20350C0F6000001F0A2FA46
:1044F000049800287FF456AE16E000BF0121039116
:1045000000210691002105910021002600244FF092
:10451000000B4FF0000A049192E600BFFBF76AFE21
:10452000049800287FF43EAE0D9CFBF75FFE14F864
:10453000041C01F07F010A2924D1A4F10C07FBF728
:1045400059FED4E906050821009048F26D50C0F6E6
:10455000000008223B46019501F06CFA14F8030CA8
:10456000C00707BF48F20150C0F6000048F20350F0
:10457000C0F6000001F05EFA039800287FF412AE46
:1045800006E000BFFBF736FE039800287FF40AAE72
:104590000E9CFBF72BFE14F8041C01F07F010A2986
:1045A0003FF4E0ADFBF726FEFCE500BFFBF722FE83
:1045B00002F046FA014618A001F03CFA00200FB0C4
:1045C000BDE8F08F252D2A2E732020706572696F4B
:1045D00064696320202074696D656F7574202020E4
:1045E00020202020666C61670A00000074696D65F8
:1045F00072000000202D2D2D2D2D2D2D2D2D2D2047
:104600002D2D2D2D2D2D2D2D2D2D202D2D2D2D2DE7
:104610002D2D2D2D2D2D0A0063757272656E74205F
:104620007469636B3A3078253038780A00000000EE
:1046300096B0FDF779F90CAC201D2421FBF7E5FFBE
:1046400002200C900120109010200025119020468F
:104650000695CDE904551395FDF7F6FB20B1EFF370
:10466000108072B6FEE700BF0F20CDE9070507A84E
:104670000021CDE909550B95FDF7B6FA20B1EFF30E
:10468000108072B6FEE700BF022003900020059064
:1046900003A8FDF723FA28B1EFF3108072B600BF2C
:1046A000FEE700BFFEF7C0FCFEF766FCFEF7FEFC6F
:1046B000FEF71EFDFEF73AFDFEF756FDFEF788FCFD
:1046C00040F2703040F2A001C2F20000C2F20001DC
:1046D0000122FEF7FFFA0320009048F2333043F244
:1046E00025410A25C0F60000C0F6000100224FF463
:1046F0008063019501F060FF30B102F0F1F848F2FB
:104700001530C0F6000003E048F2FB20C0F60000C0
:1047100048F23331C0F6000101F08CF90A2002F0B2
:1047200071F8FBE7B0B548F2E05448F2D850C0F653
:104730000004C0F60000A04209D248F2D855C0F6E5
:10474000000500BF55F8040B8047A542FAD3BDE829
:10475000B040FFF76DBF00002DE9F04F81B08346F8
:104760000078A8B140F24010C2F20000056840F2A3
:104770004410C2F20000D0F80080454580F0A880C7
:1047800048F2BE594FF0000AC0F6000900264CE07E
:1047900048F29750C0F6000001F04CF940F240108A
:1047A00040F24419C2F20000C2F200090768D9F8C9
:1047B0000050AF421CD248F2BE5448F2B258C0F684
:1047C0000004C0F6000802E00C37AF4210D23E6889
:1047D000214630460622FBF7A3FE0028F4D17A6872
:1047E000B11D404601F026F9D9F80050ECE700BFB2
:1047F00048F24640C0F6000001B0BDE8F04F01F0BD
:1048000019B900BF481C801B5045B8BF824632A072
:10481000394601F00FF940F24410C2F20000D0F81E
:10482000008000BF0C35454548D22F6849463846C0
:104830000622FBF775FE0028F4D158460637FBF731
:1048400050FE024658463946FBF76AFE0028E9D179
:10485000BAF1000F04D03178304651B9D3E700BF28
:104860003846FBF73EFE82463E4631783046002908
:10487000C9D000203A5CDAB1914219D131184B7895
:10488000002BBFD03A185478002CBBD0A342B9D12A
:104890008B787BB194786CB1A3420BD1CB785BB1B0
:1048A000D2784AB1934207D1097904300029E1D185
:1048B0003044A8E7881CA6E7C81CA4E746B15846C0
:1048C0003146524601B0BDE8F04F01F01FBD00BFB8
:1048D00001B0BDE8F08F00BF25730A002DE9F04F4D
:1048E0008BB069B30D464A420023834607E000BF00
:1048F00004330BF1040BD118A5F1040520D0C15CE1
:10490000202901D0092926D1D618711C18D2C71820
:104910007978202901D0092916D1B11C10D0B97895
:10492000202901D0092913D1F11C09D0F9782029B7
:10493000DED00929DCD0033D07F1030B0BE000BFFB
:1049400000200BB0BDE8F08F0BF1010B013D02E040
:104950000BF1020B023D68426A1E4FF00009C9B21A
:10496000092933D0202931D04D4521D00BEB090145
:104970004B78092B22D0202B20D04A4518D08B7899
:10498000092B21D0202B1FD000EB09039F1C0FD037
:10499000CF78092F00F04281202F00F03F810333B0
:1049A00006D0097909F10409C9B20929DAD10DE063
:1049B000A946B9F1000F0DD136E100BF09F1010997
:1049C000B9F1000F06D12FE109F10209B9F1000F89
:1049D00000F02A8140F24010C2F20000066840F266
:1049E0004410C2F200000468A64280F01D8148F223
:1049F000BE5809F1060AC0F6000803E00C36A642CC
:104A000080F012813768414638460622FBF788FD60
:104A10000028F3D1B81D59464A46FBF781FD00280E
:104A2000ECD117F80A000028E8D1B06800280090FF
:104A300000F0FA804FF0000C4FF0000800275A46B3
:104A4000CDE909CCCDE907CCCDE905CCCDE903CC46
:104A50002946CDF80880AF4288BF39467B1A03F15A
:104A60000108002096460197165C202E01D0092EE1
:104A700046D113EB000A2FD002EB000999F8016030
:104A800002F800C0202E01D0092E3BD118EB000CFB
:104A900026D099F802604FF0000C202E89F801C052
:104AA00001D0092E32D11AF1020421D099F8036005
:104AB00089F802C0202E01D0092E2BD11AF103044F
:104AC0001AD089F803C00EF1040E04370430165CC6
:104AD000202ECCD1CDE700BF02EB000E1FE000BFBF
:104AE000DDF8088009F1010E4FF0000C19E000BF5D
:104AF00009F1020E13E000BF0EF1030E0FE000BF3C
:104B000039460CE00EF1010E791C08E00EF1020EA0
:104B1000B91C04E0019909F1030E0844C11CDDF839
:104B20000880B8F1080F80F0B180A94280F0C280FF
:104B3000222E21D10EF1010203A840F828209EF870
:104B40000170481C04E000BF12F8017F01460130EB
:104B5000A8424FF0000338BF0123222F44D0A842BF
:104B600042D25C2FF0D1134613F8017F222F04BFED
:104B70001A46881CE8E700BF03A840F828E028464A
:104B8000A94288BF08460A1A08F10108541C0020EF
:104B90001EF80070092F22D0202F20D0171800F007
:104BA0008C800EEB00067378092B25D0202B23D0A8
:104BB000231800F08280B378092B21D0202B1FD03E
:104BC000BB1C00F07A80F378092B1DD0202B1BD062
:104BD000FB1C72D004301EF80070092FDCD10EEBE4
:104BE00000020F1813E000BF002B08F1010864D089
:104BF00002F801CB8F1C0CE00844721C471C06E035
:104C00000844B21C871C02E00844F21CC71CAF42D7
:104C100053D2AF42FFF41CAF4FE000BF09F10309CC
:104C2000B9F1000F7FF4D6AE00201BF8001041F060
:104C30002001202917D00BEB00014A7842F0200216
:104C4000202A13D08A7842F02002202A10D0CA7875
:104C500042F02002202A0DD004301BF8001041F051
:104C600020012029E7D1584405E000BF481C02E09C
:104C7000881C00E0C81C002101701CA0594600F0EF
:104C8000D9FE4FF0FF300BB0BDE8F08F0EA000F062
:104C9000D1FE03A8041F14A5464654F8041F284655
:104CA00000F0C8FE013EF8D148F24640C0F60000D0
:104CB00000F0C0FEB8F1000FB6D0009A03A940463C
:104CC00090470BB0BDE8F08F546F6F206D616E7927
:104CD00020617267732021205765206F6E6C7920E8
:104CE0005573653A0A0000002573200025733A20A9
:104CF000636F6D6D616E64206E6F7420666F756E8C
:104D0000642E0A002DE9F04381B048F29750C0F6B6
:104D1000000000F08FFE40F2401040F24419C2F251
:104D20000000C2F200090768D9F80050AF421DD256
:104D300048F2BE5448F2B258C0F60004C0F600086B
:104D400003E000BF0C37AF4210D23E682146304628
:104D50000622FBF7E5FB0028F4D17A68B11D404636
:104D600000F068FED9F80050ECE700BF48F246407A
:104D7000C0F6000000F05EFE002001B0BDE8F08348
:104D8000012070472DE9F04F8AB0059115990FF277
:104D9000D4464F060FF2E04858BFB046CE06DDE9D4
:104DA000134948BF21F00101CE074FF0300A08BF78
:104DB0004FF0200A8E070DD4002701970027012508
:104DC0000097002A00F09A80CDE90251CDF810A09A
:104DD00013E000BFB2F1FF3F06DD4E0700F1868011
:104DE0000E07E9D5202782E00127019700270297C7
:104DF0002D27CDE9031A524200974CF6CD494FF0CA
:104E0000000BCCF6CC490DF1180A00BFA2FB0956E5
:104E10001409F50802F00F0705EB850C25460A2B4F
:104E200004BFF508A2EB4C0718F80770002D0AF82C
:104E30000B7049D0A5FB097C04F00F07140ACE467D
:104E40004FEADC06A14606EB86060A2B04BF4FEAB2
:104E5000DC09A5EB460718F807500AEB0B0CB9F173
:104E6000000F59468CF8015032D0A9FB0E5604F0C1
:104E70000F05140B5146F708A24607EB87070A2BCC
:104E800004BF4FEAD60AA9EB470518F80550BAF156
:104E9000000F8CF802501FD0AAFB0E5604F00F042E
:104EA000120CF50805EB85050A2B04BFF208AAEBE6
:104EB000450418F80440F1460BF1040B002A8A4619
:104EC0008CF80340A2D109E00BF1010B06E000BF12
:104ED0000BF1020B02E000BF0BF1030BDDF810A099
:104EE000DDE90251DDE913490DE000BF2B270097F2
:104EF000002501270197002A7FF466AF30228DF844
:104F000018204FF0010BDDF814E0CB454B46C8BF2D
:104F10005B4611F0110FA4EB03025FD006462DB9DA
:104F200076453CBF00983070013A0136C80631D44E
:104F3000551EC0F28D8012F0030700F09580764573
:104F400038BF86F800A0012F06F1010040F09680DE
:104F5000023A0646032DC0F08B80101D764506F1FF
:104F6000010238BF86F800A0724538BF82F800A061
:104F7000B21C724538BF82F800A0F21C7245A0F145
:104F8000040038BF82F800A0032806F10406E5DC1F
:104F90004FF0FF323046CB455EDAA3EB0B076FEAEA
:104FA0000B0617F0030703EB060C57D070453CBF08
:104FB000302404705D1E012F00F1010409D07445F6
:104FC000A3F102053CBF30262670022F00F1020437
:104FD0006CD12046BCF1030F73D28BE00027002A6E
:104FE000C8BF0127019E3740D71B7A1E96DB17F0FA
:104FF000030C51D070453CBF20240470BCF1010F5C
:1050000000F1010640F00481023F3046032A46D3F6
:105010003A1D2026704500F1010738BF067077451C
:1050200038BF3E70871C774538BF3E70C71C774538
:10503000A2F1040238BF3E70032A00F10400E9DC4B
:105040004FF0FF320646002D3FF46AAF6EE700BF17
:1050500030462A46CB45A0DB04464BE01D46BCF15A
:10506000030F2ED246E000BF2A46032DBFF475AFD2
:105070004FF0FF32CB45FFF690AFEDE7704538BFFC
:1050800080F800A0022F06F1020040F0D180033A20
:105090000646032DECD360E71746032AB8D24FF03B
:1050A000FF32002D3FF43CAF40E700BF03307445B2
:1050B000A3F103053CBF302323700446BCF1030F6A
:1050C00018D33023044600BF744504F1010038BFF3
:1050D0002370704538BF0370A01C704538BF037043
:1050E000E01C7045A5F1040538BF0370AB4504F121
:1050F0000404E9DBB9F1000F35D006A8023807E057
:10510000ABF1040B0BF10403042B04F104042AD9C2
:10511000744503D200EB0B035B782370BBF1020FE5
:1051200004F101031EDB73453CBF10F80B701F70C8
:10513000BBF1030F04F1020314D3734504D200EB57
:105140000B0717F8017C1F70BBF1040F04F1030378
:1051500008D37345D4D200EB0B0717F8027C1F70FD
:10516000CEE700BF1C46012A12DB12F00307A2F1B2
:10517000010311D074453CBF20202070012F04F1A1
:1051800001000DD11A460446032B3ED322E000BF96
:1051900020460AB0BDE8F08F032B36D31AE000BFDB
:1051A0007045A2F102063CBF20250570022F04F1D4
:1051B000020005D132460446032B26D30AE000BF85
:1051C00003347045A2F103023CBF2027077020463C
:1051D000032B1AD3013A2023204600BF704500F16B
:1051E000010738BF0370774538BF3B70871C774590
:1051F00038BF3B70C71C7745A2F1040238BF3B7033
:1052000012F1020F00F10400E8D30AB0BDE8F08FFC
:1052100076453CBF20243470BCF1020F00F1020639
:1052200012D1033F3046032AFFF439AFF0E600BF46
:105230000336704538BF80F800A0043A3046032D8D
:10524000BFF48BAE14E700BF764503D22C46202571
:10525000357025460330043F0646032ABFF4D8AE16
:105260001DE700BF303132333435363738396162AB
:105270006364656600000000303132333435363700
:10528000383941424344454600000000B0B501FBB7
:1052900000F4204600F0E8FB054620B12846002136
:1052A000224600F039FD2846B0BD0000B0B548F2F6
:1052B000D85448F2D050C0F60004C0F60000A04216
:1052C00028BFB0BD48F2D055C0F6000555F8040B14
:1052D0008047A542FAD3B0BD80B5FAF787FF40F208
:1052E0002011C2F200014A8801324A80BDE88040A4
:1052F000FAF780BFB0B5FAF779FF40F22015C2F295
:10530000000569880446481E01B20029688005DD51
:105310002046BDE8B040FAF76DBF00BF00206880AE
:105320002046FAF767FF6868002808BFB0BDFAF7A3
:105330005DFF698804460029EAD1A868FEF74AF8AB
:10534000421E44F20810C2F2000050F832106868A1
:10535000A1F114039842DBD02A7044F280026B6002
:10536000C2F2000212781C3001F1080132B1FAF7E2
:1053700044FF2046BDE8B040FAF73CBFFAF73DFFD6
:105380002046BDE8B040FAF735BF00002DE9F041F6
:10539000002857D040F2E807C2F2000704467868B8
:1053A000A0424FD8B868A04298BFBDE8F08107F18D
:1053B000180840464FF0FF31A4F10C0600F0AEFE95
:1053C00034F80A0C18B13088B0F5F55F0AD025A082
:1053D00000F030FB34F80A2C34F80C3C28A031469D
:1053E00000F028FB4FF4F55044F80C0CD7F80CC033
:1053F000B44584BFFE60B44654F8082C78683D6913
:105400001318F11A294439610FD0598869B9B9685C
:105410008B420AD09C4504BFFE60B4465A6844F8EB
:10542000082C5968331A01448B6054F8043CC518A1
:10543000B54201D0698839B14046BDE8F04100F07D
:1054400043BE00BFBDE8F081B44508BFFD606A609F
:1054500054F8081C084483604046BDE8F04100F061
:1054600033BE00BF746F2066726565206120626183
:1054700064206461746120626C6F636B3A0A00009F
:105480006D656D3A203078253038782C207573653D
:105490006420666C61673A2025642C206D61676921
:1054A0006320636F64653A203078253034780A00D1
:1054B00040F27C40C2F200007047000040F27C40A5
:1054C000C2F2000000F570507047000010B5FCF704
:1054D0002BFAFDF775FEFDF7AFFEFCF787FC44F6EF
:1054E000D351C1F26201A0FB01018809FCF786FEDD
:1054F000FFF7DCFEFFF7DCFF0446FFF7DFFF0146A6
:105500002046BDE8104000F045BF000080B540F2E5
:105510005810C2F2000000680168890606D40A200B
:1055200001F070F9FF20C0B280BD00BF4068C0B27A
:1055300080BD0000F0B581B004460D208DF8030059
:1055400040F25810C2F20000002180F840102046BE
:1055500000F0BEFEE0B140F258160546C2F2000669
:105560000DF103070AE000BF304621460122012366
:10557000FDF74CFC013D04F1010409D020780A2814
:10558000F2D13046394601220123FDF73FFCEBE71B
:1055900001B0F0BD10B540F27841C2F200010968D7
:1055A000044621B120468847002808BF10BD216C61
:1055B00048F23B40C0F6000000F03CFA616A48F255
:1055C000FA30C0F6000000F035FAA16A48F2074050
:1055D000C0F6000000F02EFAE16A48F21440C0F66E
:1055E000000000F027FA216B48F22140C0F60000CD
:1055F00000F020FA616848F22E40C0F6000000F08A
:1056000019FAA168C4A000F015FAE168C6A000F07C
:1056100011FA2169C8A000F00DFA6169CAA000F072
:1056200009FAA169CCA000F005FAE169CEA000F06A
:1056300001FA216AD0A000F0FDF9616BD2A000F060
:10564000F9F9A16BD4A000F0F5F9E16BD6A000F058
:10565000F1F92078400707D448F25430C0F6000032
:1056600000F0E8F90BE000BF01F0F8F8014648F25D
:105670006E30C0F6000000F0DDF9FEF707FC4EF6D4
:105680002954CEF20004D4F80300800705D548F26F
:10569000D830C0F6000000F0CDF9D4F80300400087
:1056A00040F1F880207830B348F2AC30C0F600000A
:1056B00000F0C0F9217848F2BF40C0F6000000F0C9
:1056C000B9F92078C00745D1207880074BD42078DD
:1056D000400751D42078000757D42078C0065DD405
:1056E00094F90000B0F1FF3F60DD48F24640C0F69B
:1056F000000000F09FF914F8010C002800F09580DC
:1057000048F28B30C0F6000000F094F914F8011C48
:1057100048F2D540C0F6000000F08CF914F8010CF6
:10572000C00751D114F8010C800757D414F8010CAC
:1057300000075DD414F8010CC00663D414F9010C01
:10574000B0F1FF3F69DD48F24640C0F6000000F0CE
:1057500071F96AE048F2AA40C0F6000000F06AF968
:1057600020788007B3D548F29F40C0F6000000F0D3
:1057700061F920784007ADD548F29D40C0F60000A1
:1057800000F058F920780007A7D548F29340C0F6FA
:10579000000000F04FF92078C006A1D586A000F0E7
:1057A00049F994F90000B0F1FF3F9EDCD4F80F10E6
:1057B00048F2B830C0F6000000F03CF914F8010CD3
:1057C00000289DD131E000BF48F26E40C0F60000D5
:1057D00000F030F914F8010C8007A7D548F26440B6
:1057E000C0F6000000F026F914F8010C0007A1D55E
:1057F00048F29240C0F6000000F01CF914F8010CC9
:10580000C0069BD548F28940C0F6000000F012F9AE
:1058100014F9010CB0F1FF3F95DCD4F80B1048F2FD
:10582000C830C0F6000000F005F9B4F8010088B3F4
:1058300048F29E30C0F6000000F0FCF8B4F8011009
:1058400048F2EB40C0F6000000F0F4F8B4F80100B4
:10585000C0072DD1B4F80100800733D4B4F801009B
:10586000400739D4B4F8010000073FD4B4F8010070
:10587000C00545D4B4F80100800505D548F278404C
:10588000C0F6000000F0D6F848F24640C0F600002E
:1058900000F0D0F8D4F80300B0F1FF3F06DC48F286
:1058A000ED30C0F6000000F0C5F800BFFEE700BF15
:1058B00048F2B340C0F6000000F0BCF8B4F80100B4
:1058C0008007CBD548F25A40C0F6000000F0B2F88D
:1058D000B4F801004007C5D548F24840C0F60000C2
:1058E00000F0A8F8B4F801000007BFD548F28340E3
:1058F000C0F6000000F09EF8B4F80100C005B9D56C
:1059000048F24F40C0F6000000F094F8B4F80100EF
:105910008005B3D4B8E700BF7230353A203078251F
:105920003038780A000000007230363A203078258E
:105930003038780A000000007230373A203078257D
:105940003038780A000000007230383A203078256C
:105950003038780A000000007230393A203078255B
:105960003038780A000000007231303A2030782553
:105970003038780A000000007231313A2030782542
:105980003038780A000000007231323A2030782531
:105990003038780A00000000206C723A20307825F8
:1059A0003038780A000000002070633A20307825F3
:1059B0003038780A0000000053544B455252200002
:1059C00004324BF6EF6C22F00702CDF6AD6C42F8D4
:1059D00040CDC2E901CCC2E903CCC2E905CCC2E9A1
:1059E00007C100214FF0807CC2E90D301046C2E9AA
:1059F0000911C2E90B11C2F83CC0704780B5FAF733
:105A0000F5FB44F28001C2F200010A7801320A700B
:105A1000BDE88040FAF7EEBB80B5FAF7E7FB44F249
:105A20008001C2F200010A78013A0A70BDE88040A4
:105A3000FAF7E0BB83B010B581B044F28804844625
:105A400003A8C2F200040EC003AB20467F216246C9
:105A5000009301F0A9F92046FFF76CFD01B0BDE805
:105A6000104003B0704700002DE9F04F81B00028CE
:105A700000F0838040F2E809C2F200090330D9F84F
:105A8000001020F00308884577D809F1180B584614
:105A90004FF0FF31B8F10C0F98BF4FF00C0800F039
:105AA0003DFBD9F80CE0D9E900CAAEEB0A02ACEB39
:105AB0000807BA425ED20AEB02052B4633F8020F02
:105AC0002E4656F8044F20B902F10C00211A414528
:105AD00058D2BC424ED20AEB04052B4633F8020FD3
