:020000040800F2
:10000000504F0020E1010008E53C0008C50200084F
:10001000E13C0008B50D0008E548000800000000BC
:10002000000000000000000000000000F3010008D4
:100030003D150008000000004F020008B54600080A
:10004000FB010008FB010008FB010008FB010008A0
:10005000FB010008FB010008FB010008FB01000890
:10006000FB010008FB010008FB010008FB01000880
:10007000FB010008FB010008FB010008FB01000870
:10008000FB010008FB010008FB010008FB01000860
:10009000FB010008FB010008FB010008FB01000850
:1000A000FB010008C1470008FB010008FB01000834
:1000B000FB010008FB010008FB010008FB01000830
:1000C000FB010008FB010008FB010008FB01000820
:1000D000FB010008FB010008D9480008FB010008EB
:1000E000FB010008FB010008FB01000800F002F81A
:1000F00000F067F80AA090E8000C82448344AAF15B
:100100000107DA4501D100F05CF8AFF2090EBAE858
:100110000F0013F0010F18BFFB1A43F0010318473B
:1001200030AA000050AA00000A444FF0000C10F85A
:10013000013B13F0070408BF10F8014B1D1108BF65
:1001400010F8015B641E05D010F8016B641E01F805
:10015000016BF9D113F0080F1EBF10F8014BAD1C55
:100160000C1B09D16D1E58BF01F801CBFAD505E073
:1001700014F8016B01F8016B6D1EF9D59142D6D3CD
:10018000704700000023002400250026103A28BFF5
:1001900078C1FBD8520728BF30C148BF0B607047F9
:1001A000662909F0CF84002070471FB500F062FC7B
:1001B00004000020002109F0D7FAE0601FBD10B54F
:1001C00010BD00F057FD1146FFF7EFFF00F0C8FD2E
:1001D00000F075FD03B4FFF7F2FF03BC00F0B8FDBB
:1001E0000948804709480047FEE7FEE7FEE7FEE7CB
:1001F000FEE7FEE7FEE7FEE7FEE7FEE70448054907
:10020000054A064B70470000BD470008ED00000896
:1002100050490020504F0020504B0020504B0020F0
:10022000EFF3108072B6704780F310887047324A3F
:100230001368012B04D04FF0010313602F4A1060A4
:100240002F4A11602F484FF0805101607047EFF343
:10025000108272B62848016891B14FF00001016028
:100260002648016829B1EFF3098121E9F00F006800
:100270000160234909680968B1E8F00F81F3098832
:1002800082F310884EF0040E70471D4908601B4928
:100290004FF00000086018494FF0010008601A484C
:1002A0001A49D0F8002041EA0201016015484FF0D8
:1002B0008051016016480068006880F3088861B6C4
:1002C00062B670471EF0040F0CBFEFF30880EFF327
:1002D000098020E9F00F40F804ED1EF0040F0CBF78
:1002E00080F3088880F3098800B506F011FE5DF8F8
:1002F00004EB4EF0040E704744480020B84500203F
:10030000C045002004ED00E020ED00E00000FFFF0C
:1003100008ED00E00FB41CB5074B06AA7B44694604
:100320000090059800F08DFB0020694600F09CFBD2
:100330001CBC5DF814FB0000490700002DE9F047E4
:100340004FF0000A89460446C0F820A02046E16824
:100350008847002876D0252806D0D4E90121904787
:10036000206A401C2062F1E7E168204600258847AA
:10037000C4F81CA006460027C4F818A02A2E09D0ED
:10038000304609F0E9F938B304EB8708303EC8F885
:10039000186019E059F8041B204604EB87029161AC
:1003A000E1688847012F064618D1E069002820DA65
:1003B00025F020051DE0D8F8180000EB800006EBC2
:1003C00040003038C8F818002046E16888470646E3
:1003D00009F0C2F90028EED1012F0AD02E2E08D143
:1003E0002046E16888477F1C0646022F45F020051D
:1003F000C4DBA069002803DA404245F00105A06192
:10040000E80701D025F01005B6B1A6F14100192882
:1004100002D8203645F400654A463146204625601C
:100420004D46FFF7BDFE58B1012806D0ED1D25F061
:10043000070000F1080989E704E005F1040985E7F0
:1004400030468AE7206ABDE8F08710B5431C02E019
:1004500010F8011B71B18107FAD14FF0013202C8C7
:100460008C1A8C4314EAC211F9D0C01A0A0603D0C0
:10047000C01E10BDC01A10BD0A0401D0801E10BDE0
:100480000902FCD0401E10BD40EA010370B59B0775
:100490002ED14FF00136042A2AD308C810C99D1B5B
:1004A0009D43121F15EAC61517D0D8B2E1B2401A03
:1004B00050EA056110D198B2A1B2401A50EA054144
:1004C0000AD123F07F4024F07F41401A50EA0521F1
:1004D00002D1180EA0EB146070BDA342DBD018BA95
:1004E00021BA884201D9012070BD4FF0FF3070BDA4
:1004F0000AB9002070BD10F8013B11F8014B63B13F
:10050000A3420AD1521E08D010F8013B11F8014B4A
:100510001BB1A34201D1521EEDD1181B70BD02F0D8
:10052000FF0343EA032242EA024200F002B84FF01E
:1005300000020429C0F0128010F0030C00F01B80B0
:10054000CCF1040CBCF1020F18BF00F8012BA8BFBE
:1005500020F8022BA1EB0C0100F00DB85FEAC17C82
:1005600024BF00F8012B00F8012B48BF00F8012B35
:1005700070474FF0000200B5134694469646203966
:1005800022BFA0E80C50A0E80C50B1F12001BFF44C
:10059000F7AF090728BFA0E80C5048BF0CC05DF8B2
:1005A00004EB890028BF40F8042B08BF704748BF00
:1005B00020F8022B11F0804F18BF00F8012B704774
:1005C00010B5044610F0030F08BF11F0030F40F000
:1005D00015804FF0013E121FC0F20E8051F8043B0F
:1005E000A3EB0E0C2CEA030C1CEACE1C08BF40F84F
:1005F000043BF0D0A1F1040102F10402521E08DB19
:1006000011F8013B00F8013B002BF7D11146FFF731
:100610008EFF204610BD7047704770472DE9FF4F91
:100620000C461E464FF0FF378BB0D2E90001DDF8D3
:1006300060800A908A46C1F30A5505B93D460021FB
:1006400008464FF00000BAF1000F00F4400005DA50
:1006500000EB80004FF4400101EA50004FEA90594E
:10066000B9F1010F00DDB9460A9850EA4A000ED0F0
:1006700044F61050A5F2FF3545432F14B8F1000F92
:100680001ED07542291E1EDDC9F100021CE0B8F122
:10069000010F4FF0000001D0302103E0F24305E0EC
:1006A0002154401CB042FBDB304600220021215483
:1006B0000B99C1F80880C1E900200FB0BDE8F08FA8
:1006C000BD1B6D1CDEE74A4600DA694206A800F051
:1006D0005BFA06AB93E8070003AB83E807005046DC
:1006E0000A9908F05CFC8DE80700A0F500501F385F
:1006F00000900398002D0ADD42F21F014A4608448B
:10070000002303A90390684608F0C6FE09E0A0F59F
:1007100000504A461F38002303A90390684608F09A
:10072000D0FE8DE807000004000C03D04FF0FF302E
:10073000410800E01046B8F1000F03D000220092FB
:1007400015461EE0751E05D400F098F9303262554A
:100750006D1EF9D5B3460122084302D000227F1C4A
:1007600004E02078302801D100227F1E002A09975A
:1007700084D01DE0112D07DA00F080F93032625587
:100780006D1C50EA0102F5D1084302D00098C8B1AF
:100790000EE00021681E05E0235C625C6354225475
:1007A000401E491C8142F7DBAB46A81B401E099046
:1007B000002004F80B000B98099AC0F80880C0E9E3
:1007C000002B7AE711264FF0000857E72DE9F04F8C
:1007D00088460446D21D22F0070191B0D1E90001FC
:1007E000CDE90A0108F0A4FF02460B98C00F01D022
:1007F0002D2007E02068810701D52B2002E0202171
:1008000001EAC000032A099001D0072A05DB03464C
:100810004146204600F078F90BE12078800601D5AA
:10082000E06900E00620B8F1650F814606D0B8F116
:10083000660F18D0B8F1670F70D131E00020B9F120
:10084000110F009001DB112301E009F101030AAA55
:1008500001A90CA8FFF7E2FEDDE90C70002609F102
:100860000105834647E001204B4600904FF00047CA
:100870000AAA01A90CA8FFF7D1FEDDE90DB00C9979
:100880005D46002610B909F101000D18B9EB05000D
:1008900003D4C0F1FF3609F10105A5EB09002BE0F7
:1008A000B9F1010F01DA4FF001090020B9F1110F80
:1008B0000090484601DD112300E003460AAA01A981
:1008C0000CA8FFF7ABFEDDE90C704D460026834611
:1008D000207800070AD4AB4500DA5D4601A8012D57
:1008E00004DD411911F8011C302907D04F4502DA07
:1008F00017F1040F04DA012082460FE06D1EEEE7C7
:10090000002F02DCED1B3E4403E0781CA84200DD12
:100910007D1CB81B00F1010A4FF00047207800074A
:1009200003D4AA4501DB4FF0FF3A0021B7F1004F95
:100930000DF143088DF8431024D002202B23002F03
:1009400001DA7F422D230A21021EA0F1010000DC02
:100950005FB197FBF1FC97FBF1F201FB1C7C1746A2
:100960000CF1300C08F801CDEEE7A8F1010003709E
:100970002188090501D5452100E06521A0F1010884
:1009800000F8011C09980FA9A1EB0807FF1D00B191
:100990000120411901EBEA70A1693844081A401E90
:1009A000A0612078C00602D42046AFF300800998E9
:1009B00028B1D4E901219047206A401C20622078A8
:1009C000C00622D52046AFF300801EE0002E04DBD7
:1009D000B34502DD01A8805D00E03020D4E90121AB
:1009E0009047206A401C2062761CAAF101005FEA51
:1009F000000A0AD100F03EF8C0680168405CD4E902
:100A000001219047206A401C2062281EA5F10105A3
:100A1000DCDC07E0D4E9012118F8010B9047206ADB
:100A2000401C2062381EA7F10107F3DC2046AFF31B
:100A30000080032011B041E601694A1C0261087878
:100A4000704700B58FB0CDE901310021059105490E
:100A50007944CDE9031011466846FFF76FFC0FB0EB
:100A600000BD0000E5FFFFFF0A6802F8010B0A6005
:100A700070470000004870479805002030B5B0F17D
:100A80000A0271F100034FEA900E4EEA817EB0EB4C
:100A90000E0061EB91014FEA101E4EEA017E10EB51
:100AA0000E0041EB11114FEA102E4EEA016E10EBD1
:100AB0000E0041EB11214FEA104E4EEA014E10EBB1
:100AC0000E0041EB1141401841F100014FEAD00006
:100AD00040EA41704FEAD1014FEA810444EA907440
:100AE00010EB800544EB01046D1944EB0404521B28
:100AF000A3414FF0000348BF0A3200D530BD401C6F
:100B000041F1000130BD00002DE9F0411F460446CF
:100B100003260168072A01F4006004DB08B116A56A
:100B200005E016A503E008B115A500E015A521F024
:100B300010002060A069C01EA0610FB1401EA0611E
:100B40002046AFF300804FB1D4E9012138469047E9
:100B5000206A401C2062C01C206206E0206AFAE77E
:100B6000D4E9012115F8010B9047761EF8D22046F2
:100B7000AFF30080BDE8F0814E414E006E616E0023
:100B8000494E4600696E66002DE9F04781461646DB
:100B90008AB0354878440DC88DE80D003248784455
:100BA000801C03AC0DC884E80D0041F69B3008445E
:100BB000372190FBF1F290FBF1F5A5F1800501FBE7
:100BC00012041B3C02D56442012000E00020DFF843
:100BD00098A080460027FA44AAF1BE0A0EE0E0077A
:100BE0000AD03246684607EB470101230AEB810130
:100BF00008F067FC8DE8070064107F1C002CEED124
:100C0000194F7F44AE3F19E0E80715D007EB0410F9
:100C10000DF1180A90E80E008AE80E00C068F04254
:100C200001D1981908903246012306A903A808F0BB
:100C300048FC03AB83E807006D10641C002DE3D172
:100C40004FF0010332466946B8F1000F03A802D005
:100C500008F022FC01E008F034FCC9E90001C9F801
:100C600008200AB0BDE8F0872C90000000487047CB
:100C7000780500207546FFF7F9FFAE460500694686
:100C8000534620F00700854618B020B5FFF7B6FAA6
:100C9000BDE820404FF000064FF000074FF000087D
:100CA0004FF0000BAC46ACE8C009ACE8C009ACE8BA
:100CB000C009ACE8C00921F007018D46704710B5A6
:100CC0000446AFF300802046BDE81040FFF782BA2B
:100CD0004FF0013C50F8042B51F8043B9A4221D1CB
:100CE000A2EB0C03934313EACC1317D150F8042B57
:100CF00051F8043B9A4215D1A2EB0C03934313EA3B
:100D0000CC130BD150F8042B51F8043B9A4209D173
:100D1000A2EB0C03934313EACC13DBD04FF000009B
:100D2000704700BFD01A01BAB1FA81F101F0180181
:100D300022FA01F0CB40DBB2C0B2C01AC1F12001EF
:100D40002CFA01F3D11A914311EAC311E6D170478D
:100D500001491820ABBEFEE72600020070470000E4
:100D600080B582B0FFF75CFA06F06EF806F012FF6D
:100D700007F0D6F807F026F80A2000904AF28570AE
:100D800045F6D1614FF0140CC0F60000C0F600012A
:100D900000224FF48063CDF804C007F0CBF807F0D1
:100DA0005DFA07F0C5F807F07BF907F0A1F800201D
:100DB00002B080BDFEE700002DE9F04F85B053A0E2
:100DC00006F0F6FA40F60004C4F201044FF0000801
:100DD0004FF480594FF0010A4FF0020B01A9204651
:100DE000CDF80C80CDF80490CDF808A0CDF810B067
:100DF00000F0F4FD4AF6A815C0F60005284606F0F6
:100E0000D7FA4AF66A16C0F60006304606F0D0FA5F
:100E100020464FF48051002200F0F0FE40F2EE2018
:100E200003F0BAFE20464FF48051012200F0E6FEA6
:100E30004AF63E17C0F60007384606F0B9FA0F200A
:100E400003F0AAFE00F032F9CC2000F05FFA442053
:100E500000F05CFA40F2EE2003F09EFE01A920466D
:100E6000CDE9019ACDE9038B00F0B8FD284606F0E4
:100E70009FFA304606F09CFA20464FF4805100223B
:100E800000F0BCFE40F2EE2003F086FE20464FF458
:100E90008051012200F0B2FE384606F089FA0F2098
:100EA00003F07AFE00F002F9CC2000F02FFABE2009
:100EB00000F02CFA00F09CF9044600F099F944EA9D
:100EC000002000B2B0F1FF3F08DD08F094FC0023E1
:100ED000C3F6E473002208F0A5FC08E0404208F0E5
:100EE0008AFC0023C3F6B073002208F09BFC08F0D4
:100EF00051FC044608F094FD02460DA00B4606F096
:100F000057FA204605B0BDE8F08F00BF53746172F8
:100F100074696E672074656D706572617475726551
:100F200020636F6E76657273696F6E2E2E2E0A00C7
:100F300054656D7065726174757265207265616467
:100F40003A20252E3266C2B0430A00002DE9F04156
:100F500086B04FF0000841F21800CDF81080C4F2BE
:100F60000200016841F004010160006800F0040023
:100F7000019001982BA006F01BFA40F60004C4F281
:100F800001044FF480560127022502A9204602964B
:100F90000397059500F022FD20464FF48051012271
:100FA00000F02CFE25A006F003FA02A880E8C0019C
:100FB00002A92046059500F011FD4AF6A810C0F6DA
:100FC000000006F0F5F94AF66A10C0F6000006F0D7
:100FD000EFF920464FF48051002200F00FFE40F25E
:100FE000EE2003F0D9FD20464FF48051012200F09D
:100FF00005FE4AF63E10C0F6000006F0D9F90F20B3
:1010000003F0CAFD00F052F820A117A2002808BF83
:101010001146084606F0CCF900F048F806B0BDE8E5
:10102000F08100BF4750494F4120636C6F636B20D4
:10103000656E61626C65642E0A00000044533138AD
:10104000423230204750494F20696E697469616CA3
:10105000697A656420616E642073657420746F2002
:10106000686967682E0A00004453313842323020E4
:10107000696E697469616C697A656420737563630C
:1010800065737366756C6C792E0A000044533138B1
:1010900042323020696E697469616C697A61746981
:1010A0006F6E206661696C65642E0A00B0B584B00D
:1010B00040F6000400204FF48051C4F20104039074
:1010C000CDE90010012002906946204600F086FC20
:1010D0004AF68C10C0F6000006F06AF924A006F06B
:1010E00067F920464FF4805100F082FDC0B1002026
:1010F0000546012003F050FD20464FF4805100F0DA
:1011000077FD18B1632D05F10100F1D3622D07D9E8
:10111000012421A006F04CF9204604B0B0BD00BF68
:1011200020464FF4805100F063FDC8B9002000BF95
:101130000546012003F030FD20464FF4805100F0B9
:1011400057FD18B9EF2D05F10100F1D3EE2D07D9A8
:10115000012419A006F02CF9204604B0B0BD00BF50
:1011600000241CA006F024F9204604B0B0BD00BF46
:1011700057616974696E6720666F72204453313815
:101180004232302070726573656E63652070756CD5
:1011900073652E2E2E0A00004E6F207072657365E7
:1011A0006E63652070756C73652064657465637427
:1011B00065642E0A0000000050726573656E6365F9
:1011C0002070756C736520746F6F206C6F6E672E66
:1011D0000A00000050726573656E63652070756C5F
:1011E00073652072656365697665642E0A00000088
:1011F0002DE9F04F85B040F600042FA0C4F20104A1
:1012000006F0D6F800274FF480584FF0010901ADE1
:101210004FF0000B4FF0000A0220049020462946B0
:101220000397CDE9018900F0D9FB4AF6A810C0F672
:10123000000006F0BDF820464FF48051002200F077
:10124000DDFC22A006F0B4F80A2003F0A5FC20463D
:101250002946CDE90187CDE9039700F0BFFB4AF6A7
:101260008C10C0F6000006F0A3F80A2003F094FCEE
:1012700020464FF4805100F0BBFC0138B0FA80F0FA
:101280004609322003F088FC17A0314606F090F89A
:1012900006FA0BF00BF1010BBBF1080F4AEA000A4A
:1012A000BAD15FFA8AF414A0214606F081F82046EC
:1012B00005B0BDE8F08F00BF52656164696E6720BC
:1012C000627974652E2E2E0A0000000053656E644C
:1012D000696E672062697420726561642073696752
:1012E0006E616C2E2E2E0A00526561642062697454
:1012F0003A2025640A000000526561642062797416
:10130000653A203078253032580A00002DE9F04740
:1013100084B007464FFA80FA002002904FF48050C4
:101320000090012040F6000401900220C4F2010464
:1013300003906946204600F051FB4AF6A810C0F61B
:10134000000006F035F877A0394606F031F820465F
:101350004FF48051002207F0010500F04FFC002DF2
:101360004FF008004FF03A054FF0080908BF46203B
:101370004FF03A0808BF022503F00EFC20464FF458
:101380008051012200F03AFC284603F005FC17F0DA
:1013900002004FF008054FF03A0620464FF4805106
:1013A0004FF0000208BF462508BF022600F026FCC9
:1013B000284603F0F1FB20464FF48051012200F053
:1013C0001DFC304603F0E8FB17F004004FF0080561
:1013D0004FF03A0620464FF480514FF0000208BF0C
:1013E000462508BF022600F009FC284603F0D4FB7E
:1013F00020464FF48051012200F000FC304603F0FB
:10140000CBFB17F008004FF008054FF03A062046D6
:101410004FF480514FF0000208BF462508BF022656
:1014200000F0ECFB284603F0B7FB20464FF4805158
:10143000012200F0E3FB304603F0AEFB17F0100092
:101440004FF008054FF03A0620464FF480514FF018
:10145000000208BF462508BF022600F0CFFB284641
:1014600003F09AFB20464FF48051012200F0C6FBA6
:10147000304603F091FB17F020004FF008054FF0C5
:101480003A0620464FF480514FF0000208BF46252F
:1014900008BF022600F0B2FB284603F07DFB204681
:1014A0004FF48051012200F0A9FB304603F074FB99
:1014B00017F040004FF008054FF03A0620464FF471
:1014C00080514FF0000208BF462508BF022600F0F9
:1014D00095FB284603F060FB20464FF48051012223
:1014E00000F08CFB304603F057FB20464FF4805150
:1014F0000022BAF1FF3FC4BF4FF002084FF0460987
:1015000000F07CFB484603F047FB20464FF4805137
:10151000012200F073FB404603F03EFB04B0BDE83F
:10152000F08700BF57726974696E672062797465CD
:101530003A203078253032580A0000007047000009
:10154000EFF3108072B600BFFEE7000010B581B067
:101550000022009290F82420012A03D1022108469B
:1015600001B010BD4B680122062B80F8242015D84D
:10157000026803EB8303A3F1050E1F23D2F834C0E6
:1015800003FA0EF40B682CEA040C03FA0EF444EA96
:101590000C045463092B17D937E000BF02680C2BE9
:1015A00020D803EB8303A3F123041F23D2F830C018
:1015B00003FA04FE0B682CEA0E0C03FA04F444EA66
:1015C0000C041463092B20D8D2F810C003EB43039A
:1015D000072489689C402CEA040499402143116146
:1015E000002136E003EB8303A3F141041F23D2F86B
:1015F0002CC003FA04FE0B682CEA0E0C03FA04F468
:1016000044EA0C04D462092BDED903EB4304D2F87C
:101610000CC0A4F11E0E0724896804FA0EF42CEA0B
:10162000040401FA0EF1214323F00104102CD160CF
:101630000ED142F20841C4F20101A1F10804A24214
:101640000ED0816A41F020018162012101E000BFDA
:101650000021002280F82420084601B010BD00BF00
:101660000A68120230D40A68102B42F400020A60A1
:101670002CD140F26441C2F2000109684DF6836248
:10168000C4F21B32A1FB0212910C01EB8101490053
:1016900000910099E1B10099013900910099C9B117
:1016A0000099013900910099B1B100990139009177
:1016B000009999B1009901390091009900294FF0E2
:1016C0000001E8D1C5E700BF0021C2E70021C0E763
:1016D0000021BEE70021BCE70021BAE70021B8E7FE
:1016E000B0B5002800F0A8800446806A20B12168C7
:1016F0008868C0070BD114E00020E06284F8240061
:10170000204600F09BF821688868C00709D08868E7
:1017100020F00100886000F077FA21688A68D2071B
:1017200026D1A06AC0063AD4A06A41F202129043C0
:101730000230A062E069D4E9013240EA030C531E92
:10174000B3FA83F35D091346B2F5807F18BF2B020D
:10175000207D257B01284CEA450030D135B3A56AB0
:1017600045F02005A562E56A45F00105E56226E041
:10177000054602E08868C007D3D000F045FA401B58
:1017800021680328F6D38868C007F3D0A06A40F028
:101790001000A062E06A40F00100E062A06AA06A66
:1017A00040F01000A0620120B0BD00BFD4F818C006
:1017B0004EF60005CFF6FF7505EB4C352B434D6813
:1017C000B2F5807F25F4694543EA05034B608B68D9
:1017D0004FF2FD75CFF6E17503EA050343EA000316
:1017E0008B6001D0012A07D122690023CFF6F07364
:1017F00003EB025201E000BF0022CB6A23F4700326
:101800001A43CA62896840F6FE62CFF61F72114021
:10181000814207D10020E062A16A012262F3010146
:10182000A162B0BDA06A40F0100020F00200A062EA
:10183000E06A40F00100E0620120B0BD80B586B0F2
:10184000006842F60001C4F2010188424FF0000135
:10185000CDE90411CDE902111ED042F20041C4F2DB
:101860000101884239D141F21800C4F20200016836
:1018700041F400710160016801F400710191019966
:10188000016841F004010160006800F0040001906B
:101890000198012017E000BF41F21800C4F20200D5
:1018A000016841F480610160016801F48061019187
:1018B0000199016841F004010160006800F0040032
:1018C00001900198022002900320039040F600004E
:1018D000C4F2010002A900F081F806B080BD00004A
:1018E000014690F82100022816D10868D1E90FC3FB
:1018F000026822F00E020260026822F00102026019
:10190000012000FA03F2CCF8042081F82100002025
:10191000002281F8202070470420886301200022E3
:1019200081F820207047000080B590F8211002292E
:1019300024D10268116821F00E0111602F21136873
:10194000C4F202018A4240F20401C4F2020123F00F
:101950000103136016DD3023C4F202039A421DD046
:101960004423C4F202039A421CD05823C4F2020357
:101970009A421DD14FF4803322E000BF04218163DD
:10198000012080BD0823C4F202039A420ED01C231A
:10199000C4F202039A420BD1102311E04FF480737A
:1019A0000EE000BF4FF480530AE000BF012307E0C0
:1019B00001F1680C4FF08073624508BF4FF480134B
:1019C0000B60012180F82110426B002180F820106B
:1019D0000AB190470021084680BD00002DE9F04F74
:1019E00082B041F20042C4F201020E680423904228
:1019F00008BF0323002E009300F0F68040F2004C55
:101A00004FF6FF7E0022C4F2010C0124C1F2100E39
:101A10004FF0000A4FF0000947E000BF012502F037
:101A20000C040F27A7402BEA070705FA04F43C43F0
:101A300043F82640D1F804B040F20C455FEACB23CE
:101A4000DCF8083054BF23EA080343EA0803C4F271
:101A50000105CCF808302B685FEA8B2454BF23EAD9
:101A6000080343EA08032B605FEA8B34DCF8043098
:101A700054BF23EA080343EA08035FEACB34CCF8F7
:101A80000430DCF800304FF0010454BF23EA0803AF
:101A900043EA0803CCF800300E680AF1010A36FA6E
:101AA0000AF302F1040200F09F8004FA0AF816EA31
:101AB000080FF1D04B68734512DC122B56D8DFE8C3
:101AC00003F0350B45495555555555555555555503
:101AD0005555554D510000BFD1F80C9046E000BF60
:101AE0004FF6FF75C1F22105AB420FDC0025C1F2B4
:101AF0001105AB421AD00025C1F21205AB4215D038
:101B00000025C1F22105AB4210D02FE00025C1F223
:101B10002205AB420AD00025C1F23105AB4205D007
:101B20000025C1F23205AB4220D100BF8B684BB11A
:101B3000012B14BFC0F81480C0F810804FF00809C2
:101B400014E000BF4FF0040910E000BFCB6803F1C0
:101B500008090BE04FF0000908E000BFCB6803F173
:101B6000040903E0CB6803F10C0900BF13460546E6
:101B7000BAF1080F24BF203B04352E680F279F4081
:101B8000BE4309FA03F333432B60CB79DB067FF5C1
:101B900083AF41F21804C4F2020423684FEA9A06A4
:101BA00043F001032360236840F6000403F00103BF
:101BB0000193019BACF57E7353F826B0C4F2010487
:101BC000A0420FD040F60044C4F20104A0423FF40A
:101BD00025AF41F20004C4F20104009DA04208BFF9
:101BE00002251CE700251AE702B0BDE8F08F0000CF
:101BF0008068084018BF012070470000002A08BF15
:101C0000090401617047000044F64C10C2F2000064
:101C10000068704770B5B8B3044690F83D0028B925
:101C2000002084F83C00204600F05CF9242084F871
:101C30003D002068016821F001010160016841F464
:101C400000410160016821F40041016000F0F2FBF5
:101C500048F28041C0F21E0140F60013D4F804E0BF
:101C600088424FF00001C0F23D0348F2A16C4FF0F2
:101C7000000238BF01219842C0F2010C38BF012296
:101C8000E64538BF0A460AB1012070BD4DF68361B2
:101C9000C4F21B31A0FB01122168950C4B684FF474
:101CA000967623F03F0343EA9243754344F6D356B6
:101CB0004B60C1F262060B6AA5FB0656B50923F01C
:101CC0003F03E64538BF950C6A1C1A430A62CA698D
:101CD00048F2A0664CF6FF73C0F20106B64522EA50
:101CE00003020BD801384FEA4E03B0FBF3F001308A
:101CF0006FF31F30042898BF04201EE0A36801384A
:101D000063B119230EFB03F3B0FBF3F001306FF363
:101D10001F3078B100F5804008E000BF0EEB4E03A5
:101D2000B0FBF3F001306FF31F3028B100F5004035
:101D300003E000BF012000E001201043C8610868F3
:101D4000D4E9072320F0C0001043184308608868D6
:101D500048F2FF3204F10C0690434CCE1843104376
:101D6000A5698860C86820F0FF0030432843C86038
:101D7000086840F00100086000202021206484F8F9
:101D80003D10206384F83E0070BD00002DE9F04353
:101D900083B0994616460F460446FFF735FF94F880
:101DA0003D10202920D10546206800BF81698907A0
:101DB00016D5FFF729FF411B20681A29F6D3816940
:101DC0008907F3D500202021206384F83D1084F892
:101DD0003E00216C41F02001216484F83C0003E0C6
:101DE00094F83C10012903D1022003B0BDE8F08330
:101DF000012284F83C200368DDE90B180A9ADB070E
:101E000003D1036843F001030360036823F4006314
:101E10000360212084F83D00402084F83E0000202B
:101E2000206462626185608D394620850020CFF68E
:101E3000FF70E062204632464B46CDF800800195A7
:101E400001F0B8FB20B1012003B0BDE8F08300BF72
:101E5000208D98B9204641462A4601F00FFC88B3F0
:101E6000206C0428EFD12068016841F40071016002
:101E7000012003B0BDE8F0830004EBD020464146CA
:101E80002A4601F0B5FD0028EAD1616A22680846B9
:101E900010F8013B1361238D6062581E2085678D09
:101EA000013F678557697F07E6D50704E4D0487886
:101EB0001061881C6062981E2085618D01396185E2
:101EC000DAE700BF2068016841F40071016020205A
:101ED00084F83D00002084F83E0084F83C0003B004
:101EE000BDE8F08310B586B045F200410068C4F249
:101EF000000100228842049202D006B010BD00BF4B
:101F000041F21804C4F20204206840F00800206086
:101F1000206800F0080001900198C0200290122073
:101F200003900320059001F5384002A9FFF756FD04
:101F3000606840F400106060606800F40010019078
:101F4000019806B010BD000040F2000044F64C11AC
:101F5000C2F20000C2F2000100780A681044086072
:101F60007047000080B542F20000C4F20200016830
:101F700041F010010160032000F0BEF80F2000F0D6
:101F800005F800F05BF8002080BD0000B0B586B019
:101F900041F21801C4F202010A68044642F40062E8
:101FA0000A60096801A801F400610191019969467C
:101FB00000F018FA00F052FA4DF68361C4F21B31BA
:101FC000A0FB01014FF0FF3000EB914140F61C00F7
:101FD00042F60042C2F20000C4F2010240F2E733CE
:101FE0000025C0E90021C0E902530561856100F0C8
:101FF0003DFC054610B1284606B0B0BD40F61C00B9
:10200000C2F2000000F0B2FC05460028F3D119200E
:1020100000F036F80F2C0DD819202146002200259B
:1020200000F03EF840F20400C2F2000004602846CE
:1020300006B0B0BD0125284606B0B0BD82B041F261
:102040001800C4F202000168022241F0010101609F
:10205000016801F0010101910199416841F080514D
:102060004160406800F08050009000980420C4F265
:102070000100016862F31A61016002B0704700005C
:10208000002848BF704700F01F01012202FA01F149
:102090004EF200124009CEF2000242F820107047C2
:1020A00010B54EF60C5CCEF2000CDCF80030C3F339
:1020B000022E8EF00704042C28BF0424BEF1030373
:1020C0004FF0FF3E0EFA04F438BF0023A1439940BD
:1020D0000EFA03F39A43114300F00F02043A6244EC
:1020E00009010C3200F16043B0F1FF3FC8BF03F5B6
:1020F0006442117010BD00004EF60C51CEF200018A
:102100000A684FF6FF031A4060F30A2242F080602B
:1021100040F0FD70086070472DE9F04182B0044640
:10212000007841F21C06C007C4F202064AD03068AB
:1021300010F0805808D1306840F08050306030682E
:1021400000F080500190019847F20007C4F20007A8
:102150003868C00512D4386840F480703860FFF7E2
:1021600053FD05463868C00508D4FFF74DFD401BF8
:102170006428F7D9032002B0BDE8F081706810F43C
:10218000407012D0616801F4407188420DD07068CF
:1021900040F24042C4F24222012320F44071136015
:1021A0000023C007136071602AD17068616820F451
:1021B00040700843B8F1000F706003D1306820F020
:1021C000805030602068810707D556F8181CA26837
:1021D00021F44041114346F8181CC00604D40020E5
:1021E00002B0BDE8F08100BF56F8180CE16820F499
:1021F0008000084346F8180C002002B0BDE8F081CA
:10220000FFF702FD054641F2883700BF706880077E
:10221000CBD4FFF7F9FC401BB8424FF00300F5D9CF
:10222000EBE700002DE9F04381B0002800F0858045
:1022300042F20008C4F202080446D8F800000D4635
:1022400000F0070088420CD2D8F8000020F0070008
:102250002843C8F80000D8F8000000F00700A842A2
:102260006BD1206841F204098107C4F2020917D535
:10227000410705D5D9F8001041F4E061C9F8001014
:10228000010705D5D9F8001041F46051C9F80010D4
:10229000D9F80010A26821F0F0011143C9F800102C
:1022A000C00741D1D8F8000000F00700A8420CD9BF
:1022B000D8F8000020F007002843C8F80000D8F83C
:1022C000000000F00700A84237D12068410707D579
:1022D000D9F80010E26821F4E0611143C9F8001058
:1022E000000708D5D9F80000216920F4605040EAC1
:1022F000C100C9F80000D9F8002002F00C0008283D
:1023000041F20020C0F27A0050D14AF20E53C2F3DB
:102310008341C0F60003595CD2033BD440F6001061
:10232000C0F23D00484341E0606802280AD001281D
:102330002AD159F8041C890308D4012001B0BDE852
:10234000F08300BF59F8041C8901F6D5D9F80010B4
:1023500021F003010843C9F80000FFF755FC0646C9
:1023600041F28837D9F80000616800F00C00B0EB4A
:10237000810F97D0FFF748FC801BB842F2D90320A9
:1023800001B0BDE8F08300BF59F8041C8907D4D51B
:10239000DCE700BFD9F800204AF20C43C2F3404208
:1023A000C0F600039A5C4843B0FBF2F0D9F8001085
:1023B00049F6DC32C1F30311C0F60002515C40F271
:1023C000644220FA01F140F20400C2F20000006809
:1023D000C2F200021160FFF7D9FD002001B0BDE894
:1023E000F08300000F22026041F20402C4F20202F4
:1023F000136803F003034360136803F0F003836082
:10240000136803F4E063C36012684FF4E06303EA07
:10241000D202026142F20000C4F20200006800F041
:10242000070008607047000040F26440C2F20000FC
:102430000068704740F2644041F20401C2F20000BB
:10244000C4F202010068096849F6EC32C1F30221C6
:10245000C0F60002515CC8407047000040F2644082
:1024600041F20401C2F20000C4F2020100680968EE
:1024700049F6EC32C1F3C221C0F60002515CC840FB
:10248000704700002DE9F04182B0002868D0044672
:10249000007841F20006C007C4F2020625D0706839
:1024A00000F00C0004281BD0706800F00C00082815
:1024B00002D17068C00313D46068002800F06881FE
:1024C000B0F5A02F00F07C81B0F5803F00F07C815A
:1024D000306820F480303060306820F4802076E16D
:1024E0003068800301D56068D0B32078800718D5A4
:1024F000706810F00C0F07D0706800F00C0008280E
:102500006ED17068C0036BD43068800702D5206933
:10251000012825D13068616920F0F80040EAC10047
:102520003060207800071FD42078400732D4E56956
:1025300095B1706800F00C00082840F08F80012DE4
:102540000ED07068216A00F480328A4208D1616A34
:1025500000F47010884203D1002002B0BDE8F08181
:10256000012002B0BDE8F081A069002862D00020FF
:10257000C4F242200121C0F88014FFF745FB054654
:10258000706A800700F18C80FFF73EFB401B022839
:10259000F6D92AE1F06910F0805808D1F06940F0CE
:1025A0008050F061F06900F080500090009847F290
:1025B0000007C4F200073868C00529D4386840F421
:1025C00080703860FFF720FB054600BF3868C00503
:1025D0001ED4FFF719FB401B6428F7D905E100BFA3
:1025E0002069002840F20000C4F2422000F08280FE
:1025F00001210160FFF708FB054600BF3068800736
:102600003FF588AFFFF700FB401B0228F6D9ECE04E
:10261000E068002800F08080052800F097800128FD
:1026200000F09880306A20F001003062306A20F0BB
:10263000040092E00020C4F242200021C0F880147F
:10264000FFF7E2FA054600BF706A80077FF56CAFBE
:10265000FFF7DAFA401B0228F6D9C6E00027C4F2D9
:10266000422700203866FFF7CFFA022D05460BD12E
:102670003068800140F1BE80FFF7C6FA401B022897
:102680004FF00300F4D968E7306880017FF564AF4C
:10269000FFF7BAFA401B02284FF00300F4D95CE7B9
:1026A00040F26440C2F20000006844F6D351C1F227
:1026B0006201A0FB0101480A019000BF00BF019820
:1026C000411E002801913FF42FAF00BF0198411E29
:1026D000002801913FF428AF00BF0198411E002857
:1026E00001913FF421AF00BF0198411E00280191E4
:1026F000E4D119E700210160FFF786FA054600BF23
:10270000306880077FF50DAFFFF77EFA401B022887
:102710004FF00300F4D920E7306A20F00100306266
:10272000306A20F004003062FFF76EFA054641F28D
:10273000883700BF306A800720D5FFF765FA401B55
:10274000B8424FF00300F5D907E700BF306A40F008
:1027500004003062306A40F001003062FFF754FA42
:10276000054641F2883700BF306A800706D4FFF77C
:102770004BFA401BB842F7D937E000BFB8F1000F61
:102780007FF4D5AEF06920F08050F061CFE600BF55
:10279000306820F480303060306820F48020306071
:1027A000FFF732FA054600BF306880037FF59DAE23
:1027B000FFF72AFA401B64284FF00300F4D9CCE657
:1027C000306840F480203060306840F48030306001
:1027D000FFF71AFA054600BF306880033FF585AE63
:1027E000FFF712FA401B6428F6D9032002B0BDE8B7
:1027F000F08100BF206AB0F5803F05D17168A26802
:1028000021F40031114371607168626A21F474111E
:1028100010430843706001203866FFF7F5F904465D
:10282000306880013FF598AEFFF7EEF9001B0228F3
:102830004FF00300F4D990E6411E0020B0EB116F79
:102840001CBF012070474EF21002CEF20002516010
:102850004EF62351CEF20001F0230B700721906059
:10286000116070477047000070470000002804BFE7
:102870000120704710B5044690F83D0028B90020AB
:1028800084F83C00204600F06FF8022084F83D00F8
:10289000206840F2FF730268C4F2000342F6004C65
:1028A0009842C4F2010C15DCB0F1804F1AD040F20E
:1028B0000041C4F20001884214D0984218DCB0F103
:1028C000804F1DD040F20041C4F20001884217D071
:1028D0001AE000BF604505D040F60001C4F20001D7
:1028E0008842EAD1A16822F070020A439842E6DDEC
:1028F000604505D040F60001C4F20001884203D1D2
:10290000216922F440720A43A36922F08001D4F8BD
:1029100004E0E268194360450160C262C0F828E043
:1029200002D16169CCF83010012141610269D207FE
:1029300003D0026922F001020261002084F84610EF
:1029400084F83E1084F83F1084F8401084F8411059
:1029500084F8421084F8431084F8441084F8451039
:1029600084F83D1010BD00007047000090F83D1045
:1029700001291CBF01207047022180F83D1000682A
:1029800040F2FF72C168C4F20002904241F00101BE
:10299000C16009DCB0F1804F12D040F20041C4F2B6
:1029A000000188420CD012E042F60041C4F201015D
:1029B000884205D040F60001C4F20001884206D1E9
:1029C000816801F00701062904BF002070470168F3
:1029D00041F00101016000207047000070470000D5
:1029E00070B504460068C5680669B10716D515F0CC
:1029F000020113D06FF0020101610121217780698A
:102A0000800703D02046FFF7E9FF05E0204600F0ED
:102A10008FF8204600F08EF800202077700719D537
:102A200015F0040016D020686FF004010161022146
:102A30002177806910F4407F04D02046FFF7CEFF55
:102A400006E000BF204600F073F8204600F072F860
:102A500000202077300717D515F0080014D0206823
:102A60006FF00801016104212177C069800703D05C
:102A70002046FFF7B3FF05E0204600F059F8204656
:102A800000F058F800202077F00619D515F0100056
:102A900016D020686FF01001016108212177C0690C
:102AA00010F4407F04D02046FFF798FF06E000BFF7
:102AB000204600F03DF8204600F03CF8002020774A
:102AC000F00718BF15F0010002D1300609D412E05A
:102AD00020686FF001010161204600F02DF83006FA
:102AE00009D515F0800006D020686FF080010161E3
:102AF0002046FFF7B7FE700609D515F0400006D056
:102B000020686FF040010161204600F01FF8B00618
:102B100058BF70BD15F0200008D021686FF020026A
:102B200020460A61BDE87040FFF79EBE70BD000000
:102B30007047000070470000006842F60041C4F290
:102B40000101884208BFFFF7FFB9704770470000D6
:102B50007047000070470000B0B582B004460068BE
:102B60000168C368426901F02F05202D03F020059C
:102B700006D12DB1204602B0BDE8B04001F02CBE18
:102B80005FEA017C1EBF02F0010E03F4907212EBAB
:102B90000E0255D1226B012A05D111F0100218BF87
:102BA00013F0100236D10A0622D513F080021FD08E
:102BB00094F84110212941D1A168B1F5805F03D17A
:102BC0002169002900F07282216A4A1C2262097878
:102BD0004160E18C01390A04E1842FD1C16821F000
:102BE0008001C160C16841F04001C16002B0B0BD68
:102BF000490623D513F0400120D0C16821F04001DF
:102C0000C1602021204684F8411002B0BDE8B040E8
:102C100000F0CEBC00210191016801914168019151
:102C200001994169490600F18F80A18DE28DE38D04
:102C3000002B1CBF891A5FEA01420CD102B0B0BD63
:102C4000CA0718BF13F4807240F038814A0700F1B8
:102C50003B8140E1206850E8030F226820F4907027
:102C600042E80303DBB1206850E8030F226820F438
:102C7000907042E8030393B1206850E8030F226884
:102C800020F4907042E803034BB1206850E8030F32
:102C9000226820F4907042E80303002BDAD1206808
:102CA00050E8050F226820F0010042E80503DBB17F
:102CB000206850E8050F226820F0010042E8050373
:102CC00093B1206850E8050F226820F0010042E827
:102CD00005034BB1206850E8050F226820F0010081
:102CE00042E80503002BDAD1202084F842000020BE
:102CF0002063206850E8030F226820F0100042E8AB
:102D00000303DBB1206850E8030F226820F01000B5
:102D100042E8030393B1206850E8030F226820F0D3
:102D2000100042E803034BB1206850E8030F22680B
:102D300020F0100042E80303002BDAD1022289B20E
:102D400020466263B4E000BFE16B0A68526893B248
:102D5000002B3FF473AFA58DAB42BFF46FAFE2859C
:102D60008969202900F09D8050E8030F216820F434
:102D7000807041E80302EAB1206850E8030F21683F
:102D800020F4807041E80302A2B1206850E8030FEC
:102D9000216820F4807041E803025AB1206850E8AD
:102DA000030F216820F4807041E8030212B120680B
:102DB000DAE700BF206850E8050F216820F0010025
:102DC00041E80502DAB1206850E8050F216820F0DB
:102DD000010041E8050292B1206850E8050F216822
:102DE00020F0010041E805024AB1206850E8050FD3
:102DF000216820F0010041E80502002ADAD12068AC
:102E000050E8050F216820F0400041E80502DAB1E2
:102E1000206850E8050F216820F0400041E80502D5
:102E200092B1206850E8050F216820F0400041E889
:102E300005024AB1206850E8050F216820F04000E3
:102E400041E80502002ADAD1202084F8420000205F
:102E50002063206850E8030F216820F0100041E84B
:102E60000302DAB1206850E8030F216820F0100057
:102E700041E8030292B1206850E8030F216820F076
:102E8000100041E803024AB1206850E8030F2168AE
:102E900020F0100041E80302002ADAD1E06BFEF7CF
:102EA0001FFD02206063A08DE18D401A81B2204693
:102EB00002B0BDE8B040FFF74BBE00BF626C42F00D
:102EC000010262644A0706D5BEF1000F03D0626CAE
:102ED00042F0020262648A0706D5BEF1000F03D0F9
:102EE000626C42F004026264BCF1000F06D555EA40
:102EF0000E0203D0626C42F008026264626C002A27
:102F00003FF49CAE11F0200118BF002D03D02046E5
:102F100001F062FC20684169626C01F0400102F03E
:102F20000802891800F0A28050E8030F216820F4FD
:102F3000907041E80302C2B3206850E8030F216893
:102F400020F4907041E803027AB3206850E8030F40
:102F5000216820F4907041E8030232B3206850E801
:102F6000030F216820F4907041E80302EAB1206861
:102F7000DAE700BF206850E8050F216820F0010063
:102F800041E80502DAB1206850E8050F216820F019
:102F9000010041E8050292B1206850E8050F216860
:102FA00020F0010041E805024AB1206850E8050F11
:102FB000216820F0010041E80502002ADAD1206BE7
:102FC000012824D1206850E8030F216820F0100068
:102FD00041E80302DAB1206850E8030F216820F0CD
:102FE000100041E8030292B1206850E8030F216805
:102FF00020F0100041E803024AB1206850E8030FB6
:10300000216820F0100041E80302002ADAD12020D4
:1030100084F84200002020632068416949063FD5BA
:1030200050E8050F216820F0400041E805022AB36E
:10303000206850E8050F216820F0400041E80502B3
:10304000E2B1206850E8050F216820F0400041E817
:1030500005029AB1206850E8050F216820F0400071
:1030600041E8050252B12068DAE700BF2046FFF7C9
:1030700071FD0020606402B0B0BD00BFE06B78B1AC
:1030800044F2CD71C0F600014163FEF74DFC00280B
:103090003FF4D4ADE06B416B02B0BDE8B0400847EF
:1030A000204602B0BDE8B040FFF754BD216A31F8B8
:1030B000022B6FF35F22426021628AE5002804BF81
:1030C0000120704710B5044690F8410028B900204F
:1030D00084F84000204600F061F8242084F8410084
:1030E0002068D4E90212C36823F40053C360036963
:1030F00023F440531A430261D4E904231143C26804
:10310000194341F20C639A431143C1604169A269BA
:1031100021F44071114343F60002C4F201029042CF
:10312000416103D0FFF786F902E000BFFFF796F98F
:103130006268192148439100B0FBF1F048F21F5139
:10314000C5F2EB11A0FB01235A096FF0630302FBE8
:103150000300322303EB0010A0FB0101F02303EA7C
:103160005113206803EB0212C1F343111144816033
:10317000016921F490410161416921F02A01416115
:10318000C16841F40051C16000202021606484F8CE
:10319000411084F84210606310BD000070B586B025
:1031A000006844F20041C4F20001002688420596FE
:1031B000CDE9036602963FD044F60001C4F2000157
:1031C000884271D043F60001C4F20101884240F008
:1031D0009D8041F21800C4F20200016840F600042C
:1031E00041F4804101600168C4F2010401F48041AE
:1031F00001910199016802AD41F00401016000688C
:10320000294600F00400019001984FF400700290EC
:1032100002200390032005902046FEF7DFFB4FF4C9
:10322000806002900020CDE9030020462946FEF789
:10323000D5FB06B070BD00BF41F21800C4F2020019
:10324000416840F6000441F4003141604168C4F235
:10325000010401F4003101910199016802AD41F0CE
:10326000040101600068294600F004000190019803
:103270000420029002200390032005902046FEF7D0
:10328000ADFB0820CDE90206204629460496FEF74C
:10329000A5FB262000210022FEF702FF2620FEF7D4
:1032A000EFFE06B070BD00BF41F21800C4F202008C
:1032B000416802AD41F480214160416801F4802100
:1032C00001910199016841F00801016000682946F7
:1032D00000F00800019001984FF4806002900220F5
:1032E00003900320059040F60000C4F2010000F5B1
:1032F00080642046FEF772FB4FF4006002900020CD
:10330000CDE9030020462946FEF768FB06B070BDF4
:1033100090F84230202B1CBF0220704700294FF04C
:10332000010318BF002A01D1184670470023036328
:10333000816222218285C285436480F8421001693E
:10334000006819B1C16841F48071C160416900230E
:1033500041F001014161C16841F02001C16018469E
:103360007047000040F6AC01C2F20001884218BF6D
:10337000704770B540F2E065C2F20005286844F677
:103380004814032804BF00202860C2F2000420680B
:10339000F92808DB44F64C00C2F20000FA21FDF7E0
:1033A000C6F80020206040F2D856C2F200063178FC
:1033B0000A2907D144F64C0122A0C2F2000103F011
:1033C000F7FF2068411C0DD02A68022A0ED0012A7E
:1033D00014D103281ADC32783044216080F824208C
:1033E00022E000BF002020601EE000BFB26A9042D1
:1033F00014DA3278F36A21601A5415E032782160C9
:1034000044F64C01C2F200010A540DE04AF2127077
:10341000C0F6000003F0CCFF06E000BF4AF22270C5
:10342000C0F6000003F0C4FF40F6AC0040F2D851F3
:10343000C2F20000C2F200010122BDE87040FFF7B5
:1034400067BF00BF257300002DE9F041044690F8E6
:10345000410020281CBF0220BDE8F0810F46002952
:103460004FF0010000F082801646002A08BFBDE838
:10347000F0814FF0000821201D46C4F8448084F8F4
:103480004100FEF7C1FBA684E684A1680646B1F5BB
:10349000805F05D12069002814BF3846B84607462A
:1034A000E08CC8B1681C19D0002D61D1216807E0FB
:1034B00017F8010B4860E08C0138E084E08C68B3B9
:1034C000086800064CD5002FF2D138F8020B00270F
:1034D0006FF35F20EEE700BF21681FE0216802E084
:1034E0000868000609D40868000606D408680006C3
:1034F0005CBF08685FEA0060F2D51FB117F8010BE6
:1035000005E000BF38F8020B00276FF35F2048602A
:10351000E08C0138E084E08C0028E4D108684006A3
:103520001CD4EDB1681C0FD10868400616D4086899
:10353000400613D40868400610D4086840064FF0CF
:103540000000F1D50FE000BFFEF75EFB801BA84234
:1035500008D82068C16800684006F5D5002002E060
:10356000FEF752FB0320202184F84110BDE8F081D2
:10357000216800BF0868000608D4FEF745FB801BE1
:10358000A842EFD82168C868F4E700BF17B117F860
:10359000010B04E038F8020B00276FF35F2048604E
:1035A000E08C0138E084E08C0028E3D1B6E700002D
:1035B000704700002DE9F04383B0044600680D46D3
:1035C00001680A9F0B9E41F4807199469046016004
:1035D00020464FF0011100223B46009600F0AEF865
:1035E00050B120680068C00544BF4FF400702064EB
:1035F000032003B0BDE8F083206805F0FE010161FF
:103600000221C0F2010120463A46334600F080F91B
:1036100020B1012003B0BDE8F08300BF002002907C
:1036200020683246416902918069394602900298C9
:10363000204600F0DDF958B1206C0428E9D120685B
:10364000016841F400710160012003B0BDE8F0831E
:10365000B9F1010F0AD020684FEA18210161204614
:103660003946324600F0C4F90028E5D120685FFAF7
:1036700088F10161002003B0BDE8F08370B50368F4
:10368000044653F8140F400711D40E46481C29D0A5
:1036900086BB00BF1868400527D4FEF7B5FA23683B
:1036A00053F8140F400739D518684007F2D50020A9
:1036B00070BD00BF18684007F9D41868400514D4DD
:1036C00018684007F3D4186840050ED418684007FE
:1036D000EDD41868400508D4186840074FF0000082
:1036E00048BF70BD18684005E4D56FF4806018606D
:1036F000042014E0154603E053F8140F4007D6D415
:1037000018684005F1D4FEF77FFA401B2368B042E9
:10371000F2D958694007EFD4202000E02020002192
:103720002022216384F83D2084F83E10226C10434F
:103730002064012084F83C1070BD00002DE9F041A8
:10374000054600681E46144601F47F0201338FB21D
:1037500042D0DDF81880B2F5803F40F087804069A4
:103760003840C01BB0FA80F04009A04240F0C88049
:103770004EB924E040693840C01BB0FA80F04009DF
:10378000A04240F0BD80FEF73FFAA0EB0801286898
:10379000B142EFD941693940C91BB1FA81F14909F8
:1037A000A142E7D19BE000BF40693840C01BB0FA9E
:1037B00080F04009A0424FF0000040F0A680FEF7E4
:1037C00023FA286841693940C91BB1FA81F14909D6
:1037D000A142E9D183E000BFB2F5803F24D100BF10
:1037E00041693940C91BB1FA81F14909A14240F050
:1037F000878041693940C91BB1FA81F14909A14269
:1038000040F07E8041693940C91BB1FA81F1490914
:10381000A14275D141693940C91BB1FA81F1490909
:10382000A142DDD06CE000BF81693940C91BB1FA0B
:1038300081F14909A14263D181693940C91BB1FABB
:1038400081F14909A1425BD181693940C91BB1FAB3
:1038500081F14909A14253D181693940C91BB1FAAB
:1038600081F14909A142DFD04AE000BF80693840B8
:10387000C01BB0FA80F04009A04241D146B923E014
:1038800080693840C01BB0FA80F04009A0423BD1AB
:10389000FEF7BAF9A0EB08012868B142F0D98169B6
:1038A0003940C91BB1FA81F14909A142E8D116E0BA
:1038B00080693840C01BB0FA80F04009A0424FF048
:1038C000000018BFBDE8F081FEF79EF92868816905
:1038D0003940C91BB1FA81F14909A142E8D1002060
:1038E0002021286385F83D1085F83E00296C41F0C1
:1038F0002001296485F83C000120BDE8F08100BF6B
:103900000020BDE8F08100BF0020BDE8F08100008C
:10391000F0B581B0044600681D4643698FB203EAE2
:103920000701B94202D1002001B0F0BD416916463D
:10393000013201F4806125D0002940D1CEB100BF11
:10394000FEF762F9411B2068B14203D94169394051
:10395000B9424BD141693940B942E4D04169490586
:10396000EED52CE041693940B942DCD041694905C6
:1039700025D4FEF749F9206841693940B942F1D0B0
:10398000202024E0D9B941693940B942CBD04169FE
:10399000490514D441693940B942C4D04169490547
:1039A0000DD441693940B942BDD04169490506D4B9
:1039B00041693940B942B6D041694905E3D501684A
:1039C00041F4007101606FF48061416104200021C5
:1039D0002022216384F83D2084F83E10226C10439D
:1039E000206484F83C10012001B0F0BD2020EEE7F7
:1039F00070B50368044653F8140F000611D40E4640
:103A0000481C29D086BB00BF1868400527D4FEF7A4
:103A1000FBF8236853F8140F000639D51868000620
:103A2000F2D5002070BD00BF18680006F9D41868F0
:103A3000400514D418680006F3D4186840050ED465
:103A400018680006EDD41868400508D41868000608
:103A50004FF0000048BF70BD18684005E4D56FF412
:103A600080601860042014E0154603E053F8140F3A
:103A70000006D6D418684005F1D4FEF7C5F8401BFF
:103A80002368B042F2D958690006EFD4202000E044
:103A9000202000212022216384F83D2084F83E105C
:103AA000226C10432064012084F83C1070BD00009B
:103AB000B0B584B040F2687042F20041C2F200003A
:103AC000C4F20101002401254FF46022057304753E
:103AD000C261C0E9001484600561FDF701FE0028A1
:103AE00018BFFDF72DFD40F26870C2F2000001A979
:103AF000CDE901450394FDF729FD002818BFFDF726
:103B00001FFD04B0B0BD0000B0B584B040F29870A5
:103B100042F60001C2F20000C4F2010100240125B6
:103B20004FF4602205730475C261C0E9001484601B
:103B30000561FDF7D5FD002818BFFDF701FD40F236
:103B40009870C2F2000001A9CDE901550394FDF778
:103B5000FDFC002818BFFDF7F3FC04B0B0BD000069
:103B6000F0B585B0002641F218000496C4F20200B8
:103B7000016840F6000441F0200101600168C4F2D0
:103B8000010401F02001009100990168002241F038
:103B90000401016001684FF4815701F004010091B4
:103BA0000099016841F00801016000684FF48151FB
:103BB00000F00800009000982046FEF71FF8102043
:103BC00001ADCDE90106204629460396FDF706FF23
:103BD0000120CDE9020602200490204629460197E3
:103BE000FDF7FCFE05B0F0BD80B540F2C87045F2AF
:103BF0000041C2F20000C4F2000148F2A0620023BA
:103C00004FF4804CC0F2010280E80E00C0E9033C92
:103C1000C0E90533C0E90733FDF7FCFF002808BF02
:103C200080BDBDE88040FDF78BBC000080B540F64C
:103C3000640043F60001C2F20000C4F20101002357
:103C40004FF00C0C4FF4E13280E80E00C0E9033372
:103C5000C0E905C3C361FFF731FA002808BF80BD82
:103C6000BDE88040FDF76CBC80B540F6AC0044F286
:103C70000041C2F20000C4F2000100234FF00C0C1E
:103C80004FF4E13280E80E00C0E90333C0E905C318
:103C9000C361FFF713FA002808BF80BDBDE880406C
:103CA000FDF74EBC80B540F6F40044F60001C2F2C8
:103CB0000000C4F2000100234FF00C0C4FF4E1327D
:103CC00080E80E00C0E90333C0E905C3C361FFF714
:103CD000F5F9002808BF80BDBDE88040FDF730BC85
:103CE000FEE70000FEE700002DE9F04F85B040F24E
:103CF000C87400254FF480760127C2F200040DF14C
:103D0000120B0DF113084FF0000900BF09F1B000CC
:103D10008DF8100004A8CDE9000720467821002284
:103D200001230296FEF732F80DF11100CDE90007EC
:103D300020467821002201238DF811500296FEF7CB
:103D400025F810208DF8120020467821002201234A
:103D5000CDE900B70296FEF719F84FF0000A00BF50
:103D600020467821402201238DF81350CDE90087A9
:103D70000296FEF70BF80AF101004FFA80FABAF149
:103D8000FF3FEDDCB9F1070F09F10109BED305B022
:103D9000BDE8F08F80B5C82004F0F2F9BDE880409E
:103DA00000F0A2BD2DE9F04F85B00746A1F150000B
:103DB00040F2C8748DF80C00012503A8C2F200047B
:103DC000164688464FF48079CDE9000520467821D3
:103DD00000220123CDF80890FDF7D8FF380900F143
:103DE000100A0DF10D00CDE90005204678210022D2
:103DF00001238DF80DA0CDF80890FDF7C7FF0DF158
:103E00000E0007F00F0BCDE90005204678210022B7
:103E100001238DF80EB0CDF80890FDF7B7FF40F202
:103E20002300C2F20000B101415C00EB86168DF860
:103E30000F100DF10F072046782140220123CDE914
:103E40000075CDF80890FDF7A1FF707878218DF806
:103E50000F00204640220123CDE90075CDF80890DF
:103E6000FDF794FFB07878218DF80F0020464022AE
:103E70000123CDE90075CDF80890FDF787FFF078B4
:103E800078218DF80F00204640220123CDE90075EE
:103E9000CDF80890FDF77AFF307978218DF80F0082
:103EA000204640220123CDE90075CDF80890FDF7AA
:103EB0006DFF707978218DF80F0020464022012394
:103EC000CDE90075CDF80890FDF760FFB079782155
:103ED0008DF80F00204640220123CDE90075CDF872
:103EE0000890FDF753FFF07978218DF80F002046F8
:103EF00040220123CDE90075CDF80890FDF746FF7B
:103F0000307A78218DF80F00204640220123CDE938
:103F10000075CDF80890FDF739FF707A78218DF89B
:103F20000F00204640220123CDE90075CDF808900E
:103F3000FDF72CFFB07A78218DF80F002046402243
:103F40000123CDE90075CDF80890FDF71FFFF07A49
:103F500078218DF80F00204640220123CDE900751D
:103F6000CDF80890FDF712FF307B78218DF80F0017
:103F7000204640220123CDE90075CDF80890FDF7D9
:103F800005FF707B78218DF80F0020464022012329
:103F9000CDE90075CDF80890FDF7F8FEB07B7821EB
:103FA0008DF80F00204640220123CDE90075CDF8A1
:103FB0000890FDF7EBFEF07B78218DF80F0020468E
:103FC00040220123CDE90075CDF80890FDF7DEFE13
:103FD000A8F14F008DF8100004A8CDE90005204697
:103FE000782100220123CDF80890FDF7CFFE0DF1D6
:103FF0001100CDE9000520467821002201238DF82B
:1040000011A0CDF80890FDF7C1FE0DF11200CDE929
:10401000000520467821002201238DF812B0CDF84A
:104020000890FDF7B3FE96F820000DF113078DF808
:1040300013002046782140220123CDE90075CDF8F8
:104040000890FDF7A3FE96F8210078218DF8130063
:10405000204640220123CDE90075CDF80890FDF7F8
:1040600095FE96F8220078218DF813002046402214
:104070000123CDE90075CDF80890FDF787FE96F88D
:10408000230078218DF81300204640220123CDE93A
:104090000075CDF80890FDF779FE96F82400782198
:1040A0008DF81300204640220123CDE90075CDF89C
:1040B0000890FDF76BFE96F8250078218DF8130027
:1040C000204640220123CDE90075CDF80890FDF788
:1040D0005DFE96F8260078218DF8130020464022D8
:1040E0000123CDE90075CDF80890FDF74FFE96F855
:1040F000270078218DF81300204640220123CDE9C6
:104100000075CDF80890FDF741FE96F8280078215B
:104110008DF81300204640220123CDE90075CDF82B
:104120000890FDF733FE96F8290078218DF81300EA
:10413000204640220123CDE90075CDF80890FDF717
:1041400025FE96F82A0078218DF81300204640229B
:104150000123CDE90075CDF80890FDF717FE96F81C
:104160002B0078218DF81300204640220123CDE951
:104170000075CDF80890FDF709FE96F82C0078211F
:104180008DF81300204640220123CDE90075CDF8BB
:104190000890FDF7FBFD96F82D0078218DF81300AF
:1041A000204640220123CDE90075CDF80890FDF7A7
:1041B000EDFD96F82E0078218DF813002046402260
:1041C0000123CDE90075CDF80890FDF7DFFD96F8E5
:1041D0002F0078218DF81300204640220123CDE9DD
:1041E0000075CDF80890FDF7D1FD05B0BDE8F08F62
:1041F0002DE9F04F89B0064640B20D460028A2F1E5
:10420000200744BF02350026102BA5F1500040F0D6
:104210003F8140F2C8748DF818004FF0010906A8DC
:10422000C2F200044FF48078CDE9000920467821DD
:1042300000220123CDF80880FDF7A8FD30091030D9
:1042400005908DF819000DF11900CDE900092046FF
:10425000782100220123CDF80880FDF797FD06F0B4
:104260000F0004908DF81A000DF11A00CDE9000935
:104270002046782100220123CDF80880FDF786FD35
:10428000F8B249F61C620101C0F60002515C02EB73
:1042900000168DF81B100DF11B07204678214022D7
:1042A0000123CDE90079CDF80880FDF76FFD707826
:1042B000317996F802A096F803B003918DF81B00AF
:1042C0002046782140220123CDE90079CDF80880ED
:1042D000FDF75CFD20467821402201238DF81BA0CC
:1042E000CDE90079CDF80880FDF750FD2046782112
:1042F000402201238DF81BB0CDE90079CDF808806C
:10430000FDF744FD039878218DF81B0020464022DC
:104310000123CDE90079CDF80880FDF737FD7079EC
:1043200078218DF81B00204640220123CDE9007939
:10433000CDF80880FDF72AFDB07978218DF81B00B3
:10434000204640220123CDE90079CDF80880FDF711
:104350001DFDF07978218DF81B00204640220123B5
:10436000CDE90079CDF80880FDF710FDA5F14F00EB
:104370008DF81C0007A8CDE900092046782100220D
:104380000123CDF80880FDF701FD059878218DF80F
:104390001D000DF11D00CDE900092046002201237A
:1043A000CDF80880FDF7F2FC049878218DF81E0006
:1043B0000DF11E00CDE90009204600220123CDF8B1
:1043C0000880FDF7E3FC307A0DF11F058DF81F0022
:1043D0002046782140220123CDE90059CDF80880FC
:1043E000FDF7D4FC707A78218DF81F00204640221A
:1043F0000123CDE90059CDF80880FDF7C7FCB07A5C
:1044000078218DF81F00204640220123CDE9005974
:10441000CDF80880FDF7BAFCF07A78218DF81F00FE
:10442000204640220123CDE90059CDF80880FDF750
:10443000ADFC307B78218DF81F00204640220123FF
:10444000CDE90059CDF80880FDF7A0FC707B7821FC
:104450008DF81F00204640220123CDE90059CDF8F8
:104460000880FDF793FCB07B78218DF81F00204673
:1044700040220123CDE90059CDF80880FDF786FCE4
:10448000F07BCDE900598DF81F00204689E000BF80
:1044900040F2C87B8DF820004FF0010A08A8C2F254
:1044A000000B4FF48078CDE9000A584678210022AD
:1044B0000123CDF80880FDF769FC300910308DF834
:1044C00021000DF12100CDE9000A58467821002293
:1044D0000123CDF80880FDF759FC06F00F008DF898
:1044E00022000DF12200CDE9000A58467821002271
:1044F0000123CDF80880FDF749FCF8B249F6F43104
:1045000000EB4000C0F6000111F8102001EB40055F
:104510008DF823200DF123065846782140220123EF
:10452000CDE9006ACDF80880FDF730FC6878AF78F7
:10453000EC7895F804908DF82300584678214022B5
:104540000123CDE9006ACDF80880FDF71FFC58462D
:104550007821402201238DF82370CDE9006ACDF83F
:104560000880FDF713FC58467821402201238DF87E
:104570002340CDE9006ACDF80880FDF707FC5846D6
:104580007821402201238DF82390CDE9006ACDF8EF
:104590000880FDF7FBFB6879CDE9006A8DF8230000
:1045A0005846782140220123CDF80880FDF7EEFB24
:1045B00009B0BDE8F08F000010B540F26844C2F2C7
:1045C0000004207821790022FFF7ECFB207A217B80
:1045D0000122FFF7E7FB207C217D0222FFF7E2FBAF
:1045E000207E217F0322FFF7DDFB94F8200094F862
:1045F00024100422FFF7D6FB94F8280094F82C101E
:104600000522FFF7CFFB94F8700094F8741006228F
:10461000FFF7C8FB94F8780094F87C100722FFF7A6
:10462000C1FB94F8800094F884100822FFF7BAFBCD
:1046300094F8880094F88C100922FFF7B3FB94F8E3
:10464000900094F894102E221023FFF7D1FD94F8D7
:10465000980094F89C102E221023FFF7C9FD94F8BF
:10466000A00094F8A4102E221023BDE81040FFF7FC
:10467000BFBD00002DE9F04115461278002A08BFA1
:10468000BDE8F08198460E4607460024F8B2F1B224
:10469000D2B24346FFF7ACFD0837F8B201347828B0
:1046A000E0B288BF02362A5C88BF0027002AEDD11D
:1046B000BDE8F08180B502F05FFE03F085FEBDE845
:1046C000804002F067BE0000B0B594B00024012025
:1046D000CDE90F44CDE90D440A900E904FF4E0105F
:1046E0004FF48031022513900AA80494CDE90244C6
:1046F000CDE90B14CDE91151FDF7C4FE20B1EFF364
:10470000108072B6FEE700BF0F20CDE905054FF41B
:104710008060CDE9080405A802210794FDF782FD19
:1047200020B1EFF3108072B6FEE700BF02200190C7
:104730004FF40040039001A8FDF7EEFC20B1EFF329
:10474000108072B6FEE700BF14B0B0BD41F20400A5
:10475000C4F20200016801F00C01082941F20021B5
:10476000C0F27A0119D102680368C2F38342DB0305
:1047700002F1020206D440F60011C0F23D0151439D
:104780000BE000BF03689B0302D4514305E000BF68
:1047900040F60011C0F23D01514340F26442C2F2C2
:1047A00000021160006849F6DC33C0F30310C0F664
:1047B0000003185C21FA00F0106070477047000099
:1047C00040F61C00C2F20000FEF70AB9406A002160
:1047D000C185C184FEF7BEB981B090F8421022298C
:1047E00020D18368B3F5805F08D10169002965D0C5
:1047F00000F128010A6803685B680AE0014651F885
:10480000282F13B90369002BF5D003685B6803F008
:104810007F0313700A6801320A60C18D01390A04EE
:10482000C18501D001B070470168CA6822F020023A
:10483000CA60CA6822F48072CA604A6922F0010222
:104840004A61202280F8422000224263036B012B40
:104850003ED1026351E8031F026821F0100142E8D3
:1048600003130168DBB151E8031F026821F0100156
:1048700042E80313016893B151E8031F026821F075
:10488000100142E8031301684BB151E8031F0268AD
:1048900021F0100142E803130168002BDAD10A6805
:1048A000D20606D5002200920A680092496800915B
:1048B0000099818D01B0FEF74BB900BF0168826A93
:1048C00049686FF35F2122F8021B8262A5E700BFEF
:1048D00001B0FEF747BD000040F6AC00C2F2000098
:1048E000FEF73AB9FEE70000F0B583B040F2C874B5
:1048F00040F20807C2F200044FF480750126C2F2AC
:1049000000072046782100220123CDE90076029598
:10491000FDF73CFA781CCDE90006204678210022FC
:1049200001230295FDF732FAB81CCDE900062046B6
:104930007821002201230295FDF728FAF81CCDE921
:10494000000620467821002201230295FDF71EFA79
:10495000381DCDE90006204678210022012302956A
:10496000FDF714FA781DCDE90006204678210022D3
:1049700001230295FDF70AFAB81DCDE9000620468D
:104980007821002201230295FDF700FAF81DCDE9F8
:10499000000620467821002201230295FDF7F6F952
:1049A00007F10800CDE90006204678210022012306
:1049B0000295FDF7EBF907F10900CDE90006204665
:1049C0007821002201230295FDF7E0F907F10A00A2
:1049D000CDE9000620467821002201230295FDF74B
:1049E000D5F907F10B00CDE9000620467821002219
:1049F00001230295FDF7CAF907F10C00CDE9000685
:104A000020467821002201230295FDF7BFF907F126
:104A10000D00CDE9000620467821002201230295F1
:104A2000FDF7B4F907F10E00CDE900062046782124
:104A3000002201230295FDF7A9F907F10F00CDE946
:104A4000000620467821002201230295FDF79EF9F9
:104A500007F11000CDE9000620467821002201234D
:104A60000295FDF793F907F11100CDE90006204604
:104A70007821002201230295FDF788F907F1120041
:104A8000CDE9000620467821002201230295FDF79A
:104A90007DF907F11300CDE90006204678210022B8
:104AA00001230295FDF772F907F11400CDE9000624
:104AB00020467821002201230295FDF767F907F1CE
:104AC0001500CDE900062046782100220123029539
:104AD000FDF75CF907F11600CDE9000620467821C4
:104AE000002201230295FDF751F907F11700CDE9E6
:104AF000000620467821002201230295FDF746F9A1
:104B000007F11800CDE90006204678210022012394
:104B10000295FDF73BF907F11900CDE900062046A3
:104B20007821002201230295FDF730F907F11A00E0
:104B3000CDE9000620467821002201230295FDF7E9
:104B400025F903B0F0BD0000002804BF0020704725
:104B5000C1B209B101200CE010F47F4102D0090A72
:104B6000092006E010F47F0107BF010E1920090C8F
:104B700011204AF20E42C0F60002515C0844704710
:104B800080B500F0C3FB002080BD000080B500F0C0
:104B900029FD002080BD000080B581B00090009804
:104BA00000284FD04EF2180041F6401CCEF2000013
:104BB000C0F2010C07E000BF0099A1EB0E010091CB
:104BC000009900293ED00099B1F5617F94BFDDF8CE
:104BD00000E04FF4617E03680EEBCE01494203EB27
:104BE000C101002916D400BF02689A42E4DA8A4261
:104BF000E2DB02689A42DFDA8A42DDDB02689A422F
:104C0000DADA8A42D8DB02689A42D5DA8A42EBDAEB
:104C1000D2E700BF614400BF02689A4201DD8A42C8
:104C2000CADD02689A4201DD8A42C5DD02689A4205
:104C300001DD8A42C0DD02689A42EDDD8A42EBDC8A
:104C4000BAE700BF01B080BD70B582B040F28066A7
:104C50004AF6A8204AF65031C2F20006C0F600001B
:104C6000C0F60001C6E900010120782101F0CCFF67
:104C7000706128B30A201521CDE9001044F6F941EE
:104C800013A0C0F6000100224FF48063002403F05B
:104C900051F97269054610A110460022002302F066
:104CA000C1FE706990F8211041F0020180F82110D6
:104CB0001DB1284603F0D2FA0024204602B070BD90
:104CC00007A002F075FB4FF0FF34204602B070BD24
:104CD000747368656C6C0000736872780000000083
:104CE0006E6F206D656D6F727920666F72207368CC
:104CF000656C6C0A0000000040F2806AC2F2000A93
:104D0000DAF8140040F2E46490F82110C2F20004D2
:104D100041F0010280F82120880703D40020207090
:104D200026E000BFDAF8101041B140F2E460C2F2B0
:104D300000008022FBF744FC1AE000BF01F0F6FB04
:104D400030B10020207147F26D30C2F2680009E0F6
:104D500046F67300C0F22000C4F8030046F6661061
:104D6000C7F26E3020602046FBF76FFB3E212152D8
:104D7000204602F01DFB4AF689264FF0010B4FF04A
:104D80000008C0F60006022702E000BF80F820B04D
:104D900002F07AF88146DAF81400B9F11B0FF5D069
:104DA00090F82010022909D0012940F07580B9F14E
:104DB0005B0F40F06F8080F82070E9E7A9F14101B6
:104DC000022980F82080E3D3B9F1440F00F29280E9
:104DD000DFE819F0460097009700970097009700CA
:104DE00097009700A000E000700097009700700007
:104DF00097009700970097009700970097009700FB
:104E000097009700970097009700970097009700EA
:104E100097009700970097009700970097009700DA
:104E200097009700970097009700970097009700CA
:104E300097009700970097009700970097009700BA
:104E400097009700970097009700970097009700AA
:104E5000970097009700970097004800840100BFD3
:104E600096E700BFB0F87410B0F872209142BFF41A
:104E70008FAF084490F822104AF68B20C0F600004D
:104E800002F096FADAF81400B0F874100131A0F8C4
:104E900074107DE780F82080B9F10D0F2AD8DFE883
:104EA00009F007303030303030303979093030098E
:104EB0006EE700BF01F03AFB012812D1DAF81400C6
:104EC00090F82110C90707D04AF68300C0F6000009
:104ED00002F06EFADAF81400B0F87210223001F025
:104EE000D3F8DAF8140090F82100800778D484F819
:104EF00000801DE1B9F17F0F0CD0B9F1FF0F3FF435
:104F000047AFB0F87220502A74D30022A0F8722064
:104F1000A4E000BFB0F8741000293FF439AFB0F836
:104F200072200139531E9AB2A0F872308BB29A42A5
:104F3000A0F8741040F2B480C11801F122002331AE
:104F4000D21A02F031FBDAF81400B0F872100844FB
:104F500080F82280DAF81400B0F87410084400F1E8
:104F6000220189A002F024FADAF81410B1F87400D2
:104F7000B1F8721088423FF60BAF451E304602F082
:104F800017FADAF814000135B0F872008542F5D34B
:104F9000FEE600BFB0F8741051B10025304602F0B3
:104FA00007FADAF814000135B0F874108D42F5D321
:104FB00000F122054AF68300C0F6000002F0F8F97D
:104FC00001F0B4FA012802D1284600F09BFFDAF87C
:104FD000140090F8210080076ED484F80080C1E0AE
:104FE000DAF8101000296FD020468022FBF7E8FA8B
:104FF0009EE000BFB0F874309A422FD9C11801F179
:1050000023002231D21A02F0CFFADAF81400B0F8F5
:105010007410084480F82290DAF8140090F82110F7
:10502000C90709D0B0F87410084400F122015AA051
:1050300002F0BEF9DAF81400B0F87450B0F872104B
:105040008D421DD2304602F0B3F9DAF81400013572
:10505000B0F872108D42F5D312E000BF104480F812
:105060002290DAF8140090F82110C90708D04AF607
:105070008B20C0F60000494602F09AF9DAF81400D5
:10508000B0F87210B0F874200131A0F8721089B233
:1050900001325029A0F8742028BFC0F8728077E64A
:1050A00038A002F085F9DAF81400B0F8721008445C
:1050B00080F822806CE600BFDAF81010F1B12046CB
:1050C0008022FBF77DFA4DE001F030FA00B347F2A1
:1050D0006D3084F80480C2F2680023E0B0F87400F8
:1050E00000283FF455AE304602F062F9DAF81400B9
:1050F000B0F874100139A0F8741049E601F016FAFE
:1051000000B347F26D3084F80480C2F2680023E0F7
:1051100046F67300C0F22000C4F8030046F666109D
:10512000C7F26E3020602046FBF78FF93E212152F6
:10513000204602F03DF9DAF8140054212230FBF742
:10514000F6F925E646F67300C0F22000C4F8030025
:1051500046F66610C7F26E3020602046FBF775F900
:105160003E2121520AA021462A4602F021F9DAF80E
:10517000145005F12200FBF768F9A5F87200A5F8B4
:10518000740005E6082008000825732020080000A8
:10519000257325730000000025730000FBF7D6FE81
:1051A00040F2D85548F21F5B46F26769C2F200052B
:1051B000C5F2EB1B4FF0640A67274FF02E08C6F2CA
:1051C000666921A4FBF7F8FD686004F055FC44F61D
:1051D000D351C1F2620180FB0112910901EBD2713E
:1051E0004FF47A7201FB120180FB0B2380FB09262E
:1051F00009B241F27B425143CA0C02EBD1715A0908
:1052000002EBD37202FB1A02303185F8301051B232
:105210007943C1F3C03202EB9121303185F831106E
:10522000B10801EBD67101EB8101A0EB41003030F8
:1052300085F83300204685F8328002F0B9F842F252
:10524000107002F09DFFBDE7E6ADA3E59CA8E8BFA6
:1052500090E8A18C3A6765747475726269646974C8
:10526000790A000080B502A002F0A2F8002080BDFB
:1052700048656C6C6F2052542D54687265616421CE
:105280000A0000002DE9F04381B016A002F090F86A
:1052900040F2806040F28469C2F20000C2F200096C
:1052A0000768D9F80050AF4218D213A40FF24C0887
:1052B00003E000BF0C37AF4210D23E6821463046B3
:1052C0000222FBF7E1F80028F4D07A684046314624
:1052D00002F06EF8D9F80050ECE700BF002001B0F2
:1052E000BDE8F0832D2D46756E6374696F6E204C9A
:1052F0006973743A0A0000005F5F0000252D3136A3
:1053000073202D2D2025730A0000000010B540F2F7
:105310002864C2F20004216806A002F049F821695D
:1053200009A002F045F861690CA0BDE8104002F048
:105330003FB800BF746F74616C206D656D6F7279DA
:105340003A2025640A00000075736564206D656D60
:105350006F7279203A2025640A0000006D61786937
:105360006D756D20616C6C6F6361746564206D6533
:105370006D6F72793A2025640A0000002DE9F04F24
:105380008DB0022002F064FA00F104087AA081A234
:10539000082102F00DF84AF64724C0F60004204622
:1053A00002F006F8204602F003F8204602F000F86A
:1053B000204601F0FDFF204601F0FAFF204601F0F3
:1053C000F7FF204601F0F4FF204601F0F1FF74A042
:1053D00001F0EEFF00260DF1140B7BA77BA4CDF8A6
:1053E0000C8005E0049EDDF80C80002E00F0C080EB
:1053F0003546002E08BF4546FAF712FF36B115F8BC
:10540000041C01F07F01022940F0B0802968414569
:1054100000F0AC800A68059142451DD011680692E3
:1054200041451DD00A68079142451DD01168089278
:1054300041451DD00A68099142451DD011680A9264
:1054400041451DD00A680B9142451DD04FF0080818
:10545000114604920C921BE04FF0010816E000BFC9
:105460004FF0020812E000BF4FF003080EE000BF4B
:105470004FF004080AE000BF4FF0050806E000BF47
:105480004FF0060802E000BF4FF00708002104912A
:1054900050A5FAF7C9FE4FF0000905E0FAF7C4FE7F
:1054A00009F10109C1459DD05BF829A0FAF7B8FEC2
:1054B0001AF8041C01F07F010229EFD1FAF7B4FEBB
:1054C0005AF8081F0026BAF808005145AAF114033B
:1054D00051460FD0096851451FD00968514519D070
:1054E0000968514518D0096804365145F2D1013E8A
:1054F00013E000BF096851452FD00968514529D0F4
:105500000968514528D0096804365145F2D1013E59
:1055100023E000BF013600E00236009026A00821FB
:105520000822019601F044FFDAF8006056450DD0DC
:10553000A6F11401384601F03BFF3068504505D014
:10554000204601F035FF36685645F1D120A001F024
:105550002FFFA5E7013600E002360090284608211B
:105560000822019601F024FF9AE700BFFAF75CFEDB
:1055700000200DB0BDE8F08F252D2A2E7320762057
:10558000202073757370656E642074687265616441
:105590000A00000073656D6170686F72650000003D
:1055A000202D2D2D202D2D2D2D2D2D2D2D2D2D2D45
:1055B0002D2D2D0A00000000252D2A2E2A732025CE
:1055C0003033642025643A00257300002F0000006A
:1055D0000A000000252D2A2E2A732025303364204E
:1055E00025640A002DE9F04F8DB0012002F030F95A
:1055F000051D4AF6D210C0F6000073A2082101F082
:10560000D7FE4AF64724C0F60004204601F0D0FE3B
:10561000204601F0CDFE204601F0CAFE204601F0F2
:10562000C7FE204601F0C4FE204601F0C1FE204620
:1056300001F0BEFE204601F0BBFE65A001F0B8FE01
:1056400000240DF1140A039505E000BF049C039D9E
:10565000002C00F0B5802646002C08BF2E46FAF735
:10566000DFFD34B116F8041C01F07F01012940F080
:10567000A5803168A94200F0A1800A680591AA427C
:105680001ED011680692A9421ED00A680791AA424C
:105690001ED011680892A9421ED00A680991AA4238
:1056A0001ED011680A92A9421ED00A680B91AA4224
:1056B0001ED04FF00808114604920C921CE000BF67
:1056C0004FF0010816E000BF4FF0020812E000BFE3
:1056D0004FF003080EE000BF4FF004080AE000BFDF
:1056E0004FF0050806E000BF4FF0060802E000BFDB
:1056F0004FF0070800210491FAF796FD4FF00009DA
:1057000006E000BFFAF790FD09F10109C1459DD0FF
:105710005AF829B0FAF784FD1BF8041C01F07F0148
:105720000129EFD1ABF10C06FAF77EFD9BF8294079
:1057300037A0082108223346009401F039FE9BF877
:10574000280000F00F00042804D834A151F82000EC
:1057500001F02EFEDBF81C00C11C00BF11F8032C69
:10576000232A0DD111F8022C232A0BD111F8012C78
:10577000232A09D111F8042B232AEFD0043904E09D
:10578000033902E0023900E00139DBE90824DBF8E3
:1057900010601718401A104464214843DBF8345055
:1057A000B0FBF2F3B91B22A00095019401F000FEBA
:1057B00009F10109C145ABD148E700BFFAF734FD53
:1057C00000200DB0BDE8F08F746872656164000060
:1057D000202D2D2D20202D2D2D2D2D2D2D202D2D2D
:1057E0002D2D2D2D2D2D2D2D202D2D2D2D2D2D2DF6
:1057F0002D2D2D20202D2D2D2D2D2D20202D2D2D0D
:105800002D2D2D2D2D2D2D202D2D2D0A00000000AC
:10581000252D2A2E2A7320253364200016AA00087D
:1058200028AA000849AA000852AA00081FAA0008CE
:10583000203078253038782030782530387820208E
:10584000202025303264252520202030782530384E
:105850007820253033640A002DE9F04F8FB00A20FC
:1058600001F0F6FF00F104090FF2B0400FF2D4424C
:10587000082101F09DFD4AF64724C0F600042046A9
:1058800001F096FD204601F093FD204601F090FDC9
:10589000204601F08DFD204601F08AFD204601F0F2
:1058A00087FD204601F084FD204601F081FD0FF2C6
:1058B0009C4001F07DFD002623E000BFA4F10C0711
:1058C000FAF7B2FCD4E90605082100904AF6312027
:1058D000C0F6000008223B46019501F069FD14F86E
:1058E000030CC00707BF4AF6C510C0F600004AF611
:1058F000C710C0F6000001F05BFD00BF002E00F0F5
:1059000003823446002E08BF4C46FAF789FC36B1B4
:1059100014F8041C01F07F010A2940F0F38121688A
:10592000494500F0EF810A6807914A4520D0116887
:105930000892494522D00A6809914A4500F0C28080
:1059400011680A92494500F0F9800A680B914A45AE
:1059500000F0328111680C92494500F039810E68DF
:105960000D914E4500F0768100240E9602E000BFB6
:10597000002601244FF0000B04E000BF4FF0010BA4
:10598000002600244FF0000A002106910021059115
:105990000021049100210391FAF746FCDDF81C80F8
:1059A000FAF73EFC18F8041C01F07F010A2923D104
:1059B000A8F10C07FAF738FCD8E906050821009091
:1059C0004AF63120C0F6000008223B46019501F05E
:1059D000EFFC18F8030CC00707BF4AF6C510C0F665
:1059E00000004AF6C710C0F6000001F0E1FC002CF0
:1059F0007FF484AF05E000BFFAF716FC002C7FF4BB
:105A00007DAF089CFAF70CFC14F8041C01F07F0130
:105A10000A2923D1A4F10C07FAF706FCD4E90605FC
:105A2000082100904AF63120C0F6000008223B46CB
:105A3000019501F0BDFC14F8030CC00707BF4AF63E
:105A4000C510C0F600004AF6C710C0F6000001F00D
:105A5000AFFCBBF1000F7FF451AF05E0FAF7E4FBB8
:105A6000BBF1000F7FF44AAF099CFAF7D9FB14F899
:105A7000041C01F07F010A292CD1A4F10C07FAF7CC
:105A8000D3FBD4E90605082100904AF63120C0F680
:105A9000000008223B46019501F08AFC14F8030C33
:105AA000C00707BF4AF6C510C0F600004AF6C71087
:105AB000C0F6000001F07CFCBAF1000F7FF41EAFCD
:105AC0000EE000BF4FF0010A002600244FF0000B4B
:105AD0005AE700BFFAF7A8FBBAF1000F7FF40EAF48
