:020000040800F2
:1000000098480020890100082D1E00086D02000894
:10001000291E0008590500083D1F000800000000C7
:100020000000000000000000000000009B0100082C
:100030005D05000800000000F7010008311E0008FF
:10004000A3010008A3010008A3010008A301000800
:10005000A3010008A3010008A3010008A3010008F0
:10006000A3010008A3010008A3010008A3010008E0
:10007000A3010008A3010008A3010008A3010008D0
:10008000A3010008A3010008A3010008A3010008C0
:10009000A3010008A3010008A3010008A3010008B0
:1000A000A3010008311F0008A3010008A3010008F4
:1000B000A3010008A3010008A3010008A301000890
:1000C000A3010008A3010008A3010008A301000880
:1000D000A3010008A3010008A3010008A301000870
:1000E000A3010008A3010008A301000800F002F822
:1000F00000F03AF80AA090E8000C82448344AAF188
:100100000107DA4501D100F02FF8AFF2090EBAE885
:100110000F0013F0010F18BFFB1A43F0010318473B
:100120000C6700002C670000103A24BF78C878C123
:10013000FAD8520724BF30C830C144BF04680C60ED
:10014000704700000023002400250026103A28BF35
:1001500078C1FBD8520728BF30C148BF0B60704739
:100160001FB51FBD10B510BD00F091F91146FFF786
:10017000F7FF00F0C7F900F0AFF903B4FFF7F2FFA3
:1001800003BC00F0B7F90000094880470948004760
:10019000FEE7FEE7FEE7FEE7FEE7FEE7FEE7FEE737
:1001A000FEE7FEE704480549054A064B7047000094
:1001B0002D1F0008ED0000089842002098480020FC
:1001C0009844002098440020EFF3108072B67047E6
:1001D00080F310887047324A1368012B04D04FF027
:1001E000010313602F4A10602F4A11602F484FF00F
:1001F000805101607047EFF3108272B628480168A1
:1002000091B14FF0000101602648016829B1EFF378
:10021000098121E9F00F0068016023490968096834
:10022000B1E8F00F81F3098882F310884EF0040ED4
:1002300070471D4908601B494FF0000008601849CD
:100240004FF0010008601A481A49D0F8002041EA2E
:100250000201016015484FF08051016016480068A6
:10026000006880F3088861B662B670471EF0040F1C
:100270000CBFEFF30880EFF3098020E9F00F40F89E
:1002800004ED1EF0040F0CBF80F3088880F309888A
:1002900000B503F01DFF5DF804EB4EF0040E70474F
:1002A00088420020FC3F00200440002004ED00E0D4
:1002B00020ED00E00000FFFF08ED00E010B5431C5A
:1002C00002E010F8011B71B18107FAD14FF0013241
:1002D00002C88C1A8C4314EAC211F9D0C01A0A065B
:1002E00003D0C01E10BDC01A10BD0A0401D0801E6C
:1002F00010BD0902FCD0401E10BD40EA010370B5DC
:100300009B072ED14FF00136042A2AD308C810C902
:100310009D1B9D43121F15EAC61517D0D8B2E1B236
:10032000401A50EA056110D198B2A1B2401A50EAC1
:1003300005410AD123F07F4024F07F41401A50EA62
:10034000052102D1180EA0EB146070BDA342DBD0D2
:1003500018BA21BA884201D9012070BD4FF0FF3090
:1003600070BD0AB9002070BD10F8013B11F8014BB7
:1003700063B1A3420AD1521E08D010F8013B11F814
:10038000014B1BB1A34201D1521EEDD1181B70BD10
:1003900002F0FF0343EA032242EA024200F002B8FD
:1003A0004FF000020429C0F0128010F0030C00F09E
:1003B0001B80CCF1040CBCF1020F18BF00F8012B1C
:1003C000A8BF20F8022BA1EB0C0100F00DB85FEAEA
:1003D000C17C24BF00F8012B00F8012B48BF00F8B6
:1003E000012B70474FF0000200B513469446964625
:1003F000203922BFA0E80C50A0E80C50B1F1200138
:10040000BFF4F7AF090728BFA0E80C5048BF0CC0E5
:100410005DF804EB890028BF40F8042B08BF704743
:1004200048BF20F8022B11F0804F18BF00F8012BB5
:10043000704710B5044610F0030F08BF11F0030F0A
:1004400040F015804FF0013E121FC0F20E8051F8AF
:10045000043BA3EB0E0C2CEA030C1CEACE1C08BFD9
:1004600040F8043BF0D0A1F1040102F10402521E55
:1004700008DB11F8013B00F8013B002BF7D11146D6
:10048000FFF78EFF204610BD7047704770477546D6
:1004900000F02CF8AE4605006946534620F00700F0
:1004A000854618B020B5FFF77DFEBDE820404FF02F
:1004B00000064FF000074FF000084FF0000BAC466D
:1004C000ACE8C009ACE8C009ACE8C009ACE8C009B8
:1004D00021F007018D46704710B50446AFF3008048
:1004E0002046BDE81040FFF748BE000000487047B6
:1004F0004000002001491820ABBEFEE726000200A4
:100500007047000080B582B0FFF75EFE03F07CFD0F
:1005100004F020FC04F0E4FD04F034FD0A20009017
:1005200046F2EA4043F239214FF0140CC0F60000C5
:10053000C0F6000100224FF48063CDF804C004F03F
:10054000D9FD04F06BFF04F0D3FD04F089FE04F044
:10055000AFFD002002B080BDFEE700007047000044
:10056000EFF3108072B600BFFEE7000010B581B057
:100570000022009290F82420012A03D1022108468B
:1005800001B010BD4B680122062B80F8242015D83D
:10059000026803EB8303A3F1050E1F23D2F834C0D6
:1005A00003FA0EF40B682CEA040C03FA0EF444EA86
:1005B0000C045463092B17D937E000BF02680C2BD9
:1005C00020D803EB8303A3F123041F23D2F830C008
:1005D00003FA04FE0B682CEA0E0C03FA04F444EA56
:1005E0000C041463092B20D8D2F810C003EB43038A
:1005F000072489689C402CEA040499402143116136
:10060000002136E003EB8303A3F141041F23D2F85A
:100610002CC003FA04FE0B682CEA0E0C03FA04F457
:1006200044EA0C04D462092BDED903EB4304D2F86C
:100630000CC0A4F11E0E0724896804FA0EF42CEAFB
:10064000040401FA0EF1214323F00104102CD160BF
:100650000ED142F20841C4F20101A1F10804A24204
:100660000ED0816A41F020018162012101E000BFCA
:100670000021002280F82420084601B010BD00BFF0
:100680000A68120230D40A68102B42F400020A6091
:100690002CD140F20801C2F2000109684DF68362D4
:1006A000C4F21B32A1FB0212910C01EB8101490043
:1006B00000910099E1B10099013900910099C9B107
:1006C0000099013900910099B1B100990139009167
:1006D000009999B1009901390091009900294FF0D2
:1006E0000001E8D1C5E700BF0021C2E70021C0E753
:1006F0000021BEE70021BCE70021BAE70021B8E7EE
:10070000B0B5002800F0A8800446806A20B12168B6
:100710008868C0070BD114E00020E06284F8240050
:10072000204600F09BF821688868C00709D08868D7
:1007300020F00100886000F0D3F921688A68D207B0
:1007400026D1A06AC0063AD4A06A41F202129043B0
:100750000230A062E069D4E9013240EA030C531E82
:10076000B3FA83F35D091346B2F5807F18BF2B02FD
:10077000207D257B01284CEA450030D135B3A56AA0
:1007800045F02005A562E56A45F00105E56226E031
:10079000054602E08868C007D3D000F0A1F9401BED
:1007A00021680328F6D38868C007F3D0A06A40F018
:1007B0001000A062E06A40F00100E062A06AA06A56
:1007C00040F01000A0620120B0BD00BFD4F818C0F6
:1007D0004EF60005CFF6FF7505EB4C352B434D6803
:1007E000B2F5807F25F4694543EA05034B608B68C9
:1007F0004FF2FD75CFF6E17503EA050343EA000306
:100800008B6001D0012A07D122690023CFF6F07353
:1008100003EB025201E000BF0022CB6A23F4700315
:100820001A43CA62896840F6FE62CFF61F72114011
:10083000814207D10020E062A16A012262F3010136
:10084000A162B0BDA06A40F0100020F00200A062DA
:10085000E06A40F00100E0620120B0BD80B586B0E2
:10086000014640F60000C4F20100096800F5E052BC
:1008700091424FF00001CDE9041101D006B080BDD6
:1008800041F21801C4F202010A6842F400720A60DF
:100890000A6802F400720192019A0A6842F00402A6
:1008A0000A60096801F00401019101990121029196
:1008B0000321039102A900F003F806B080BD0000F7
:1008C0002DE9F04F82B041F20042C4F201020E68FD
:1008D0000423904208BF0323002E009300F0F6800B
:1008E00040F2004C4FF6FF7E0022C4F2010C0124BE
:1008F000C1F2100E4FF0000A4FF0000947E000BFB0
:10090000012502F00C040F27A7402BEA070705FA80
:1009100004F43C4343F82640D1F804B040F20C45BF
:100920005FEACB23DCF8083054BF23EA080343EA2C
:100930000803C4F20105CCF808302B685FEA8B2469
:1009400054BF23EA080343EA08032B605FEA8B34B1
:10095000DCF8043054BF23EA080343EA08035FEAE3
:10096000CB34CCF80430DCF800304FF0010454BF35
:1009700023EA080343EA0803CCF800300E680AF1C2
:10098000010A36FA0AF302F1040200F09F8004FA29
:100990000AF816EA080FF1D04B68734512DC122BE7
:1009A00056D8DFE803F0350B454955555555555593
:1009B000555555555555554D510000BFD1F80C9022
:1009C00046E000BF4FF6FF75C1F22105AB420FDCD8
:1009D0000025C1F21105AB421AD00025C1F2120563
:1009E000AB4215D00025C1F22105AB4210D02FE05B
:1009F0000025C1F22205AB420AD00025C1F2310523
:100A0000AB4205D00025C1F23205AB4220D100BF78
:100A10008B684BB1012B14BFC0F81480C0F8108054
:100A20004FF0080914E000BF4FF0040910E000BFC8
:100A3000CB6803F108090BE04FF0000908E000BFA4
:100A4000CB6803F1040903E0CB6803F10C0900BF94
:100A500013460546BAF1080F24BF203B04352E6823
:100A60000F279F40BE4309FA03F333432B60CB7932
:100A7000DB067FF583AF41F21804C4F20204236859
:100A80004FEA9A0643F001032360236840F600040E
:100A900003F001030193019BACF57E7353F826B07C
:100AA000C4F20104A0420FD040F60044C4F2010495
:100AB000A0423FF425AF41F20004C4F20104009DBE
:100AC000A04208BF02251CE700251AE702B0BDE8D6
:100AD000F08F0000002A08BF090401617047000080
:100AE00044F29020C2F200000068704770B5B8B3BD
:100AF000044690F83D0028B9002084F83C002046C8
:100B000000F0B0F8242084F83D002068016821F04E
:100B100001010160016841F400410160016821F4B4
:100B20000041016000F046FB48F28041C0F21E0126
:100B300040F60013D4F804E088424FF00001C0F200
:100B40003D0348F2A16C4FF0000238BF01219842EA
:100B5000C0F2010C38BF0122E64538BF0A460AB18F
:100B6000012070BD4DF68361C4F21B31A0FB011260
:100B70002168950C4B684FF4967623F03F0343EAC7
:100B80009243754344F6D3564B60C1F262060B6A3A
:100B9000A5FB0656B50923F03F03E64538BF950C83
:100BA0006A1C1A430A62CA6948F2A0664CF6FF73CF
:100BB000C0F20106B64522EA03020BD801384FEA1B
:100BC0004E03B0FBF3F001306FF31F30042898BFE1
:100BD00004201EE0A368013863B119230EFB03F360
:100BE000B0FBF3F001306FF31F3078B100F58040B7
:100BF00008E000BF0EEB4E03B0FBF3F001306FF3E3
:100C00001F3028B100F5004003E000BF012000E0E4
:100C100001201043C8610868D4E9072320F0C00010
:100C2000104318430860886848F2FF3204F10C064C
:100C300090434CCE18431043A5698860C86820F0E3
:100C4000FF0030432843C860086840F00100086096
:100C500000202021206484F83D10206384F83E00A9
:100C600070BD000010B586B045F200410068C4F2C6
:100C7000000100228842049202D006B010BD00BFDD
:100C800041F21804C4F20204206840F00800206019
:100C9000206800F0080001900198C0200290122006
:100CA00003900320059001F5384002A9FFF708FEE4
:100CB000606840F400106060606800F4001001900B
:100CC000019806B010BD000040F2000044F29021EF
:100CD000C2F20000C2F2000100780A681044086005
:100CE0007047000080B542F20000C4F202000168C3
:100CF00041F010010160032000F0BEF80F2000F069
:100D000005F800F05BF8002080BD0000B0B586B0AB
:100D100041F21801C4F202010A68044642F400627A
:100D20000A60096801A801F400610191019969460E
:100D300000F018FA00F052FA4DF68361C4F21B314C
:100D4000A0FB01014FF0FF3000EB914140F2602029
:100D500042F60042C2F20000C4F2010240F2E73360
:100D60000025C0E90021C0E902530561856100F05A
:100D70003DFC054610B1284606B0B0BD40F26020EB
:100D8000C2F2000000F0B2FC05460028F3D11920A1
:100D900000F036F80F2C0DD819202146002200252E
:100DA00000F03EF840F20400C2F200000460284661
:100DB00006B0B0BD0125284606B0B0BD82B041F2F4
:100DC0001800C4F202000168022241F00101016032
:100DD000016801F0010101910199416841F08051E0
:100DE0004160406800F08050009000980420C4F2F8
:100DF0000100016862F31A61016002B070470000EF
:100E0000002848BF704700F01F01012202FA01F1DB
:100E10004EF200124009CEF2000242F82010704754
:100E200010B54EF60C5CCEF2000CDCF80030C3F3CB
:100E3000022E8EF00704042C28BF0424BEF1030305
:100E40004FF0FF3E0EFA04F438BF0023A14399404F
:100E50000EFA03F39A43114300F00F02043A62447E
:100E600009010C3200F16043B0F1FF3FC8BF03F548
:100E70006442117010BD00004EF60C51CEF200011C
:100E80000A684FF6FF031A4060F30A2242F08060BE
:100E900040F0FD70086070472DE9F04182B00446D3
:100EA000007841F21C06C007C4F202064AD030683E
:100EB00010F0805808D1306840F0805030603068C1
:100EC00000F080500190019847F20007C4F200073B
:100ED0003868C00512D4386840F480703860FFF775
:100EE000FFFD05463868C00508D4FFF7F9FD401B33
:100EF0006428F7D9032002B0BDE8F081706810F4CF
:100F0000407012D0616801F4407188420DD0706861
:100F100040F24042C4F24222012320F440711360A7
:100F20000023C007136071602AD17068616820F4E3
:100F300040700843B8F1000F706003D1306820F0B2
:100F4000805030602068810707D556F8181CA268C9
:100F500021F44041114346F8181CC00604D4002077
:100F600002B0BDE8F08100BF56F8180CE16820F42B
:100F70008000084346F8180C002002B0BDE8F0815C
:100F8000FFF7AEFD054641F2883700BF7068800765
:100F9000CBD4FFF7A5FD401BB8424FF00300F5D9B5
:100FA000EBE700002DE9F04381B0002800F08580D8
:100FB00042F20008C4F202080446D8F800000D46C8
:100FC00000F0070088420CD2D8F8000020F007009B
:100FD0002843C8F80000D8F8000000F00700A84235
:100FE0006BD1206841F204098107C4F2020917D5C8
:100FF000410705D5D9F8001041F4E061C9F80010A7
:10100000010705D5D9F8001041F46051C9F8001066
:10101000D9F80010A26821F0F0011143C9F80010BE
:10102000C00741D1D8F8000000F00700A8420CD951
:10103000D8F8000020F007002843C8F80000D8F8CE
:10104000000000F00700A84237D12068410707D50B
:10105000D9F80010E26821F4E0611143C9F80010EA
:10106000000708D5D9F80000216920F4605040EA53
:10107000C100C9F80000D9F8002002F00C000828CF
:1010800041F20020C0F27A0050D146F27823C2F338
:101090008341C0F60003595CD2033BD440F60010F4
:1010A000C0F23D00484341E0606802280AD00128B0
:1010B0002AD159F8041C890308D4012001B0BDE8E5
:1010C000F08300BF59F8041C8901F6D5D9F8001047
:1010D00021F003010843C9F80000FFF701FD0646AF
:1010E00041F28837D9F80000616800F00C00B0EBDD
:1010F000810F97D0FFF7F4FC801BB842F2D9032090
:1011000001B0BDE8F08300BF59F8041C8907D4D5AD
:10111000DCE700BFD9F8002046F27613C2F3404264
:10112000C0F600039A5C4843B0FBF2F0D9F8001017
:1011300046F25E12C1F30311C0F60002515C40F2A8
:10114000080220FA01F140F20400C2F20000006837
:10115000C2F200021160FFF7D9FD002001B0BDE826
:10116000F08300000F22026041F20402C4F2020286
:10117000136803F003034360136803F0F003836014
:10118000136803F4E063C36012684FF4E06303EA9A
:10119000D202026142F20000C4F20200006800F0D4
:1011A000070008607047000040F20800C2F200002B
:1011B0000068704740F2080041F20401C2F20000EA
:1011C000C4F202010068096846F26E12C1F30221FE
:1011D000C0F60002515CC8407047000040F20800B1
:1011E00041F20401C2F20000C4F202010068096881
:1011F00046F26E12C1F3C221C0F60002515CC84033
:10120000704700002DE9F04182B0002868D0044604
:10121000007841F20006C007C4F2020625D07068CB
:1012200000F00C0004281BD0706800F00C000828A7
:1012300002D17068C00313D46068002800F0688190
:10124000B0F5A02F00F07C81B0F5803F00F07C81EC
:10125000306820F480303060306820F4802076E1FF
:101260003068800301D56068D0B32078800718D536
:10127000706810F00C0F07D0706800F00C000828A0
:101280006ED17068C0036BD43068800702D52069C6
:10129000012825D13068616920F0F80040EAC100DA
:1012A0003060207800071FD42078400732D4E569E9
:1012B00095B1706800F00C00082840F08F80012D77
:1012C0000ED07068216A00F480328A4208D1616AC7
:1012D00000F47010884203D1002002B0BDE8F08114
:1012E000012002B0BDE8F081A069002862D0002092
:1012F000C4F242200121C0F88014FFF7F1FB05463B
:10130000706A800700F18C80FFF7EAFB401B02281F
:10131000F6D92AE1F06910F0805808D1F06940F060
:101320008050F061F06900F080500090009847F222
:101330000007C4F200073868C00529D4386840F4B3
:1013400080703860FFF7CCFB054600BF3868C005E9
:101350001ED4FFF7C5FB401B6428F7D905E100BF89
:101360002069002840F20000C4F2422000F0828090
:1013700001210160FFF7B4FB054600BF306880071C
:101380003FF588AFFFF7ACFB401B0228F6D9ECE035
:10139000E068002800F08080052800F09780012890
:1013A00000F09880306A20F001003062306A20F04E
:1013B000040092E00020C4F242200021C0F8801412
:1013C000FFF78EFB054600BF706A80077FF56CAFA4
:1013D000FFF786FB401B0228F6D9C6E00027C4F2BF
:1013E000422700203866FFF77BFB022D05460BD114
:1013F0003068800140F1BE80FFF772FB401B02287D
:101400004FF00300F4D968E7306880017FF564AFDE
:10141000FFF766FB401B02284FF00300F4D95CE79E
:1014200040F20800C2F20000006844F6D351C1F255
:101430006201A0FB0101480A019000BF00BF0198B2
:10144000411E002801913FF42FAF00BF0198411EBB
:10145000002801913FF428AF00BF0198411E0028E9
:1014600001913FF421AF00BF0198411E0028019176
:10147000E4D119E700210160FFF732FB054600BF08
:10148000306880077FF50DAFFFF72AFB401B02286D
:101490004FF00300F4D920E7306A20F001003062F9
:1014A000306A20F004003062FFF71AFB054641F273
:1014B000883700BF306A800720D5FFF711FB401B3B
:1014C000B8424FF00300F5D907E700BF306A40F09B
:1014D00004003062306A40F001003062FFF700FB28
:1014E000054641F2883700BF306A800706D4FFF70F
:1014F000F7FA401BB842F7D937E000BFB8F1000F48
:101500007FF4D5AEF06920F08050F061CFE600BFE7
:10151000306820F480303060306820F48020306003
:10152000FFF7DEFA054600BF306880037FF59DAE09
:10153000FFF7D6FA401B64284FF00300F4D9CCE63D
:10154000306840F480203060306840F48030306093
:10155000FFF7C6FA054600BF306880033FF585AE49
:10156000FFF7BEFA401B6428F6D9032002B0BDE89D
:10157000F08100BF206AB0F5803F05D17168A26894
:1015800021F40031114371607168626A21F47411B1
:1015900010430843706001203866FFF7A1FA044643
:1015A000306880013FF598AEFFF79AFA001B0228D9
:1015B0004FF00300F4D990E6411E0020B0EB116F0C
:1015C0001CBF012070474EF21002CEF200025160A3
:1015D0004EF62351CEF20001F0230B7007219060EC
:1015E000116070477047000070470000002804BF7A
:1015F0000120704710B5044690F83D0028B900203E
:1016000084F83C00204600F06FF8022084F83D008A
:10161000206840F2FF730268C4F2000342F6004CF7
:101620009842C4F2010C15DCB0F1804F1AD040F2A0
:101630000041C4F20001884214D0984218DCB0F195
:10164000804F1DD040F20041C4F20001884217D003
:101650001AE000BF604505D040F60001C4F2000169
:101660008842EAD1A16822F070020A439842E6DD7E
:10167000604505D040F60001C4F20001884203D164
:10168000216922F440720A43A36922F08001D4F850
:1016900004E0E268194360450160C262C0F828E0D6
:1016A00002D16169CCF83010012141610269D20791
:1016B00003D0026922F001020261002084F8461082
:1016C00084F83E1084F83F1084F8401084F84110EC
:1016D00084F8421084F8431084F8441084F84510CC
:1016E00084F83D1010BD00007047000090F83D10D8
:1016F00001291CBF01207047022180F83D100068BD
:1017000040F2FF72C168C4F20002904241F0010150
:10171000C16009DCB0F1804F12D040F20041C4F248
:10172000000188420CD012E042F60041C4F20101EF
:10173000884205D040F60001C4F20001884206D17B
:10174000816801F00701062904BF00207047016885
:1017500041F0010101600020704700007047000067
:1017600070B504460068C5680669B10716D515F05E
:10177000020113D06FF0020101610121217780691C
:10178000800703D02046FFF7E9FF05E0204600F080
:101790008FF8204600F08EF800202077700719D5CA
:1017A00015F0040016D020686FF0040101610221D9
:1017B0002177806910F4407F04D02046FFF7CEFFE8
:1017C00006E000BF204600F073F8204600F072F8F3
:1017D00000202077300717D515F0080014D02068B6
:1017E0006FF00801016104212177C069800703D0EF
:1017F0002046FFF7B3FF05E0204600F059F82046E9
:1018000000F058F800202077F00619D515F01000E8
:1018100016D020686FF01001016108212177C0699E
:1018200010F4407F04D02046FFF798FF06E000BF89
:10183000204600F03DF8204600F03CF800202077DC
:10184000F00718BF15F0010002D1300609D412E0EC
:1018500020686FF001010161204600F02DF830068C
:1018600009D515F0800006D020686FF08001016175
:101870002046FFF7B7FE700609D515F0400006D0E8
:1018800020686FF040010161204600F01FF8B006AB
:1018900058BF70BD15F0200008D021686FF02002FD
:1018A00020460A61BDE87040FFF79EBE70BD000093
:1018B0007047000070470000006842F60041C4F223
:1018C0000101884208BFFFF7FFB970477047000069
:1018D000002804BF0120704710B5044690F841006D
:1018E00028B9002084F84000204600F061F8242048
:1018F00084F841002068D4E90212C36823F400533D
:10190000C360036923F440531A430261D4E90423FA
:101910001143C268194341F20C639A431143C160F9
:101920004169A26921F44071114343F60002C4F2F7
:1019300001029042416103D0FFF73CFC02E000BF8E
:10194000FFF74CFC6268192148439100B0FBF1F0AD
:1019500048F21F51C5F2EB11A0FB01235A096FF0A9
:10196000630302FB0300322303EB0010A0FB010121
:10197000F02303EA5113206803EB0212C1F3431171
:1019800011448160016921F490410161416921F0B4
:101990002A014161C16841F40051C1600020202149
:1019A000606484F8411084F84210606310BD000048
:1019B00010B586B0006844F20041C4F200018842CC
:1019C0004FF00001CDE90411CDE9021134D044F605
:1019D0000001C4F20001884254D043F60001C4F271
:1019E0000101884240F07F8041F21800C4F20200F9
:1019F000016840F6000441F4804101600168C4F2CE
:101A0000010401F4804101910199016841F0040150
:101A10000160006802A900F00400019001984FF4F1
:101A20000070029002200390032005902046FEF7EC
:101A300047FF4FF480604EE041F21800C4F202000C
:101A4000416840F6000441F4003141604168C4F24D
:101A5000010401F4003101910199016841F0040190
:101A60000160006802A900F00400019001980420C0
:101A7000029002200390032005902046FEF720FFED
:101A8000082028E041F21800C4F20200416841F445
:101A900080214160416801F4802101910199016830
:101AA00041F008010160006802A900F008000190FF
:101AB00001984FF48060029002200390032005906B
:101AC00040F60000C4F2010000F580642046FEF7F5
:101AD000F7FE4FF4006002900020CDE9030002A958
:101AE0002046FEF7EDFE06B010BD00002DE9F041E6
:101AF000044690F8410020281CBF0220BDE8F08178
:101B00000F4600294FF0010000F082801646002A9F
:101B100008BFBDE8F0814FF0000821201D46C4F841
:101B2000448084F84100FEF7DBFFA684E684A168C8
:101B30000646B1F5805F05D12069002814BF3846FC
:101B4000B8460746E08CC8B1681C19D0002D61D199
:101B5000216807E017F8010B4860E08C0138E08449
:101B6000E08C68B3086800064CD5002FF2D138F835
:101B7000020B00276FF35F20EEE700BF21681FE034
:101B8000216802E00868000609D40868000606D447
:101B9000086800065CBF08685FEA0060F2D51FB104
:101BA00017F8010B05E000BF38F8020B00276FF3B0
:101BB0005F204860E08C0138E084E08C0028E4D1AC
:101BC000086840061CD4EDB1681C0FD108684006B7
:101BD00016D40868400613D40868400610D4086874
:101BE00040064FF00000F1D50FE000BFFEF778FF90
:101BF000801BA84208D82068C16800684006F5D557
:101C0000002002E0FEF76CFF0320202184F8411041
:101C1000BDE8F081216800BF0868000608D4FEF71F
:101C20005FFF801BA842EFD82168C868F4E700BFB7
:101C300017B117F8010B04E038F8020B00276FF317
:101C40005F204860E08C0138E084E08C0028E3D11C
:101C5000B6E70000B0B584B040F2DC1042F20041BB
:101C6000C2F20000C4F20101002401254FF46022F9
:101C700005730475C261C0E9001484600561FEF754
:101C80003FFD002818BFFEF76BFC40F2DC10C2F2EB
:101C9000000001A9CDE901450394FEF767FC002887
:101CA00018BFFEF75DFC04B0B0BD0000F0B585B014
:101CB000002641F218000496C4F20200016840F6C2
:101CC000000441F0200101600168C4F2010401F048
:101CD0002001009100990168002241F00401016097
:101CE0000168202701F0040100910099016841F08A
:101CF000080101600068202100F0080000900098B1
:101D00002046FEF7E7FE102001ADCDE90106204692
:101D100029460396FEF7D4FD0120CDE902060220F4
:101D20000490204629460197FEF7CAFD05B0F0BD94
:101D300080B540F20C2045F20041C2F20000C4F22E
:101D4000000148F2A06200234FF4804CC0F201026F
:101D500080E80E00C0E9033CC0E90533C0E9073361
:101D6000FEF7C4FE002808BF80BDBDE88040FEF736
:101D7000F7BB000080B540F2A82043F60001C2F294
:101D80000000C4F2010100234FF00C0C4FF4165276
:101D900080E80E00C0E90333C0E905C3C361FFF763
:101DA00097FD002808BF80BDBDE88040FEF7D8BB86
:101DB00080B540F2F02044F20041C2F20000C4F2CB
:101DC000000100234FF00C0C4FF4E13280E80E00CC
:101DD000C0E90333C0E905C3C361FFF779FD0028FB
:101DE00008BF80BDBDE88040FEF7BABB80B540F2B9
:101DF000383044F60001C2F20000C4F200010023B2
:101E00004FF00C0C4FF4E13280E80E00C0E90333D0
:101E1000C0E905C3C361FFF75BFD002808BF80BDB3
:101E2000BDE88040FEF79CBBFEE70000FEE7000037
:101E300080B502F081FB03F0A7FBBDE8804002F013
:101E400089BB0000B0B594B00AAC201D2421FEF778
:101E5000C9FA02200A9001200E90102000250F9050
:101E600020460495CDE902551195FFF7CBF928B12D
:101E7000EFF3108072B600BFFEE700BF0F20CDE980
:101E8000050505A80021CDE907550995FFF78AF852
:101E900020B1EFF3108072B6FEE700BF0220019080
:101EA0000020039001A8FEF7F7FF28B1EFF31080A0
:101EB00072B600BFFEE700BF14B0B0BD41F204002F
:101EC000C4F20200016801F00C01082941F200216E
:101ED000C0F27A0119D102680368C2F38342DB03BE
:101EE00002F1020206D440F60011C0F23D01514356
:101EF0000BE000BF03689B0302D4514305E000BF21
:101F000040F60011C0F23D01514340F20802C2F216
:101F100000021160006846F25E13C0F30310C0F6C1
:101F20000003185C21FA00F0106070477047000051
:101F300040F26020C2F20000FFF712BCFEE7000092
:101F4000002804BF00207047C1B209B101200CE095
:101F500010F47F4102D0090A092006E010F47F0145
:101F600007BF010E1920090C112046F27812C0F6A5
:101F70000002515C0844704780B500F04BFB002024
:101F800080BD000080B500F0B1FC002080BD0000E5
:101F900004A400BF204602F0EBFA4FF4FA6003F00D
:101FA000CFF9F7E7E6ADA3E59CA8E8BF90E8A18CE0
:101FB0003A77696669E9809AE4BFA10A00000000E7
:101FC00070B582B040F2F80646F2847046F62C01F5
:101FD000C2F20006C0F60000C0F60001C6E900012A
:101FE0000120782101F0F0FE706128B30A2015214C
:101FF000CDE9001042F2710113A0C0F600010022E9
:102000004FF48063002403F075F87269054610A14F
:1020100010460022002302F0E5FD706990F82110BF
:1020200041F0020180F821101DB1284603F0F6F9B5
:102030000024204602B070BD07A002F099FA4FF0CC
:10204000FF34204602B070BD747368656C6C00008C
:1020500073687278000000006E6F206D656D6F729E
:102060007920666F72207368656C6C0A000000004E
:1020700040F2F80AC2F2000ADAF8140040F25814EA
:1020800090F82110C2F2000441F0010280F82120F2
:10209000880703D40020207026E000BFDAF8101073
:1020A00041B140F25810C2F200008022FEF7C1F99F
:1020B0001AE000BF01F0EEFB30B10020207147F2C2
:1020C0006D30C2F2680009E046F67300C0F22000ED
:1020D000C4F8030046F66610C7F26E302060204652
:1020E000FEF7ECF83E212152204602F041FA46F27A
:1020F00067764FF0010B4FF00008C0F6000602278C
:1021000002E000BF80F820B001F09EFF8146DAF8BF
:102110001400B9F11B0FF5D090F82010022909D056
:10212000012940F07580B9F15B0F40F06F8080F8B5
:102130002070E9E7A9F14101022980F82080E3D36A
:10214000B9F1440F00F29280DFE819F046009700E1
:10215000970097009700970097009700A000E00075
:102160007000970097007000970097009700970005
:1021700097009700970097009700970097009700A7
:102180009700970097009700970097009700970097
:102190009700970097009700970097009700970087
:1021A0009700970097009700970097009700970077
:1021B0009700970097009700970097009700970067
:1021C0009700970097009700970097009700970057
:1021D00097004800840100BF96E700BFB0F8741074
:1021E000B0F872209142BFF48FAF084490F82210EB
:1021F00046F26970C0F6000002F0BAF9DAF814008D
:10220000B0F874100131A0F874107DE780F82080D8
:10221000B9F10D0F2AD8DFE809F00730303030303F
:1022200030303979093030096EE700BF01F032FBF8
:10223000012812D1DAF8140090F82110C90707D04C
:1022400046F2E850C0F6000002F092F9DAF8140005
:10225000B0F87210223001F0CBF8DAF8140090F8E0
:102260002100800778D484F800801DE1B9F17F0F48
:102270000CD0B9F1FF0F3FF447AFB0F87220502AED
:1022800074D30022A0F87220A4E000BFB0F874104C
:1022900000293FF439AFB0F872200139531E9AB2C9
:1022A000A0F872308BB29A42A0F8741040F2B48059
:1022B000C11801F122002331D21A02F055FADAF8DE
:1022C0001400B0F87210084480F82280DAF8140084
:1022D000B0F87410084400F1220189A002F048F916
:1022E000DAF81410B1F87400B1F8721088423FF6B1
:1022F0000BAF451E304602F03BF9DAF81400013509
:10230000B0F872008542F5D3FEE600BFB0F8741055
:1023100051B10025304602F02BF9DAF814000135EE
:10232000B0F874108D42F5D300F1220546F2E85062
:10233000C0F6000002F01CF901F0ACFA012802D14D
:10234000284600F093FFDAF8140090F82100800787
:102350006ED484F80080C1E0DAF8101000296FD044
:1023600020468022FEF765F89EE000BFB0F874308A
:102370009A422FD9C11801F123002231D21A02F05A
:10238000F3F9DAF81400B0F87410084480F82290D9
:10239000DAF8140090F82110C90709D0B0F87410C9
:1023A000084400F122015AA002F0E2F8DAF8140021
:1023B000B0F87450B0F872108D421DD2304602F061
:1023C000D7F8DAF814000135B0F872108D42F5D361
:1023D00012E000BF104480F82290DAF8140090F860
:1023E0002110C90708D046F26970C0F600004946BE
:1023F00002F0BEF8DAF81400B0F87210B0F87420E9
:102400000131A0F8721089B201325029A0F874206D
:1024100028BFC0F8728077E638A002F0A9F8DAF891
:102420001400B0F87210084480F822806CE600BFF7
:10243000DAF81010F1B120468022FDF7FAFF4DE0E6
:1024400001F028FA00B347F26D3084F80480C2F23C
:10245000680023E0B0F8740000283FF455AE304621
:1024600002F086F8DAF81400B0F874100139A0F818
:10247000741049E601F00EFA00B347F26D3084F8AB
:102480000480C2F2680023E046F67300C0F2200028
:10249000C4F8030046F66610C7F26E30206020468E
:1024A000FDF70CFF3E212152204602F061F8DAF8D8
:1024B000140054212230FDF773FF25E646F6730021
:1024C000C0F22000C4F8030046F66610C7F26E3072
:1024D00020602046FDF7F2FE3E2121520AA021464F
:1024E0002A4602F045F8DAF8145005F12200FDF70B
:1024F000E5FEA5F87200A5F8740005E608200800BE
:1025000008257320200800002573257300000000B3
:102510002573000004A400BF204602F029F84FF400
:102520007A7002F00DFFF7E7E6ADA3E59CA8E8BFDF
:1025300090E8A18C3A67657470680A0004A400BF33
:10254000204602F015F840F2DC5002F0F9FEF7E701
:10255000E6ADA3E59CA8E8BF90E8A18C3A67657456
:102560007475726269646974790A000080B502A0AA
:1025700001F0FEFF002080BD48656C6C6F20525456
:102580002D546872656164210A0000002DE9F04352
:1025900081B016A001F0ECFF40F2F80040F2FC0917
:1025A000C2F20000C2F200090768D9F80050AF4239
:1025B00018D213A40FF24C0803E000BF0C37AF424F
:1025C00010D23E68214630460222FDF796FE0028D2
:1025D000F4D07A684046314601F0CAFFD9F800507D
:1025E000ECE700BF002001B0BDE8F0832D2D46755B
:1025F0006E6374696F6E204C6973743A0A00000050
:102600005F5F0000252D313673202D2D2025730AA4
:102610000000000010B540F2A004C2F200042168DE
:1026200006A001F0A5FF216909A001F0A1FF6169E1
:102630000CA0BDE8104001F09BBF00BF746F746137
:102640006C206D656D6F72793A2025640A00000078
:1026500075736564206D656D6F7279203A2025640D
:102660000A0000006D6178696D756D20616C6C6F9A
:102670006361746564206D656D6F72793A202564BD
:102680000A0000002DE9F04F8DB0022002F0C0F9E1
:1026900000F104087AA081A2082101F069FF46F246
:1026A0002574C0F60004204601F062FF204601F0C8
:1026B0005FFF204601F05CFF204601F059FF2046F5
:1026C00001F056FF204601F053FF204601F050FF75
:1026D000204601F04DFF74A001F04AFF00260DF1E5
:1026E000140B7BA77BA4CDF80C8005E0049EDDF8DD
:1026F0000C80002E00F0C0803546002E08BF4546F5
:10270000FDF762FD36B115F8041C01F07F010229C6
:1027100040F0B0802968414500F0AC800A6805911E
:1027200042451DD01168069241451DD00A680791A7
:1027300042451DD01168089241451DD00A68099193
:1027400042451DD011680A9241451DD00A680B917F
:1027500042451DD04FF00808114604920C921BE030
:102760004FF0010816E000BF4FF0020812E000BF72
:102770004FF003080EE000BF4FF004080AE000BF6E
:102780004FF0050806E000BF4FF0060802E000BF6A
:102790004FF007080021049150A5FDF719FD4FF0F7
:1027A000000905E0FDF714FD09F10109C1459DD0BF
:1027B0005BF829A0FDF708FD1AF8041C01F07F0161
:1027C0000229EFD1FDF704FD5AF8081F0026BAF8D8
:1027D00008005145AAF1140351460FD0096851452C
:1027E0001FD00968514519D00968514518D00968AA
:1027F00004365145F2D1013E13E000BF096851454E
:102800002FD00968514529D00968514528D0096859
:1028100004365145F2D1013E23E000BF013600E00D
:102820000236009026A008210822019601F0A0FEA1
:10283000DAF8006056450DD0A6F11401384601F0D3
:1028400097FE3068504505D0204601F091FE36686D
:102850005645F1D120A001F08BFEA5E7013600E03E
:1028600002360090284608210822019601F080FED9
:102870009AE700BFFDF7ACFC00200DB0BDE8F08F7B
:10288000252D2A2E73207620202073757370656E97
:1028900064207468726561640A00000073656D618C
:1028A00070686F7265000000202D2D2D202D2D2DBC
:1028B0002D2D2D2D2D2D2D2D2D2D2D0A000000001F
:1028C000252D2A2E2A7320253033642025643A00D2
:1028D000257300002F0000000A000000252D2A2E7D
:1028E0002A7320253033642025640A002DE9F04F37
:1028F0008DB0012002F08CF8051D46F2B060C0F6E4
:10290000000073A2082101F033FE46F22574C0F6E0
:102910000004204601F02CFE204601F029FE20464E
:1029200001F026FE204601F023FE204601F020FEA5
:10293000204601F01DFE204601F01AFE204601F05F
:1029400017FE65A001F014FE00240DF1140A039592
:1029500005E000BF049C039D002C00F0B5802646D6
:10296000002C08BF2E46FDF72FFC34B116F8041CCE
:1029700001F07F01012940F0A5803168A94200F0F3
:10298000A1800A680591AA421ED011680692A94248
:102990001ED00A680791AA421ED011680892A94267
:1029A0001ED00A680991AA421ED011680A92A94253
:1029B0001ED00A680B91AA421ED04FF0080811469B
:1029C00004920C921CE000BF4FF0010816E000BF1B
:1029D0004FF0020812E000BF4FF003080EE000BF06
:1029E0004FF004080AE000BF4FF0050806E000BF02
:1029F0004FF0060802E000BF4FF0070800210491E5
:102A0000FDF7E6FB4FF0000906E000BFFDF7E0FB35
:102A100009F10109C1459DD05AF829B0FDF7D4FB51
:102A20001BF8041C01F07F010129EFD1ABF10C066A
:102A3000FDF7CEFB9BF8294037A00821082233463A
:102A4000009401F095FD9BF8280000F00F00042889
:102A500004D834A151F8200001F08AFDDBF81C00F5
:102A6000C11C00BF11F8032C232A0DD111F8022C30
:102A7000232A0BD111F8012C232A09D111F8042B98
:102A8000232AEFD0043904E0033902E0023900E0E0
:102A90000139DBE90824DBF810601718401A1044EC
:102AA00064214843DBF83450B0FBF2F3B91B22A099
:102AB0000095019401F05CFD09F10109C145ABD11C
:102AC00048E700BFFDF784FB00200DB0BDE8F08FA4
:102AD0007468726561640000202D2D2D20202D2D3D
:102AE0002D2D2D2D2D202D2D2D2D2D2D2D2D2D2D23
:102AF000202D2D2D2D2D2D2D2D2D2D20202D2D2D2D
:102B00002D2D2D20202D2D2D2D2D2D2D2D2D2D201C
:102B10002D2D2D0A00000000252D2A2E2A73202598
:102B200033642000F4660008066700082767000881
:102B300030670008FD66000820307825303878209E
:102B40003078253038782020202025303264252523
:102B500020202030782530387820253033640A0052
:102B60002DE9F04F8FB00A2001F052FF00F1040967
:102B70000FF2B0400FF2D442082101F0F9FC46F206
:102B80002574C0F60004204601F0F2FC204601F056
:102B9000EFFC204601F0ECFC204601F0E9FC204669
:102BA00001F0E6FC204601F0E3FC204601F0E0FCE9
:102BB000204601F0DDFC0FF29C4001F0D9FC00261C
:102BC00023E000BFA4F10C07FDF702FBD4E90605E2
:102BD0000821009046F20F70C0F6000008223B4624
:102BE000019501F0C5FC14F8030CC00707BF46F2BD
:102BF000A360C0F6000046F2A560C0F6000001F038
:102C0000B7FC00BF002E00F003823446002E08BF40
:102C10004C46FDF7D9FA36B114F8041C01F07F01D7
:102C20000A2940F0F3812168494500F0EF810A68E4
:102C300007914A4520D011680892494522D00A6878
:102C400009914A4500F0C28011680A92494500F096
:102C5000F9800A680B914A4500F0328111680C92A4
:102C6000494500F039810E680D914E4500F076819E
:102C700000240E9602E000BF002601244FF0000B56
:102C800004E000BF4FF0010B002600244FF0000AC3
:102C9000002106910021059100210491002103915A
:102CA000FDF796FADDF81C80FDF78EFA18F8041C83
:102CB00001F07F010A2923D1A8F10C07FDF788FA5A
:102CC000D8E906050821009046F20F70C0F6000012
:102CD00008223B46019501F04BFC18F8030CC00795
:102CE00007BF46F2A360C0F6000046F2A560C0F63A
:102CF000000001F03DFC002C7FF484AF05E000BF34
:102D0000FDF766FA002C7FF47DAF089CFDF75CFAB6
:102D100014F8041C01F07F010A2923D1A4F10C0747
:102D2000FDF756FAD4E906050821009046F20F7027
:102D3000C0F6000008223B46019501F019FC14F88A
:102D4000030CC00707BF46F2A360C0F6000046F2BE
:102D5000A560C0F6000001F00BFCBBF1000F7FF492
:102D600051AF05E0FDF734FABBF1000F7FF44AAF35
:102D7000099CFDF729FA14F8041C01F07F010A29C7
:102D80002CD1A4F10C07FDF723FAD4E9060508219C
:102D9000009046F20F70C0F6000008223B460195F5
:102DA00001F0E6FB14F8030CC00707BF46F2A3606E
:102DB000C0F6000046F2A560C0F6000001F0D8FBA6
:102DC000BAF1000F7FF41EAF0EE000BF4FF0010A12
:102DD000002600244FF0000B5AE700BFFDF7F8F97A
:102DE000BAF1000F7FF40EAF0A9CFDF7EDF914F86D
:102DF000041C01F07F010A292ED1A4F10C07FDF774
:102E0000E7F9D4E906050821009046F20F70C0F6F4
:102E1000000008223B46019501F0AAFB14F8030CC0
:102E2000C00707BF46F2A360C0F6000046F2A560E7
:102E3000C0F6000001F09CFB069800287FF4E2AE8B
:102E400010E000BF01210691002600244FF0000B86
:102E50004FF0000A1EE700BFFDF7BAF906980028F8
:102E60007FF4D0AE0B9CFDF7AFF914F8041C01F011
:102E70007F010A293ED1A4F10C07FDF7A9F9D4E995
:102E800006050821009046F20F70C0F600000822E7
:102E90003B46019501F06CFB14F8030CC00707BF1B
:102EA00046F2A360C0F6000046F2A560C0F600003E
:102EB00001F05EFB059800287FF4A4AE20E000BF7F
:102EC000012105910021002600244FF0000B4FF056
:102ED000000A0691E0E600BF01210491002106915D
:102EE0000021002600244FF0000B4FF0000A05914E
:102EF000D4E600BFFDF76CF9059800287FF482AE98
:102F00000C9CFDF761F914F8041C01F07F010A29FB
:102F100034D1A4F10C07FDF75BF9D4E906050821CB
:102F2000009046F20F70C0F6000008223B46019563
:102F300001F01EFB14F8030CC00707BF46F2A360A4
:102F4000C0F6000046F2A560C0F6000001F010FBDC
:102F5000049800287FF456AE16E000BF01210391CB
:102F600000210691002105910021002600244FF048
:102F7000000B4FF0000A049192E600BFFDF728F91C
:102F8000049800287FF43EAE0D9CFDF71DF914F85F
:102F9000041C01F07F010A2924D1A4F10C07FDF7DC
:102FA00017F9D4E906050821009046F20F70C0F623
:102FB000000008223B46019501F0DAFA14F8030CF0
:102FC000C00707BF46F2A360C0F6000046F2A56046
:102FD000C0F6000001F0CCFA039800287FF412AE8E
:102FE00006E000BFFDF7F4F8039800287FF40AAE6E
:102FF0000E9CFDF7E9F814F8041C01F07F010A2982
:103000003FF4E0ADFDF7E4F8FCE500BFFDF7E0F8C4
:1030100002F0B4FA014618A001F0AAFA00200FB09D
:10302000BDE8F08F252D2A2E732020706572696F00
:1030300064696320202074696D656F757420202099
:1030400020202020666C61670A00000074696D65AD
:1030500072000000202D2D2D2D2D2D2D2D2D2D20FC
:103060002D2D2D2D2D2D2D2D2D2D202D2D2D2D2D9D
:103070002D2D2D2D2D2D0A0063757272656E742015
:103080007469636B3A3078253038780A00000000A4
:1030900096B0FDF727FE0CAC201D2421FDF7A2F908
:1030A00002200C9001201090102000251190204645
:1030B0000695CDE904551395FEF7A4F820B1EFF37A
:1030C000108072B6FEE700BF0F20CDE9070507A804
:1030D0000021CDE909550B95FDF764FF20B1EFF311
:1030E000108072B6FEE700BF02200390002005901A
:1030F00003A8FDF7D1FE28B1EFF3108072B600BF30
:10310000FEE700BFFEF7D2FDFEF7A4FDFEF710FEBE
:10311000FEF730FEFEF74CFEFEF768FE46F2BE40BC
:1031200042F215510A240325C0F60000C0F6000142
:1031300000224FF480630095019401F0DBFF38B169
:1031400002F06CF946F29640C0F6000004E000BFC1
:1031500046F27C40C0F6000046F2BE41C0F60001D7
:1031600001F006FA46F2DB4042F23D51C0F60000A3
:10317000C0F6000100224FF480630095019401F035
:10318000B9FF38B102F04AF946F29640C0F60000A5
:1031900004E000BF46F27C40C0F6000046F2DB418E
:1031A000C0F6000101F0E4F946F2B44043F699019B
:1031B0000A240325C0F60000C0F6000100224FF4E7
:1031C00080630095019401F095FF38B102F026F973
:1031D00046F29640C0F6000004E000BF46F27C4094
:1031E000C0F6000046F2B441C0F6000101F0C0F99B
:1031F00046F2C64041F69171C0F60000C0F60001EB
:1032000000224FF480630095019401F073FF38B100
:1032100002F004F946F29640C0F6000004E000BF58
:1032200046F27C40C0F6000046F2C641C0F60001FE
:1032300001F09EF9FEE70000B0B546F2807446F258
:103240007870C0F60004C0F60000A04209D246F231
:103250007875C0F6000500BF55F8040B8047A542FD
:10326000FAD3BDE8B040FFF713BF00002DE9F04FDF
:1032700081B083460078A8B140F2F800C2F20000A5
:10328000056840F2FC00C2F20000D0F8008045451D
:1032900080F0A88046F260794FF0000AC0F600097D
:1032A00000264CE046F23970C0F6000001F060F9EB
:1032B00040F2F80040F2FC09C2F20000C2F200093C
:1032C0000768D9F80050AF421CD246F2607446F24B
:1032D0005478C0F60004C0F6000802E00C37AF4294
:1032E00010D23E68214630460622FDF706F8002837
:1032F000F4D17A68B11D404601F03AF9D9F800508E
:10330000ECE700BF46F2E850C0F6000001B0BDE8AF
:10331000F04F01F02DB900BF481C801B5045B8BFCD
:10332000824632A0394601F023F940F2FC00C2F295
:103330000000D0F8008000BF0C35454548D22F680A
:10334000494638460622FCF7D8FF0028F4D15846F3
:103350000637FCF7B3FF024658463946FCF7CDFF67
:103360000028E9D1BAF1000F04D03178304651B9C4
:10337000D3E700BF3846FCF7A1FF82463E463178CE
:1033800030460029C9D000203A5CDAB1914219D107
:1033900031184B78002BBFD03A185478002CBBD092
:1033A000A342B9D18B787BB194786CB1A3420BD195
:1033B000CB785BB1D2784AB1934207D10979043016
:1033C0000029E1D13044A8E7881CA6E7C81CA4E77F
:1033D00046B158463146524601B0BDE8F04F01F0C3
:1033E00033BD00BF01B0BDE8F08F00BF25730A00F8
:1033F0002DE9F04F8BB069B30D464A420023834656
:1034000007E000BF04330BF1040BD118A5F104054C
:1034100020D0C15C202901D0092926D1D618711CE1
:1034200018D2C7187978202901D0092916D1B11CE2
:1034300010D0B978202901D0092913D1F11C09D065
:10344000F9782029DED00929DCD0033D07F1030BF0
:103450000BE000BF00200BB0BDE8F08F0BF1010BBB
:10346000013D02E00BF1020B023D68426A1E4FF083
:103470000009C9B2092933D0202931D04D4521D0C6
:103480000BEB09014B78092B22D0202B20D04A4589
:1034900018D08B78092B21D0202B1FD000EB0903EB
:1034A0009F1C0FD0CF78092F00F04281202F00F011
:1034B0003F81033306D0097909F10409C9B209290A
:1034C000DAD10DE0A946B9F1000F0DD136E100BF08
:1034D00009F10109B9F1000F06D12FE109F1020943
:1034E000B9F1000F00F02A8140F2F800C2F20000AA
:1034F000066840F2FC00C2F200000468A64280F0B8
:103500001D8146F2607809F1060AC0F6000803E062
:103510000C36A64280F012813768414638460622B2
:10352000FCF7EBFE0028F3D1B81D59464A46FCF7DC
:10353000E4FE0028ECD117F80A000028E8D1B068B2
:103540000028009000F0FA804FF0000C4FF00008C7
:1035500000275A46CDE909CCCDE907CCCDE905CC09
:10356000CDE903CC2946CDF80880AF4288BF394663
:103570007B1A03F10108002096460197165C202E65
:1035800001D0092E46D113EB000A2FD002EB00091F
:1035900099F8016002F800C0202E01D0092E3BD11D
:1035A00018EB000C26D099F802604FF0000C202E8A
:1035B00089F801C001D0092E32D11AF1020421D0BC
:1035C00099F8036089F802C0202E01D0092E2BD172
:1035D0001AF103041AD089F803C00EF1040E04375F
:1035E0000430165C202ECCD1CDE700BF02EB000EDC
:1035F0001FE000BFDDF8088009F1010E4FF0000C5C
:1036000019E000BF09F1020E13E000BF0EF1030E36
:103610000FE000BF39460CE00EF1010E791C08E006
:103620000EF1020EB91C04E0019909F1030E0844E1
:10363000C11CDDF80880B8F1080F80F0B180A94204
:1036400080F0C280222E21D10EF1010203A840F8A1
:1036500028209EF80170481C04E000BF12F8017F8A
:1036600001460130A8424FF0000338BF0123222F4A
:1036700044D0A84242D25C2FF0D1134613F8017F08
:10368000222F04BF1A46881CE8E700BF03A840F8B1
:1036900028E02846A94288BF08460A1A08F101080E
:1036A000541C00201EF80070092F22D0202F20D09B
:1036B000171800F08C800EEB00067378092B25D0CC
:1036C000202B23D0231800F08280B378092B21D03F
:1036D000202B1FD0BB1C00F07A80F378092B1DD063
:1036E000202B1BD0FB1C72D004301EF80070092F59
:1036F000DCD10EEB00020F1813E000BF002B08F125
:10370000010864D002F801CB8F1C0CE00844721C45
:10371000471C06E00844B21C871C02E00844F21C67
:10372000C71CAF4253D2AF42FFF41CAF4FE000BF03
:1037300009F10309B9F1000F7FF4D6AE00201BF8A0
:10374000001041F02001202917D00BEB00014A782E
:1037500042F02002202A13D08A7842F02002202A48
:1037600010D0CA7842F02002202A0DD004301BF875
:10377000001041F020012029E7D1584405E000BFA6
:10378000481C02E0881C00E0C81C002101701CA03D
:10379000594600F0EDFE4FF0FF300BB0BDE8F08F62
:1037A0000EA000F0E5FE03A8041F14A5464654F839
:1037B000041F284600F0DCFE013EF8D146F2E85036
:1037C000C0F6000000F0D4FEB8F1000FB6D0009AA9
:1037D00003A9404690470BB0BDE8F08F546F6F20AF
:1037E0006D616E7920617267732021205765206FAB
:1037F0006E6C79205573653A0A000000257320002D
:1038000025733A20636F6D6D616E64206E6F742056
:10381000666F756E642E0A002DE9F04381B046F2A2
:103820003970C0F6000000F0A3FE40F2F80040F24C
:10383000FC09C2F20000C2F200090768D9F8005082
:10384000AF421DD246F2607446F25478C0F60004CE
:10385000C0F6000803E000BF0C37AF4210D23E684C
:10386000214630460622FCF748FD0028F4D17A684C
:10387000B11D404600F07CFED9F80050ECE700BFD7
:1038800046F2E850C0F6000000F072FE002001B0E1
:10389000BDE8F0830120704704A400BF204600F07B
:1038A00067FE4FF47A7001F04BFDF7E7E6ADA3E554
:1038B0009CA8E8BF90E8A18C3A6F6C65640A000090
:1038C0002DE9F04F8AB0059115990FF2D4464F06B5
:1038D0000FF2E04858BFB046CE06DDE9134948BFB5
:1038E00021F00101CE074FF0300A08BF4FF0200A47
:1038F0008E070DD400270197002701250097002A85
:1039000000F09A80CDE90251CDF810A013E000BF7D
:10391000B2F1FF3F06DD4E0700F186800E07E9D5C4
:10392000202782E001270197002702972D27CDE964
:10393000031A524200974CF6CD494FF0000BCCF6DB
:10394000CC490DF1180A00BFA2FB09561409F5086D
:1039500002F00F0705EB850C25460A2B04BFF5087E
:10396000A2EB4C0718F80770002D0AF80B7049D02D
:10397000A5FB097C04F00F07140ACE464FEADC06CB
:10398000A14606EB86060A2B04BF4FEADC09A5EB2D
:10399000460718F807500AEB0B0CB9F1000F59460F
:1039A0008CF8015032D0A9FB0E5604F00F05140B11
:1039B0005146F708A24607EB87070A2B04BF4FEAD8
:1039C000D60AA9EB470518F80550BAF1000F8CF894
:1039D00002501FD0AAFB0E5604F00F04120CF5087B
:1039E00005EB85050A2B04BFF208AAEB450418F87D
:1039F0000440F1460BF1040B002A8A468CF8034080
:103A0000A2D109E00BF1010B06E000BF0BF1020BA4
:103A100002E000BF0BF1030BDDF810A0DDE902515D
:103A2000DDE913490DE000BF2B2700970025012792
:103A30000197002A7FF466AF30228DF818204FF0EE
:103A4000010BDDF814E0CB454B46C8BF5B4611F0D7
:103A5000110FA4EB03025FD006462DB976453CBF9B
:103A600000983070013A0136C80631D4551EC0F2B4
:103A70008D8012F0030700F09580764538BF86F8F8
:103A800000A0012F06F1010040F09680023A0646A0
:103A9000032DC0F08B80101D764506F1010238BF62
:103AA00086F800A0724538BF82F800A0B21C7245AB
:103AB00038BF82F800A0F21C7245A0F1040038BFA4
:103AC00082F800A0032806F10406E5DC4FF0FF327F
:103AD0003046CB455EDAA3EB0B076FEA0B0617F017
:103AE000030703EB060C57D070453CBF302404702D
:103AF0005D1E012F00F1010409D07445A3F10205F8
:103B00003CBF30262670022F00F102046CD1204603
:103B1000BCF1030F73D28BE00027002AC8BF012736
:103B2000019E3740D71B7A1E96DB17F0030C51D04D
:103B300070453CBF20240470BCF1010F00F1010668
:103B400040F00481023F3046032A46D33A1D202626
:103B5000704500F1010738BF0670774538BF3E70E9
:103B6000871C774538BF3E70C71C7745A2F1040219
:103B700038BF3E70032A00F10400E9DC4FF0FF3249
:103B80000646002D3FF46AAF6EE700BF30462A4676
:103B9000CB45A0DB04464BE01D46BCF1030F2ED203
:103BA00046E000BF2A46032DBFF475AF4FF0FF3249
:103BB000CB45FFF690AFEDE7704538BF80F800A029
:103BC000022F06F1020040F0D180033A0646032D91
:103BD000ECD360E71746032AB8D24FF0FF32002D2E
:103BE0003FF43CAF40E700BF03307445A3F1030549
:103BF0003CBF302323700446BCF1030F18D330239D
:103C0000044600BF744504F1010038BF23707045BD
:103C100038BF0370A01C704538BF0370E01C7045AE
:103C2000A5F1040538BF0370AB4504F10404E9DBDA
:103C3000B9F1000F35D006A8023807E0ABF1040B4C
:103C40000BF10403042B04F104042AD9744503D2B4
:103C500000EB0B035B782370BBF1020F04F101034F
:103C60001EDB73453CBF10F80B701F70BBF1030FD8
:103C700004F1020314D3734504D200EB0B0717F8C9
:103C8000017C1F70BBF1040F04F1030308D37345DB
:103C9000D4D200EB0B0717F8027C1F70CEE700BFF1
:103CA0001C46012A12DB12F00307A2F1010311D016
:103CB00074453CBF20202070012F04F101000DD17C
:103CC0001A460446032B3ED322E000BF20460AB02A
:103CD000BDE8F08F032B36D31AE000BF7045A2F188
:103CE00002063CBF20250570022F04F1020005D119
:103CF00032460446032B26D30AE000BF0334704546
:103D0000A2F103023CBF202707702046032B1AD3E1
:103D1000013A2023204600BF704500F1010738BF5B
:103D20000370774538BF3B70871C774538BF3B70C1
:103D3000C71C7745A2F1040238BF3B7012F1020F95
:103D400000F10400E8D30AB0BDE8F08F76453CBF2F
:103D500020243470BCF1020F00F1020612D1033F9F
:103D60003046032AFFF439AFF0E600BF0336704552
:103D700038BF80F800A0043A3046032DBFF48BAE64
:103D800014E700BF764503D22C4620253570254622
:103D90000330043F0646032ABFF4D8AE1DE700BF38
:103DA00030313233343536373839616263646566B1
:103DB0000000000030313233343536373839414273
:103DC0004344454600000000B0B501FB00F4204626
:103DD00000F0E8FB054620B128460021224600F00D
:103DE00039FD2846B0BD0000B0B546F2787446F201
:103DF0007070C0F60004C0F60000A04228BFB0BD3D
:103E000046F27075C0F6000555F8040B8047A542D0
:103E1000FAD3B0BD80B5FCF7D7F940F2D801C2F2B1
:103E200000014A8801324A80BDE88040FCF7D0B9E1
:103E3000B0B5FCF7C9F940F2D805C2F200056988AF
:103E40000446481E01B20029688005DD2046BDE811
:103E5000B040FCF7BDB900BF002068802046FCF7E9
:103E6000B7F96868002808BFB0BDFCF7ADF96988EC
:103E700004460029EAD1A868FEF762F8421E44F21F
:103E80008800C2F2000050F832106868A1F11403F3
:103E90009842DBD02A7044F200026B60C2F200024A
:103EA00012781C3001F1080132B1FCF794F9204678
:103EB000BDE8B040FCF78CB9FCF78DF92046BDE8B1
:103EC000B040FCF785B900002DE9F041002857D03B
:103ED00040F2A007C2F2000704467868A0424FD81B
:103EE000B868A04298BFBDE8F08107F118084046C5
:103EF0004FF0FF31A4F10C0600F0AEFE34F80A0CCE
:103F000018B13088B0F5F55F0AD025A000F030FB7D
:103F100034F80A2C34F80C3C28A0314600F028FB79
:103F20004FF4F55044F80C0CD7F80CC0B44584BFDE
:103F3000FE60B44654F8082C78683D691318F11AED
:103F4000294439610FD0598869B9B9688B420AD0C0
:103F50009C4504BFFE60B4465A6844F8082C596872
:103F6000331A01448B6054F8043CC518B54201D0A3
:103F7000698839B14046BDE8F04100F043BE00BF5A
:103F8000BDE8F081B44508BFFD606A6054F8081CC4
:103F9000084483604046BDE8F04100F033BE00BFF6
:103FA000746F2066726565206120626164206461BF
:103FB000746120626C6F636B3A0A00006D656D3A44
:103FC000203078253038782C207573656420666C35
:103FD00061673A2025642C206D6167696320636FF7
:103FE00064653A203078253034780A0040F2FC309D
:103FF000C2F200007047000040F2FC30C2F2000044
:1040000000F570507047000010B5FCF76BFEFDF72F
:1040100019FFFDF753FFFDF7C7F844F6D351C1F27E
:104020006201A0FB01018809FDF7C6FAFFF7DCFE7B
:10403000FFF7DCFF0446FFF7DFFF01462046BDE83F
:10404000104000F045BF000080B540F21010C2F2F1
:10405000000000680168890606D40A2001F070F9A2
:10406000FF20C0B280BD00BF4068C0B280BD00006C
:10407000F0B581B004460D208DF8030040F2101019
:10408000C2F20000002180F84010204600F0BEFE81
:10409000E0B140F210160546C2F200060DF103072A
:1040A0000AE000BF3046214601220123FDF71EFD34
:1040B000013D04F1010409D020780A28F2D13046EC
:1040C000394601220123FDF711FDEBE701B0F0BDF8
:1040D00010B540F2F831C2F200010968044621B17E
:1040E00020468847002808BF10BD216C46F2DD50ED
:1040F000C0F6000000F03CFA616A46F29C50C0F63F
:10410000000000F035FAA16A46F2A950C0F600009E
:1041100000F02EFAE16A46F2B650C0F6000000F058
:1041200027FA216B46F2C350C0F6000000F020FAD7
:10413000616846F2D050C0F6000000F019FAA1689C
:10414000C4A000F015FAE168C6A000F011FA2169D8
:10415000C8A000F00DFA6169CAA000F009FAA169CF
:10416000CCA000F005FAE169CEA000F001FA216AC6
:10417000D0A000F0FDF9616BD2A000F0F9F9A16BBD
:10418000D4A000F0F5F9E16BD6A000F0F1F92078A9
:10419000400707D446F2F640C0F6000000F0E8F908
:1041A0000BE000BF01F0F8F8014646F21050C0F6EF
:1041B000000000F0DDF9FEF799FB4EF62954CEF22F
:1041C0000004D4F80300800705D546F27A50C0F603
:1041D000000000F0CDF9D4F80300400040F1F88071
:1041E000207830B346F24E50C0F6000000F0C0F91F
:1041F000217846F26160C0F6000000F0B9F920783D
:10420000C00745D1207880074BD42078400751D48F
:104210002078000757D42078C0065DD494F90000B8
:10422000B0F1FF3F60DD46F2E850C0F6000000F05C
:104230009FF914F8010C002800F0958046F22D50EB
:10424000C0F6000000F094F914F8011C46F2776003
:10425000C0F6000000F08CF914F8010CC00751D131
:1042600014F8010C800757D414F8010C00075DD432
:1042700014F8010CC00663D414F9010CB0F1FF3F2F
:1042800069DD46F2E850C0F6000000F071F96AE01E
:1042900046F24C60C0F6000000F06AF92078800712
:1042A000B3D546F24160C0F6000000F061F9207815
:1042B0004007ADD546F23F60C0F6000000F058F967
:1042C00020780007A7D546F23560C0F6000000F060
:1042D0004FF92078C006A1D586A000F049F994F9DD
:1042E0000000B0F1FF3F9EDCD4F80F1046F25A50A8
:1042F000C0F6000000F03CF914F8010C00289DD134
:1043000031E000BF46F21060C0F6000000F030F966
:1043100014F8010C8007A7D546F20660C0F600002D
:1043200000F026F914F8010C0007A1D546F234601C
:10433000C0F6000000F01CF914F8010CC0069BD573
:1043400046F22B60C0F6000000F012F914F9010CDF
:10435000B0F1FF3F95DCD4F80B1046F26A50C0F67E
:10436000000000F005F9B4F8010088B346F24050AF
:10437000C0F6000000F0FCF8B4F8011046F28D60C1
:10438000C0F6000000F0F4F8B4F80100C0072DD129
:10439000B4F80100800733D4B4F80100400739D4E1
:1043A000B4F8010000073FD4B4F80100C00545D4BB
:1043B000B4F80100800505D546F21A60C0F6000089
:1043C00000F0D6F846F2E850C0F6000000F0D0F851
:1043D000D4F80300B0F1FF3F06DC46F28F50C0F680
:1043E000000000F0C5F800BFFEE700BF46F25560D0
:1043F000C0F6000000F0BCF8B4F801008007CBD58F
:1044000046F2FC50C0F6000000F0B2F8B4F801002B
:104410004007C5D546F2EA50C0F6000000F0A8F803
:10442000B4F801000007BFD546F22560C0F60000D1
:1044300000F09EF8B4F80100C005B9D546F2F1507D
:10444000C0F6000000F094F8B4F801008005B3D481
:10445000B8E700BF7230353A203078253038780A16
:10446000000000007230363A203078253038780A63
:10447000000000007230373A203078253038780A52
:10448000000000007230383A203078253038780A41
:10449000000000007230393A203078253038780A30
:1044A000000000007231303A203078253038780A28
:1044B000000000007231313A203078253038780A17
:1044C000000000007231323A203078253038780A06
:1044D00000000000206C723A203078253038780ACD
:1044E000000000002070633A203078253038780AC8
:1044F0000000000053544B455252200004324BF64A
:10450000EF6C22F00702CDF6AD6C42F840CDC2E967
:1045100001CCC2E903CCC2E905CCC2E907C1002144
:104520004FF0807CC2E90D301046C2E90911C2E9A2
:104530000B11C2F83CC0704780B5FBF745FE44F252
:104540000001C2F200010A7801320A70BDE8804021
:10455000FBF73EBE80B5FBF737FE44F20001C2F226
:1045600000010A78013A0A70BDE88040FBF730BECE
:1045700083B010B581B044F20804844603A8C2F2A7
:1045800000040EC003AB20467F216246009301F079
:10459000A9F92046FFF76CFD01B0BDE8104003B05B
:1045A000704700002DE9F04F81B0002800F08380B3
:1045B00040F2A009C2F200090330D9F8001020F03F
:1045C0000308884577D809F1180B58464FF0FF319A
:1045D000B8F10C0F98BF4FF00C0800F03DFBD9F874
:1045E0000CE0D9E900CAAEEB0A02ACEB0807BA420C
:1045F0005ED20AEB02052B4633F8020F2E4656F820
:10460000044F20B902F10C00211A414558D2BC4296
:104610004ED20AEB04052B4633F8020F2E4656F80D
:10462000042F20B904F10C00111A414520D2BA42DE
:104630003ED20AEB02052B4633F8020F2E4656F8FF
:10464000044F20B902F10C00211A414538D2BC4276
:104650002ED20AEB04052B4633F8020F2E4656F8ED
:10466000042F0028C3D104F10C00111A4145BED318
:10467000CDF800B0A346144608F11802914226D3A3
:1046800040440AEB00024FF4F5574AF80070C2E9C3
:10469000014B3060526801240CF10C07BA421C80B7
:1046A0001CBF52449060D9F8100008F10C0114E0CE
:1046B000584600F0A7FA002001B0BDE8F08F00BF17
:1046C000CDF800B0934608F118029142D8D20120EB
:1046D000D9F810101880A4EB0B00D9F8142001446D
:1046E0008A420098C9F8101038BFC9F814104FF466
:1046F000F551AE45298030D1BEF8021069B3D9F822
:104700000820724529D0DEF804100AEB010EBEF82D
:104710000210002918BF72451DD0DEF804100AEB04
:10472000010EBEF80210002918BF724513D0DEF842
:1047300004100AEB010EBEF80210002918BF7245E2
:1047400009D0DEF804100AEB010EBEF802100029B1
:1047500018BF7245D7D1C9F80CE000F053FA05F143
:104760000C0001B0BDE8F08FB0B5814214D28B18B7
:10477000834211D9002A47D000EB020E12F0030148
:10478000A2F1010C4FD013F8014D01290EF8014D93
:104790003CD1624647E000BFB2B312F00304A2F17D
:1047A000010C09D08E461EF8015B0346012C03F86C
:1047B000015B05D1624613E08E46034610E000BF60
:1047C0004B78022C437005D1023A01F1020E831C92
:1047D00006E000BF01F1030E8978033AC31C817023
:1047E000BCF1030F38BFB0BDAEF10401043B00BF04
:1047F00011F8045F043A03F8045F4D785D708D781A
:104800009D70CD78DD70F3D1B0BD00BF13F8014DC0
:1048100002290EF8014D01D1023A04E013F8011DFE
:10482000033A0EF8011DBCF1030FEDD3AEF1040104
:10483000023B00BF5C78043ACC701C788C7013F893
:10484000014C4C7013F8024CA3F1040301F8044925
:10485000F0D1D9E770B5042A06461BD316F0030041
:1048600018D1C8B24FF00133102A00FB03F313D361
:10487000A2F1100C012000EB1C1010F003000DD071
:104880000128C6E90033B360F36009D106F11000D6
:10489000624616E0304650E030462EE0304610E0EA
:1048A0000228C6E90433B361F36103D106F12000A5
:1048B000203A06E006F13000303AC6E90833C6E98E
:1048C0000A33BCF1300F16D300F14004403AC0E97E
:1048D0000033C0E90233C0E90433C0E90633C0E95C
:1048E0000833C0E90A33C0E90C33C0E90E330F2A9C
:1048F0002046E9D82046042A1FD30446151F042D5C
:1049000040F8043B18D3A2F10805042D63600DD3D1
:10491000A2F10C05042DA3600CD304F11000103A91
:10492000E360032A0446E9D807E000BF04F1080069
:1049300002E000BF04F10C002A4622B1CBB21146BE
:104940001A46FBF725FD304670BD00002DE9F04109
:10495000884640F20C01C2F200010A780546824204
:104960000C460AD00C4614F8100FA84205D011F8D6
:10497000200FA84218BF00210C46E068FFF712FE86
:104980004FF00007C0B1E26800210646FFF762FF62
:104990003046414608223572777200F055FAFBF72F
:1049A00013FC54F8041F324642F80C1F4A60226080
:1049B0003461FBF70DFC37463846BDE8F081000056
:1049C00010B5044600202072FBF7FEFB2246216949
:1049D00052F80C3F5960216922610B601260FBF7AD
:1049E000F7FB2046BDE81040FFF76EBA10B504464D
:1049F00000202072FBF7E8FB54F80C1F62684A6045
:104A000062681160C4E90044BDE81040FBF7E0BBF8
:104A100040F20C02C2F200021178814211460AD023
:104A2000114611F8103F834205D012F8201F814231
:104A300018BF00221146084670470000F0B581B04B
:104A40000E4640F20C01C2F2000115460A780446F7
:104A5000B2420F460AD00F4617F8100FB04205D0E9
:104A600011F8200FB04218BF00210F46FFF7D2F90E
:104A7000043738460068B84208D00068B84205D00C
:104A80000068B84202D00068B842F3D1FFF7D0F90D
:104A900046F08000207220462946082200F0D4F912
:104AA000FBF792FB396844F80C1F4C603C60676070
:104AB00001B0BDE8F040FBF78BBB0000007AC009F5
:104AC00070470000B0B5FBF77FFB40F2D805C2F29B
:104AD00000056988044629B12046BDE8B040FBF7CF
:104AE00077BB00BFA868FDF72BFA44F288010138B4
:104AF000C2F2000151F830106A68A1F114039A4221
:104B0000EAD0287044F200006B60C2F20000037823
:104B100002F11C0001F1080133B1FBF75CFB2046F8
:104B2000BDE8B040FBF754BBFBF755FB2046BDE8A2
:104B3000B040FBF74DBB000010B50446FBF744FB4B
:104B400094F8341094F8352001F0F001013184F824
:104B5000341044F28801C2F2000101EBC2014A683C
:104B600040F2D80C04F11403C2F2000C1360A261ED
:104B70004B60A26BDCF80830616143EA0201CCF8BB
:104B80000810BDE81040FBF723BB0000B0B5054698
:104B9000FBF71AFB294651F8142F4B6853604B68FA
:104BA00049601A6091F8212044F288030960C2F23A
:104BB000000353F8324003EBC202944204D0BDE834
:104BC000B040FBF705BB00BF40F2D802C2F20002C2
:104BD000A96B936823EA01019160BDE8B040FBF73F
:104BE000F7BA000070B515460A4602211C46064673
:104BF000FFF724FF06F11400C6E905000020B58385
:104C0000747270BDB0B50546FBF7DEFA2A4652F85D
:104C1000141F044691420BD0A1F1140000F098FB40
:104C20002046FBF7D5FAFFF74DFF0020B0BD00BFCF
:104C3000A88B4FF6FF71884206D12046FBF7C8FAD1
:104C40006FF00200B0BD00BF0130A8832046FBF723
:104C5000BFFA0020B0BD00002DE9F04381B08946C5
:104C600007460091FBF7B0FAB98B804641B1481E68
:104C7000B8834046FBF7ACFA002001B0BDE8F083F2
:104C8000B9F1000F3ED000F087FB054600202863F5
:104C90007E7A284607F1140400F0EEFBD6B3012E0D
:104CA0003FD120460068A04234D095F8351090F8E6
:104CB000212091421AD30068A0422BD095F83510DC
:104CC00090F82120914211D30068A04222D095F89B
:104CD000351090F82120914208D30068A04219D0E5
:104CE00095F8351090F821209142DBD21438826972
:104CF00000F1140105F114031360AA618361696175
:104D00000FE000BF4046FBF763FA6FF0010001B00F
:104D1000BDE8F083B86905F114010160A861B961CB
:104D20006C61B9F1010F09DB05F144066A463046B2
:104D3000002100F0EFFC304600F052FD4046FBF74A
:104D400047FAFFF7BFFE286B002808BF002001B01C
:104D5000BDE8F08380B582B00AA0FFF709FC0CA083
:104D6000FFF706FC0FF24C0C15A0032101220523CE
:104D7000CDF800C0FFF7FCFB19A002B0BDE88040F1
:104D8000FFF7F6BB0A205C207C202F0A0000000001
:104D90002D205254202D202020202054687265613F
:104DA00064204F7065726174696E67205379737403
:104DB000656D0A004D617220203920323032350095
:104DC000202F207C205C202020202025642E25649C
:104DD0002E2564206275696C642025730A0000002A
:104DE0002032303036202D203230323020436F7068
:104DF0007972696768742062792072742D746872A0
:104E0000656164207465616D0A000000C11C00BF0B
:104E100011F8032C62B111F8022C6AB111F8012CBF
:104E200072B111F8042B002AF2D10439081A704724
:104E30000339081A704700BF0239081A704700BFCB
:104E40000139081A704700002DE9F0418046DAB3B5
:104E5000C2F1000C00234446CF5C08F80370DFB1B8
:104E60000CEB0306771C2FD2CF18787808EB0305DC
:104E70006870A8B1B01C27D0B878A870B0B1F01C89
:104E800022D0F878E870D8B1043304341CEB030066
:104E9000A2F10402E0D117E0601C511E0AD113E018
:104EA000A01C013A511E05D10EE000BFE01C023AE1
:104EB000511E09D0FBF774FA4046BDE8F08100BFEF
:104EC000033A281D511EF5D14046BDE8F08100008F
:104ED00021F003038C46192B01462DD3C81C20F06A
:104EE0000300A3F11802824226D310B5191A40F22A
:104EF000A004A1F11802C2F20004C4E900204FF49A
:104F0000F5520C394FF0000CC0E90021C0F808C080
:104F100041F6A060C0F201001A4642F80C0DA260F2
:104F200043E9021104F1180005A101220023FFF753
:104F300059FE6068E06010BD03A06246FFF718BB31
:104F400068656170000000006D656D20696E6974B0
:104F50002C206572726F7220626567696E206164D1
:104F6000647265737320307825782C20616E64201C
:104F7000656E64206164647265737320307825788F
:104F80000A00000010B544F28802C2F2000202F1E9
:104F90001800C2E9060002F1200002F1080302F144
:104FA0001001C2E9080002F14000C2E90233C2E97F
:104FB000041102F1280102F1300302F13804C2E9C0
:104FC000100002F16000C2E90A11C2E90C33C2E923
:104FD0000E4402F1480102F1500302F15804C2E903
:104FE000180002F18000C2E91211C2E91433C2E9CB
:104FF000164402F1680102F1700302F17804C2E97B
:10500000200002F1A000C2E91A11C2E91C33C2E972
:105010001E4402F1880102F1900302F19804C2E9F2
:10502000280002F1C00040F2D80EC2E92211C2E904
:105030002433C2E9264402F1A80102F1B00302F1CF
:10504000B804C2E9300002F1E000C2F2000EC2E989
:105050002A11C2E92C33C2E92E4402F1C80102F13F
:10506000D00302F1D804C2E938001F204FF0000C31
:10507000C2E93211C2E93433C2E9364402F1E8012F
:1050800002F1F00302F1F8048EF800000EF10C00BA
:10509000AEF802C0C2E90022C2E93A11C2E93C33CB
:1050A000C2E93E44CEE901CCCEE9030010BD0000C8
:1050B00010B540F2D804C2F20004A068FCF740FF2B
:1050C00044F28801C2F2000101EBC00050F8080C64
:1050D000A0F1140108306160BDE81040FBF7A9B8E9
:1050E00040F2EC00C2F20000011DC0E9011170475E
:1050F000704700002DE9F04383B00F4601460120C0
:105100001D461646FFF722FC00283DD004462846DF
:10511000FFF748FA00283DD004F11401DDE90A98B0
:10512000C4E9051123212A46C4E90876C4E90A0521
:10513000FFF790FB04F120030FCB1A4445F2A513AF
:10514000043AC0F60003FFF7D9F945F2BD42E06129
:10515000002704F14400C0F600022146234684F8EB
:10516000369084F83590C4E90E78C4F840802763FF
:1051700084F83470C4E91C770097019700F016FB9F
:10518000204603B0BDE8F0830024204603B0BDE80C
:10519000F08300BF2046FFF713FC0024204603B035
:1051A000BDE8F08370B540F2DC00C2F20000056893
:1051B000FBF70AF80446FBF707F8296F064609B122
:1051C000284688473046FBF703F82846FFF7DEFC01
:1051D000042085F8340005F1440000F0CFFA284699
:1051E000FFF76CFC012809D12846FFF7FFFBFFF70A
:1051F00069FC2046BDE87040FAF7EABF40F2E400DF
:10520000C2F20000016845F8141F4D600560686037
:10521000FFF758FC2046BDE87040FAF7D9BF000000
:1052200040F2E406C2F2000603E000BF2046FAF7AF
:10523000CFFFFAF7C9FF31680446B142F6D0D1E991
:105240000020A1F1140550604B6848691A60C1E95B
:105250000011FEF739FE2846FFF7B2FBE6E7000033
:1052600010B584B044F288124FF48071C2F200028B
:1052700040F280341F20CDE90021C2F2000445F243
:1052800021224FF0200C029007A1C0F60002204618
:105290000023CDF80CC000F00BF8204604B0BDE8A8
:1052A000104000F0BBB800BF7469646C650000007A
:1052B0002DE9F04782B00DF1280A16460A46DDF8BE
:1052C00034909AE8800501211D460446FFF7B6FB9D
:1052D00004F11400C4E90500384623214246C4E91C
:1052E0000865C4E90A78FFF7B5FA04F120030FCB8B
:1052F0001A4445F2A513043AC0F60003FFF7FEF87E
:1053000045F2BD42E061002704F14400C0F600020E
:105310002146234684F836A084F835A0C4E90E79E6
:10532000C4F84090276384F83470C4E91C77009770
:10533000019700F03BFA002002B0BDE8F0870000C2
:1053400080B500F001F900F02DF8002080BD0000CC
:10535000B0B5044690F8340000F00F0002281CBFDE
:105360004FF0FF30B0BDFAF72FFF2246A16952F887
:10537000143F05465960A16904F144000B60A26125
:10538000126000F093FA2846FAF722FF2046FFF752
:10539000D3FB0020B0BD000040F2DC00C2F20000F0
:1053A00000687047F0B581B00090FAF70DFF40F249
:1053B000DC01C2F200010C68054694F8341001F0DB
:1053C0000F01012913D1FAF7FFFE06462046FFF729
:1053D000DDFB94F8340000F0F000023084F8340073
:1053E00004F1440000F062FA3046FAF7F1FE04F1ED
:1053F00044066A4630460021002700F08BF930460B
:1054000000F0EEF92846FAF7E3FEFFF75BFB206BAE
:10541000023008BF2763002001B0F0BDB0B50446DC
:1054200090F83600012184F8350001FA00F0A063FD
:10543000022084F83400FAF7C7FE2246A16952F828
:10544000143F05465960A16904F144000B60A26154
:10545000126000F02BFA2846FAF7BAFE2046FFF752
:105460006BFB40F2DC00C2F200000068002818BFAD
:10547000FFF728FB0020B0BDB0B5044690F834001B
:1054800000F00F0001281CBF4FF0FF30B0BDFAF74D
:105490009BFE05462046FFF779FB94F8340000F0A8
:1054A000F000023084F8340004F1440000F0FEF90A
:1054B0002846FAF78DFE0020B0BD000080B50246F8
:1054C000816952F8143F6FF0010C59608169C0F88E
:1054D00030C00B6082611260FFF72EFBBDE8804098
:1054E000FFF7F0BA10B5FAF76FFE40F2DC01C2F236
:1054F0000001096891F8342002F00F02012A1FD13F
:105500000A4652F814CF53689C4519D0CCF80430A1
:1055100091F835E044F28803C2F2000303EBCE03B6
:10552000D1F818E08A615C68CEF800C022608C6116
:105530005A604B61FAF74CFEFFF7C4FA002010BD29
:10554000FAF746FE002010BD002844BF4FF0FF30A0
:10555000704744F6D351C1F26201A0FB01239A09BE
:105560004FF47A7302FB1300584300F2E730A0FBBC
:10557000010102FB03F000EB9110704744F28C2014
:10558000C2F200000068704780B544F28C20C2F27D
:105590000000016801310160FFF7FEFE016C013976
:1055A000016403D0BDE8804000F008B8C16B01641D
:1055B000FFF798FFBDE88040AFF300802DE9F04F82
:1055C00083B00DF1040BCDE901BBFFF7D7FF054612
:1055D000FAF7FAFD40F2EC08C2F20008414651F831
:1055E000047F00908F4200F08F804FF6FE76C7F662
:1055F000FF7608F1040A18E05046D8F80010026857
:105600000131C8F8001017F80B1C57603A600760AA
:10561000786041F0010007F80B0C4846FAF7D8FD16
:10562000404650F8047F87426ED07869281AB0420D
:105630006AD8D7E9001048607A6817F80B0C116037
:1056400081073F605CBF00F0FE0007F80B0C01987B
:1056500047603860D7E902100197C7F804B088475F
:10566000FFF78CFF019905465945D9D0D7E90001CC
:10567000416079687F60086017F80B0C3F6000F0AC
:1056800003010329CCD100F0FE0007F80B0CFAF758
:105690009BFDD7E9001281464A6017F80B0C7A6827
:1056A00000F0FE0011603F607F6007F80B0CFFF711
:1056B00065FF3A69D8F808101044514578619BD0CD
:1056C000C243504603685C691444B44295D399427E
:1056D00015D0186844691444B44213D381420ED0E3
:1056E00003685C691444B442FFF487AF994206D062
:1056F000186844691444B44204D38142E2D1084694
:105700007BE700BF184678E70098FAF761FD03B021
:10571000BDE8F08F70B514460E460546FAF754FD05
:10572000042E07D8DFE806F0040A1018200000BF96
:1057300021686962FAF74CFD002070BD696A21603A
:10574000FAF746FD002070BD697A01F0FD0169722B
:10575000FAF73EFD002070BD697A41F002016972DE
:10576000FAF736FD002070BD697AC9070CBF002129
:1057700001212160FAF72CFD002070BD10B5044610
:10578000FAF722FD2246A16952F8143F5960A16937
:10579000A2610B60617A126001F0FE016172FAF79A
:1057A00017FD2046FFF722F9002010BD2DE9F0413A
:1057B00015460A46DDE906870A211C460646FFF71C
:1057C0003DF907F0FE007072002006F11401C6E9F1
:1057D0000511C6E90754C6E90980BDE8F08100005B
:1057E0002DE9F0410446FAF7EFFC264656F8141F5F
:1057F0008046726816F80B0C4A60726800F0FE0072
:1058000011603660766006F80B0CFFF7B7FE40F2C9
:10581000EC0CC2F2000C3169DCF808700CF10402E7
:105820000144974271612CD04FF6FE75CB43C7F609
:10583000FF75116848691844A84222D38F4217D0D7
:105840000A6850691844A84214D3974214D01168CA
:1058500048691844A84214D38F420FD00A6850698F
:105860001844A8420CD39742E3D13A4609E000BF5E
:105870003A4606E00A4604E03A4602E03A4600E0CC
:105880000A46DCF8000011680130CCF80000607AAC
:105890004E6040F001006072404661611660A26196
:1058A000FAF796FC0020BDE8F081000010B5044630
:1058B000407AC00704BF4FF0FF3010BDFAF784FCF8
:1058C00054F8141F62684A6062686460116014F8DA
:1058D0000B1C246001F0FE0104F80B1CFAF778FCA5
:1058E000002010BD2DE9F04F85B09B46144600EB1B
:1058F000010A4FF020090391002948BF4FF0FF3AF9
:10590000049002E0411C013408462178252907D083
:10591000002900F0E983504538BF0170F2E700BF6D
:105920000234002114F8012CA2F12007102F00F2FC
:105930006D801023DFE807F00A6A6A0C6A6A6A6AF7
:105940006A6A6A0E6A126A6A100000BF082305E0DC
:10595000202303E0042301E0012300BF2278194340
:10596000A2F12007102F00F28D801023DFE807F04E
:105970000A8A8A0C8A8A8A8A8A8A8A0E8A128A8A79
:10598000100000BF082305E0202303E0042301E00A
:10599000012300BF62781943A2F12007102F00F203
:1059A00099801023DFE807F00A96960C9696969653
:1059B0009696960E96129696100000BF082305E064
:1059C000202303E0042301E0012300BFA278194350
:1059D000A2F12007102F00F285801023DFE807F0E6
:1059E00010828212828282828282820E820A828265
:1059F000140000BF1943043494E700BF0423F9E7FF
:105A00000823F7E72023F5E70123F3E7A31E013C72
:105A1000A2F13007092F3AD80234002606EB86039C
:105A200002EB430314F8012CA3F13006A2F1300776
:105A3000092F5FD806EB860302EB43032278A3F11C
:105A40003006A2F13007092F56D806EB860302EB89
:105A500043036278A3F13006A2F13007092F00F268
:105A6000A38006EB860302EB4303A278A3F1300682
:105A7000A2F130030A2B04F10404CFD3023C2E2AF6
:105A80003CD018E0631EA2F13007092FC4D92A2A9E
:105A90000CD15BF8046B9C1CB6F1FF3FDCBF764277
:105AA00041F0100122782E2A28D004E022784FF00D
:105AB000FF362E2A22D04FF0FF3E42F004036C2B1B
:105AC00040F07E8014F801CFACF12505532D40F253
:105AD0007E80E5E023460134A2F13007092FD6D8B5
