:020000040800F2
:10000000984F0020E1010008A5440008C50200083F
:10001000A1440008890E0008A55000080000000057
:10002000000000000000000000000000F3010008D4
:100030001D150008000000004F020008754E000862
:10004000FB010008FB010008FB010008FB010008A0
:10005000FB010008FB010008FB010008FB01000890
:10006000FB010008FB010008FB010008FB01000880
:10007000FB010008FB010008FB010008FB01000870
:10008000FB010008FB010008FB010008FB01000860
:10009000FB010008FB010008FB010008FB01000850
:1000A000FB010008814F0008FB010008FB0100086C
:1000B000FB010008FB010008FB010008FB01000830
:1000C000FB010008FB010008FB010008FB01000820
:1000D000FB010008FB01000899500008FB01000823
:1000E000FB010008FB010008FB01000800F002F81A
:1000F00000F067F80AA090E8000C82448344AAF15B
:100100000107DA4501D100F05CF8AFF2090EBAE858
:100110000F0013F0010F18BFFB1A43F0010318473B
:10012000BCC00000DCC000000A444FF0000C10F816
:10013000013B13F0070408BF10F8014B1D1108BF65
:1001400010F8015B641E05D010F8016B641E01F805
:10015000016BF9D113F0080F1EBF10F8014BAD1C55
:100160000C1B09D16D1E58BF01F801CBFAD505E073
:1001700014F8016B01F8016B6D1EF9D59142D6D3CD
:10018000704700000023002400250026103A28BFF5
:1001900078C1FBD8520728BF30C148BF0B607047F9
:1001A00066290BF04F80002070471FB500F070FCEF
:1001B00004000020002109F0F7FFE0601FBD10B52A
:1001C00010BD00F065FD1146FFF7EFFF00F0D6FD12
:1001D00000F083FD03B4FFF7F2FF03BC00F0C6FD9F
:1001E0000948804709480047FEE7FEE7FEE7FEE7CB
:1001F000FEE7FEE7FEE7FEE7FEE7FEE70448054907
:10020000054A064B704700007D4F0008ED000008CE
:1002100098490020984F0020984B0020984B0020D0
:10022000EFF3108072B6704780F310887047324A3F
:100230001368012B04D04FF0010313602F4A1060A4
:100240002F4A11602F484FF0805101607047EFF343
:10025000108272B62848016891B14FF00001016028
:100260002648016829B1EFF3098121E9F00F006800
:100270000160234909680968B1E8F00F81F3098832
:1002800082F310884EF0040E70471D4908601B4928
:100290004FF00000086018494FF0010008601A484C
:1002A0001A49D0F8002041EA0201016015484FF0D8
:1002B0008051016016480068006880F3088861B6C4
:1002C00062B670471EF0040F0CBFEFF30880EFF327
:1002D000098020E9F00F40F804ED1EF0040F0CBF78
:1002E00080F3088880F3098800B507F069F95DF8A4
:1002F00004EB4EF0040E70478C48002000460020AE
:100300000846002004ED00E020ED00E00000FFFFC3
:1003100008ED00E00FB41CB50C0007AA009007D050
:100320004142A14202D32044401E01E04FF0FF3081
:10033000074B7B4469460190069800F08EFB002134
:10034000002C01D0009A11701CBC5DF814FB000059
:100350004B0700002DE9F0474FF0000A894604469C
:10036000C0F820A02046E1688847002876D02528DC
:1003700006D0D4E901219047206A401C2062F1E7B1
:10038000E168204600258847C4F81CA006460027DF
:10039000C4F818A02A2E09D0304609F0FDFE38B363
:1003A00004EB8708303EC8F8186019E059F8041BC0
:1003B000204604EB87029161E1688847012F0646D9
:1003C00018D1E069002820DA25F020051DE0D8F8D2
:1003D000180000EB800006EB40003038C8F8180029
:1003E0002046E1688847064609F0D6FE0028EED18F
:1003F000012F0AD02E2E08D12046E16888477F1CA5
:100400000646022F45F02005C4DBA069002803DA68
:10041000404245F00105A061E80701D025F0100534
:10042000B6B1A6F14100192802D8203645F400657E
:100430004A463146204625604D46FFF7B1FE58B189
:10044000012806D0ED1D25F0070000F1080989E715
:1004500004E005F1040985E730468AE7206ABDE833
:10046000F08710B5431C02E010F8011B71B1810741
:10047000FAD14FF0013202C88C1A8C4314EAC2112F
:10048000F9D0C01A0A0603D0C01E10BDC01A10BD94
:100490000A0401D0801E10BD0902FCD0401E10BD10
:1004A00040EA010370B59B072ED14FF00136042AB4
:1004B0002AD308C810C99D1B9D43121F15EAC615F3
:1004C00017D0D8B2E1B2401A50EA056110D198B203
:1004D000A1B2401A50EA05410AD123F07F4024F02E
:1004E0007F41401A50EA052102D1180EA0EB14609A
:1004F00070BDA342DBD018BA21BA884201D90120CD
:1005000070BD4FF0FF3070BD0AB9002070BD10F80B
:10051000013B11F8014B63B1A3420AD1521E08D02E
:1005200010F8013B11F8014B1BB1A34201D1521E3F
:10053000EDD1181B70BD02F0FF0343EA032242EA2B
:10054000024200F002B84FF000020429C0F012800D
:1005500010F0030C00F01B80CCF1040CBCF1020F76
:1005600018BF00F8012BA8BF20F8022BA1EB0C014B
:1005700000F00DB85FEAC17C24BF00F8012B00F841
:10058000012B48BF00F8012B70474FF0000200B567
:10059000134694469646203922BFA0E80C50A0E8A6
:1005A0000C50B1F12001BFF4F7AF090728BFA0E854
:1005B0000C5048BF0CC05DF804EB890028BF40F820
:1005C000042B08BF704748BF20F8022B11F0804F62
:1005D00018BF00F8012B704710B5044610F0030F48
:1005E00008BF11F0030F40F015804FF0013E121FBD
:1005F000C0F20E8051F8043BA3EB0E0C2CEA030C66
:100600001CEACE1C08BF40F8043BF0D0A1F1040165
:1006100002F10402521E08DB11F8013B00F8013B15
:10062000002BF7D11146FFF78EFF204610BD704713
:10063000704770472DE9FF4F0C461E464FF0FF37BD
:100640008BB0D2E90001DDF860800A908A46C1F3E0
:100650000A5505B93D46002108464FF00000BAF1A1
:10066000000F00F4400005DA00EB80004FF4400179
:1006700001EA50004FEA9059B9F1010F00DDB94687
:100680000A9850EA4A000ED044F61050A5F2FF3501
:1006900045432F14B8F1000F1ED07542291E1EDDF0
:1006A000C9F100021CE0B8F1010F4FF0000001D0C9
:1006B000302103E0F24305E02154401CB042FBDB53
:1006C00030460022002121540B99C1F80880C1E96D
:1006D00000200FB0BDE8F08FBD1B6D1CDEE74A4661
:1006E00000DA694206A800F05DFA06AB93E807005D
:1006F00003AB83E8070050460A9909F070F98DE8CA
:100700000700A0F500501F3800900398002D0ADD67
:1007100042F21F014A460844002303A90390684699
:1007200009F0DAFB09E0A0F500504A461F38002323
:1007300003A90390684609F0E4FB8DE80700000474
:10074000000C03D04FF0FF30410800E01046B8F134
:10075000000F03D00022009215461EE0751E05D43E
:1007600000F09AF9303262556D1EF9D5B346012278
:10077000084302D000227F1C04E02078302801D1F9
:1007800000227F1E002A099784D01DE0112D07DA70
:1007900000F082F9303262556D1C50EA0102F5D149
:1007A000084302D00098C8B10EE00021681E05E0A1
:1007B000235C625C63542254401E491C8142F7DB77
:1007C000AB46A81B401E0990002004F80B000B98B4
:1007D000099AC0F80880C0E9002B7AE711264FF08B
:1007E000000857E72DE9F04F88460446D21D22F055
:1007F000070191B0D1E90001CDE90A0109F0B8FC87
:1008000002460B98C00F01D02D2007E02068810719
:1008100001D52B2002E0202101EAC000032A099023
:1008200001D0072A05DB03464146204600F07AF94D
:100830000BE12078800601D5E06900E00620B8F1E0
:10084000650F814606D0B8F1660F18D0B8F1670F72
:1008500070D131E00020B9F1110F009001DB1123BC
:1008600001E009F101030AAA01A90CA8FFF7E2FEC1
:10087000DDE90C70002609F10105834647E00120FF
:100880004B4600904FF000470AAA01A90CA8FFF7B9
:10089000D1FEDDE90DB00C995D46002610B909F1D5
:1008A00001000D18B9EB050003D4C0F1FF3609F1C2
:1008B0000105A5EB09002BE0B9F1010F01DA4FF0BA
:1008C00001090020B9F1110F0090484601DD112304
:1008D00000E003460AAA01A90CA8FFF7ABFEDDE978
:1008E0000C704D4600268346207800070AD4AB459D
:1008F00000DA5D4601A8012D04DD411911F8011C43
:10090000302907D04F4502DA17F1040F04DA01202D
:1009100082460FE06D1EEEE7002F02DCED1B3E4429
:1009200003E0781CA84200DD7D1CB81B00F1010A21
:100930004FF000472078000703D4AA4501DB4FF0B1
:10094000FF3A0021B7F1004F0DF143088DF8431035
:1009500024D002202B23002F01DA7F422D230A21ED
:10096000021EA0F1010000DC5FB197FBF1FC97FBD8
:10097000F1F201FB1C7C17460CF1300C08F801CD9C
:10098000EEE7A8F1010003702188090501D5452192
:1009900000E06521A0F1010800F8011C09980FA9E9
:1009A000A1EB0807FF1D00B10120411901EBEA701E
:1009B000A1693844081A401EA0612078C00602D4FC
:1009C0002046AFF30080099828B1D4E9012190476F
:1009D000206A401C20622078C00622D52046AFF352
:1009E00000801EE0002E04DBB34502DD01A8805D1F
:1009F00000E03020D4E901219047206A401C2062A9
:100A0000761CAAF101005FEA000A0AD100F040F862
:100A1000C0680168405CD4E901219047206A401C0D
:100A20002062281EA5F10105DCDC07E0D4E90121E4
:100A300018F8010B9047206A401C2062381EA7F16D
:100A40000107F3DC2046AFF30080032011B041E63C
:100A500001694A1C02610878704700B58FB0CDE982
:100A600001310021059105497944CDE90310114672
:100A70006846FFF76FFC0FB000BD0000E5FFFFFF09
:100A8000D1E900239A4202D2531C0B6010707047C8
:100A900000487047A005002030B5B0F10A0271F19E
:100AA00000034FEA900E4EEA817EB0EB0E0061EB40
:100AB00091014FEA101E4EEA017E10EB0E0041EB51
:100AC00011114FEA102E4EEA016E10EB0E0041EBB1
:100AD00011214FEA104E4EEA014E10EB0E0041EB91
:100AE0001141401841F100014FEAD00040EA417045
:100AF0004FEAD1014FEA810444EA907410EB80057B
:100B000044EB01046D1944EB0404521BA3414FF064
:100B1000000348BF0A3200D530BD401C41F100013E
:100B200030BD00002DE9F0411F4604460326016850
:100B3000072A01F4006004DB08B116A505E016A53C
:100B400003E008B115A500E015A521F01000206014
:100B5000A069C01EA0610FB1401EA0612046AFF386
:100B600000804FB1D4E9012138469047206A401CEB
:100B70002062C01C206206E0206AFAE7D4E9012165
:100B800015F8010B9047761EF8D22046AFF300808F
:100B9000BDE8F0814E414E006E616E00494E460048
:100BA000696E66002DE9F047814616468AB03548E1
:100BB00078440DC88DE80D0032487844801C03ACA1
:100BC0000DC884E80D0041F69B300844372190FBA6
:100BD000F1F290FBF1F5A5F1800501FB12041B3C3D
:100BE00002D56442012000E00020DFF898A0804692
:100BF0000027FA44AAF1BE0A0EE0E0070AD0324606
:100C0000684607EB470101230AEB810109F079F9F6
:100C10008DE8070064107F1C002CEED1194F7F4433
:100C2000AE3F19E0E80715D007EB04100DF1180AE4
:100C300090E80E008AE80E00C068F04201D19819D1
:100C400008903246012306A903A809F05AF903AB1C
:100C500083E807006D10641C002DE3D14FF0010301
:100C600032466946B8F1000F03A802D009F034F902
:100C700001E009F046F9C9E90001C9F808200AB005
:100C8000BDE8F08710A700000048704780050020ED
:100C90007546FFF7F9FFAE4605006946534620F05A
:100CA0000700854618B020B5FFF7A8FABDE8204038
:100CB0004FF000064FF000074FF000084FF0000B18
:100CC000AC46ACE8C009ACE8C009ACE8C009ACE887
:100CD000C00921F007018D46704710B50446AFF3F7
:100CE00000802046BDE81040FFF774BA4FF0013C89
:100CF00050F8042B51F8043B9A4221D1A2EB0C038B
:100D0000934313EACC1317D150F8042B51F8043B4A
:100D10009A4215D1A2EB0C03934313EACC130BD1E7
:100D200050F8042B51F8043B9A4209D1A2EB0C0372
:100D3000934313EACC13DBD04FF00000704700BFA1
:100D4000D01A01BAB1FA81F101F0180122FA01F0CA
:100D5000CB40DBB2C0B2C01AC1F120012CFA01F3C2
:100D6000D11A914311EAC311E6D170470149182005
:100D7000ABBEFEE7260002007047000080B582B0DF
:100D8000FFF74EFA06F0B8FB07F05CFA07F020FC1C
:100D900007F070FB0A2000904BF6996046F2D151A3
:100DA0004FF0140CC0F60000C0F6000100224FF412
:100DB0008063CDF804C007F015FC07F0A7FD07F02D
:100DC0000FFC07F0C5FC07F0EBFB002002B080BD74
:100DD000B0B582B004460020019021688A68D2072D
:100DE0004FD1886840F00100886040F26440C2F250
:100DF000000000684DF68361C4F21B31A0FB0101C5
:100E0000880C01900198A0B10198013801900198D7
:100E100078B1019801380190019850B101980138DA
:100E20000190019828B1019801380190019800289B
:100E3000EAD101F0B7F821688968C9071CD10546D5
:100E400003E000BF8068C0071AD101F0ABF8411B76
:100E500020680329F6D38168C907F3D1A06A40F05E
:100E60001000A062E06A40F00100E062002084F817
:100E70002400012002B0B0BD002002B0B0BD00BF10
:100E8000002002B0B0BD0000FEE70000B0B584B0A5
:100E900040F60004C4F20104002001210390CDE9D2
:100EA000001002906946204600F066FF20460121AE
:100EB00001F06CF890B100200546012004F04CFAD6
:100EC0002046012101F062F818B1C72D05F101009B
:100ED000F2D3C62D02D9012004B0B0BD20460121B5
:100EE00001F054F810B1002004B0B0BD002000BFE4
:100EF0000546012004F030FA2046012101F046F8B1
:100F000018B9EF2D05F10100F2D30020EE2D88BFB6
:100F1000012004B0B0BD0000F0B585B040F600047B
:100F2000C4F2010400250126022701A920460395E9
:100F3000CDE90166049700F01FFF20460121002241
:100F400001F02AF840F2EE2004F006FA20460121D2
:100F5000012201F021F80F2004F0FEF9FFF796FFBF
:100F6000CC2000F0FFF9442000F0FCF901A9204654
:100F7000CDE90166CDE9035700F0FEFE20460121D0
:100F8000002201F009F840F2EE2004F0E5F92046D5
:100F90000121012201F000F80F2004F0DDF9FFF734
:100FA00075FFCC2000F0DEF9BE2000F0DBF900F088
:100FB00051F8044600F04EF844EA002009F0B5FB71
:100FC0000023C3F6E473002209F052FC09F07EFB13
:100FD00005B0F0BDF0B589B0002541F218000395C9
:100FE000C4F20200016840F6000441F0040101600F
:100FF0000068C4F2010400F0040005900598012681
:10100000022701A92046CDE90166049700F0B4FE4D
:1010100020460121012200F0BFFF05A92046CDE9AD
:101020000566CDE9075700F0A7FE20460121002202
:1010300000F0B2FF40F2EE2004F08EF920460121CC
:10104000012200F0A9FF0F2004F086F9FFF71EFF30
:1010500009B0F0BD2DE9F04F89B040F60004022040
:10106000C4F201040DF114094FF0000A4FF0010B16
:10107000089020464946CDF81CA0CDE905BB4FF0AD
:10108000020800F079FE20460121002200F084FFD2
:10109000022004F061F920460121012200F07CFFCA
:1010A00005AF20463946CDE905BACDE907AA00F0DB
:1010B00063FE0C2004F050F92046012100F066FF89
:1010C000054600284FF0320018BF012504F044F90E
:1010D00020464946CDE905BBCDE907A84FF00208F7
:1010E00000F04AFE20460121002200F055FF0220B8
:1010F00004F032F920460121012200F04DFF204684
:101100003946CDE905BACDE907AA00F035FE0C2035
:1011100004F022F92046012100F038FF049032202B
:1011200004F01AF920464946CDE905BBCDE907A8E8
:101130004FF0020800F020FE20460121002200F0BE
:101140002BFF022004F008F920460121012200F0C3
:1011500023FF20463946CDE905BACDE907AA00F0BC
:101160000BFE0C2004F0F8F82046012100F00EFFE1
:101170000390322004F0F0F820464946CDE905BB43
:10118000CDE907A84FF0020800F0F6FD2046012146
:10119000002200F001FF022004F0DEF820460121C9
:1011A000012200F0F9FE20463946CDE905BACDE925
:1011B00007AA00F0E1FD0C2004F0CEF82046012142
:1011C00000F0E4FE0290322004F0C6F820464946C2
:1011D000CDE905BBCDE907A84FF0020800F0CCFD32
:1011E00020460121002200F0D7FE022004F0B4F8CE
:1011F00020460121012200F0CFFE20463946CDE9EC
:1012000005BACDE907AA00F0B7FD0C2004F0A4F858
:101210002046012100F0BAFE0190322004F09CF833
:1012200020464946CDE905BBCDE907A800F0A4FD5D
:1012300020460121002200F0AFFE022004F08CF8CD
:1012400020460121012200F0A7FE20463946CDE9C3
:1012500005BACDE907AA3E4600F08EFD0C2004F049
:101260007BF82046012100F091FE8046322004F0F8
:1012700073F80220089020464946CDF81CA0CDE91D
:1012800005BB4F4600F078FD20460121002200F00A
:1012900083FE022004F060F820460121012200F0C4
:1012A0007BFE20463146CDE905BACDE907AA00F01C
:1012B00063FD0C2004F050F82046012100F066FE8A
:1012C0008146322004F048F804983946002818BFB7
:1012D00002350398002818BF04350298002818BF6B
:1012E00008350198002818BF45F01005B8F1000F27
:1012F00018BF45F020050220B9F1000F18BF45F0D6
:10130000400508902046CDF81CA0CDE905BB00F0B3
:1013100033FD20460121002200F03EFE022004F0B1
:101320001BF820460121012200F036FE20463146FE
:10133000CDE905BACDE907AA00F01EFD0C2004F0A6
:101340000BF82046012100F021FE0446322004F073
:1013500003F8002C18BF45F08005E8B209B0BDE8DD
:10136000F08F00002DE9F04385B007464FFA80F872
:10137000002040F6000403900120C4F20104CDE9EE
:101380000100022501A92046049500F0F5FC204645
:101390000121002207F0010600F0FEFD0220002ED0
:1013A00008BF3C2003F0D8FF20460121012200F0B5
:1013B000F3FD3C204FF03C09002E08BF022003F053
:1013C000CBFF20460121002207F0020600F0E4FDD9
:1013D0000220002E08BF3C2003F0BEFF2046012162
:1013E000012200F0D9FD3C20002E08BF022003F0AE
:1013F000B3FF20460121002207F0040600F0CCFDD7
:101400000220002E08BF3C2003F0A6FF2046012149
:10141000012200F0C1FD3C20002E08BF022003F095
:101420009BFF20460121002207F0080600F0B4FDD2
:101430000220002E08BF3C2003F08EFF2046012131
:10144000012200F0A9FD3C20002E08BF022003F07D
:1014500083FF20460121002207F0100600F09CFDCA
:101460000220002E08BF3C2003F076FF2046012119
:10147000012200F091FD3C20002E08BF022003F065
:101480006BFF20460121002207F0200600F084FDBA
:101490000220002E08BF3C2003F05EFF2046012101
:1014A000012200F079FD3C20002E08BF022003F04D
:1014B00053FF20460121002207F0400600F06CFD9A
:1014C0000220002E08BF3C2003F046FF20460121E9
:1014D000012200F061FD3C20002E08BF022003F035
:1014E0003BFF20460121002200F056FDB8F1FF3FEE
:1014F000C8BF3C25284603F02FFF204601210122CA
:1015000000F04AFDB8F1FF3FC8BF4FF0020948465E
:1015100003F022FF05B0BDE8F08300007047000033
:10152000EFF3108072B600BFFEE7000010B581B087
:101530000022009290F82420012A03D102210846BB
:1015400001B010BD4B680122062B80F8242015D86D
:10155000026803EB8303A3F1050E1F23D2F834C006
:1015600003FA0EF40B682CEA040C03FA0EF444EAB6
:101570000C045463092B17D937E000BF02680C2B09
:1015800020D803EB8303A3F123041F23D2F830C038
:1015900003FA04FE0B682CEA0E0C03FA04F444EA86
:1015A0000C041463092B20D8D2F810C003EB4303BA
:1015B000072489689C402CEA040499402143116166
:1015C000002136E003EB8303A3F141041F23D2F88B
:1015D0002CC003FA04FE0B682CEA0E0C03FA04F488
:1015E00044EA0C04D462092BDED903EB4304D2F89D
:1015F0000CC0A4F11E0E0724896804FA0EF42CEA2C
:10160000040401FA0EF1214323F00104102CD160EF
:101610000ED142F20841C4F20101A1F10804A24234
:101620000ED0816A41F020018162012101E000BFFA
:101630000021002280F82420084601B010BD00BF20
:101640000A68120230D40A68102B42F400020A60C1
:101650002CD140F26441C2F2000109684DF6836268
:10166000C4F21B32A1FB0212910C01EB8101490073
:1016700000910099E1B10099013900910099C9B137
:101680000099013900910099B1B100990139009197
:10169000009999B1009901390091009900294FF002
:1016A0000001E8D1C5E700BF0021C2E70021C0E783
:1016B0000021BEE70021BCE70021BAE70021B8E71E
:1016C0000068C06C70470000B0B5002800F0A8802A
:1016D0000446806A20B121688868C0070BD114E0F5
:1016E0000020E06284F82400204600F09BF8216886
:1016F0008868C00709D0886820F00100886000F081
:1017000051FC21688A68D20726D1A06AC0063AD463
:10171000A06A41F2021290430230A062E069D4E96B
:10172000013240EA030C531EB3FA83F35D091346FA
:10173000B2F5807F18BF2B02207D257B01284CEA63
:10174000450030D135B3A56A45F02005A562E56AAC
:1017500045F00105E56226E0054602E08868C0071D
:10176000D3D000F01FFC401B21680328F6D3886803
:10177000C007F3D0A06A40F01000A062E06A40F019
:101780000100E062A06AA06A40F01000A06201209F
:10179000B0BD00BFD4F818C04EF60005CFF6FF75F7
:1017A00005EB4C352B434D68B2F5807F25F4694538
:1017B00043EA05034B608B684FF2FD75CFF6E17588
:1017C00003EA050343EA00038B6001D0012A07D135
:1017D00022690023CFF6F07303EB025201E000BF51
:1017E0000022CB6A23F470031A43CA62896840F668
:1017F000FE62CFF61F721140814207D10020E062E5
:10180000A16A012262F30101A162B0BDA06A40F0A9
:10181000100020F00200A062E06A40F00100E062E7
:101820000120B0BD80B586B0006842F60001C4F268
:10183000010188424FF00001CDE90411CDE9021108
:101840001ED042F20041C4F20101884239D141F276
:101850001800C4F20200016841F4007101600168DF
:1018600001F4007101910199016841F004010160E6
:10187000006800F0040001900198402017E000BFCC
:1018800041F21800C4F20200016841F48061016075
:10189000016801F4806101910199016841F004013E
:1018A0000160006800F0040001900198022002909D
:1018B0000320039040F60000C4F2010002A900F0EA
:1018C0005BFA06B080BD0000F0B581B000270D4680
:1018D0000446009700F066FB21688A68D20543D46D
:1018E00006464868C00503D4C86A10F4700F45D096
:1018F00040F26440C2F200000768022000F0DAFD06
:10190000216844F624130A69B7FBF0F0C2F292434F
:101910001A4206D1CA6844F62413C0F292031A424E
:101920005ED00A6942F29243C1F249231A4207D1BA
:10193000CA6842F29243C0F249031A4200F0C080E2
:101940000A6949F24923C0F224031A424FF0FC020B
:1019500057D1CF681F4208BF5422009B02FB00F7FB
:10196000BB4253D3C3E000BFA06A40F02000A06296
:1019700084F82470012001B0F0BD00BF0868800722
:1019800000F1B580681C00F0A880FDB908688007E8
:1019900072D50868800700F1AA80086880076BD5B7
:1019A0000868800700F1A3800868800764D508688C
:1019B000800700F19C80086880075DD50868800773
:1019C000E4D594E00868800700F1918000F0EAFA1D
:1019D000801B2168A842F5D908688007F2D44BE043
:1019E0000A6942F29243C1F249231A424FF0290296
:1019F00007D1CB6842F29247C0F249073B4208BF89
:101A00001422009B02FB00F7BB4270D2681C4FD02F
:101A100055BB0098B8422FD3009801300090009831
:101A2000B84264D20098B84226D3009801300090A2
:101A30000098B8425BD20098B8421DD3009801309C
:101A400000900098B84252D20098B84214D300983F
:101A5000013000900098B842DBD348E00098013094
:101A600000900098B84233D200F09CFA801BA84244
:101A7000F4D90098B842F1D2A06A40F00400A06204
:101A8000002084F82400032001B0F0BD009801304C
:101A900000900098B8422AD2009801300090009837
:101AA000B84224D20098013000900098B8421ED26B
:101AB0000098013000900098B842E7D317E000BFCB
:101AC0005422009B02FB00F7BB429FD30FE000BFF4
:101AD00021680CE00868800709D40868800706D4EC
:101AE000086880075CBF08685FEA8070F2D56FF015
:101AF00012000860A06A40F40070A062886800F4D8
:101B00006020B0F5602F01D1207B18B1002001B01A
:101B1000F0BD00BFA06A20F48070A062A06AC0047B
:101B2000F4D4A06A40F00100A062002001B0F0BD32
:101B300010B5044690F82400012804BF022010BD0F
:101B4000012084F824002046FFF742F920B100214B
:101B500084F8241010BD00BF42F2044C2068A16A32
:101B6000C4F2010C40F2013291430CF57F7201F591
:101B700080719042A16233D0A16A21F48011A162E8
:101B80004168490504D5A16A012363F30D31A162BF
:101B9000A16A0023C9044FF0000144BFE16A21F0AB
:101BA0000601E1626FF0020184F82430016081686F
:101BB00001F46021B1F5602F06D190420AD1DCF822
:101BC000001011F4702F05D0816841F480118160FC
:101BD000002010BD816841F4A0018160002010BD8B
:101BE000DCF8001011F4702FC6D0A16A41F4801106
:101BF000A162DCF800104905C5D4C9E7B0B50446B8
:101C000090F82400012804BF0220B0BD0121206803
:101C100084F824108168C90709D0816821F0010186
:101C2000816000F0BFF921688968C9070ED121469B
:101C300051F8280F41F2011220EA0202002042F07E
:101C400001020A60002184F82410B0BD054602E0BC
:101C50008068C007EBD000F0A5F9411B206803297C
:101C6000F6D38168C907F3D0A06A214640F010007E
:101C7000A06251F82C2F0120E1E70000014690F806
:101C80002100022816D10868D1E90FC3026822F0AA
:101C90000E020260026822F001020260012000FAD6
:101CA00003F2CCF8042081F821000020002281F802
:101CB00020207047042088630120002281F8202022
:101CC0007047000080B590F82110022924D10268E5
:101CD000116821F00E0111602F211368C4F2020176
:101CE0008A4240F20401C4F2020123F001031360AE
:101CF00016DD3023C4F202039A421DD04423C4F2FD
:101D000002039A421CD05823C4F202039A421DD106
:101D10004FF4803322E000BF04218163012080BDA5
:101D20000823C4F202039A420ED01C23C4F2020319
:101D30009A420BD1102311E04FF480730EE000BFE4
:101D40004FF480530AE000BF012307E001F1680C63
:101D50004FF08073624508BF4FF480130B60012180
:101D600080F82110426B002180F820100AB19047C2
:101D70000021084680BD00002DE9F04F82B041F2FD
:101D80000042C4F201020E680423904208BF0323FC
:101D9000002E009300F0F68040F2004C4FF6FF7EDC
:101DA0000022C4F2010C0124C1F2100E4FF0000A0F
:101DB0004FF0000947E000BF012502F00C040F2797
:101DC000A7402BEA070705FA04F43C4343F82640F2
:101DD000D1F804B040F20C455FEACB23DCF80830C0
:101DE00054BF23EA080343EA0803C4F20105CCF810
:101DF00008302B685FEA8B2454BF23EA080343EAC8
:101E000008032B605FEA8B34DCF8043054BF23EA0C
:101E1000080343EA08035FEACB34CCF80430DCF86B
:101E200000304FF0010454BF23EA080343EA0803DB
:101E3000CCF800300E680AF1010A36FA0AF302F112
:101E4000040200F09F8004FA0AF816EA080FF1D0A5
:101E50004B68734512DC122B56D8DFE803F0350BC4
:101E60004549555555555555555555555555554D46
:101E7000510000BFD1F80C9046E000BF4FF6FF754F
:101E8000C1F22105AB420FDC0025C1F21105AB42C6
:101E90001AD00025C1F21205AB4215D00025C1F2BF
:101EA0002105AB4210D02FE00025C1F22205AB4244
:101EB0000AD00025C1F23105AB4205D00025C1F2A0
:101EC0003205AB4220D100BF8B684BB1012B14BF50
:101ED000C0F81480C0F810804FF0080914E000BF6B
:101EE0004FF0040910E000BFCB6803F108090BE0D4
:101EF0004FF0000908E000BFCB6803F1040903E0DC
:101F0000CB6803F10C0900BF13460546BAF1080F70
:101F100024BF203B04352E680F279F40BE4309FA9B
:101F200003F333432B60CB79DB067FF583AF41F2BC
:101F30001804C4F2020423684FEA9A0643F001032E
:101F40002360236840F6000403F001030193019B22
:101F5000ACF57E7353F826B0C4F20104A0420FD052
:101F600040F60044C4F20104A0423FF425AF41F220
:101F70000004C4F20104009DA04208BF02251CE732
:101F800000251AE702B0BDE8F08F00008068084025
:101F900018BF012070470000002A08BF0904016132
:101FA0007047000044F69410C2F2000000687047C9
:101FB00070B5B8B3044690F83D0028B9002084F805
:101FC0003C00204600F05CF9242084F83D002068A5
:101FD000016821F001010160016841F400410160E4
:101FE000016821F40041016000F06AFC48F2804180
:101FF000C0F21E0140F60013D4F804E088424FF00E
:102000000001C0F23D0348F2A16C4FF0000238BF5E
:1020100001219842C0F2010C38BF0122E64538BFC9
:102020000A460AB1012070BD4DF68361C4F21B312E
:10203000A0FB01122168950C4B684FF4967623F0B3
:102040003F0343EA9243754344F6D3564B60C1F2D3
:1020500062060B6AA5FB0656B50923F03F03E64569
:1020600038BF950C6A1C1A430A62CA6948F2A06616
:102070004CF6FF73C0F20106B64522EA03020BD804
:1020800001384FEA4E03B0FBF3F001306FF31F301D
:10209000042898BF04201EE0A368013863B1192307
:1020A0000EFB03F3B0FBF3F001306FF31F3078B198
:1020B00000F5804008E000BF0EEB4E03B0FBF3F0EC
:1020C00001306FF31F3028B100F5004003E000BF7E
:1020D000012000E001201043C8610868D4E907230B
:1020E00020F0C000104318430860886848F2FF32AF
:1020F00004F10C0690434CCE18431043A569886048
:10210000C86820F0FF0030432843C860086840F0EA
:102110000100086000202021206484F83D10206325
:1021200084F83E0070BD00002DE9F04383B099466D
:1021300016460F460446FFF735FF94F83D10202958
:1021400020D10546206800BF8169890716D5FFF7B1
:1021500029FF411B20681A29F6D381698907F3D525
:1021600000202021206384F83D1084F83E00216C7B
:1021700041F02001216484F83C0003E094F83C1015
:10218000012903D1022003B0BDE8F083012284F8C5
:102190003C200368DDE90B180A9ADB0703D10368CA
:1021A00043F001030360036823F40063036021200C
:1021B00084F83D00402084F83E00002020646262E4
:1021C0006185608D394620850020CFF6FF70E06282
:1021D000204632464B46CDF80080019501F088FD3F
:1021E00020B1012003B0BDE8F08300BF208D98B975
:1021F000204641462A4601F0DFFD88B3206C0428C2
:10220000EFD12068016841F400710160012003B042
:10221000BDE8F0830004EBD0204641462A4601F099
:1022200085FF0028EAD1616A2268084610F8013B60
:102230001361238D6062581E2085678D013F67857D
:1022400057697F07E6D50704E4D048781061881CF9
:102250006062981E2085618D01396185DAE700BFD3
:102260002068016841F400710160202084F83D007D
:10227000002084F83E0084F83C0003B0BDE8F08301
:1022800010B586B045F200410068C4F2000100229A
:102290008842049202D006B010BD00BF41F218047B
:1022A000C4F20204206840F008002060206800F0BA
:1022B000080001900198C020029012200390032092
:1022C000059001F5384002A9FFF756FD606840F41B
:1022D00000106060606800F400100190019806B082
:1022E00010BD000040F2000044F69411C2F200005C
:1022F000C2F2000100780A681044086070470000CC
:1023000080B542F20000C4F20200016841F0100101
:102310000160032000F0BEF80F2000F005F800F087
:102320005BF8002080BD0000B0B586B041F2180116
:10233000C4F202010A68044642F400620A600968B5
:1023400001A801F4006101910199694600F090FA39
:1023500000F0CAFA4DF68361C4F21B31A0FB010103
:102360004FF0FF3000EB914140F61C0042F6004276
:10237000C2F20000C4F2010240F2E7330025C0E9D6
:102380000021C0E902530561856100F0F3FC0546B8
:1023900010B1284606B0B0BD40F61C00C2F20000E5
:1023A00000F0B4FD05460028F3D1192000F036F8FE
:1023B0000F2C0DD8192021460022002500F03EF8F0
:1023C00040F20400C2F200000460284606B0B0BD2E
:1023D0000125284606B0B0BD82B041F21800C4F213
:1023E00002000168022241F001010160016801F070
:1023F000010101910199416841F0805141604068BB
:1024000000F08050009000980420C4F201000168A0
:1024100062F31A61016002B070470000002848BFF3
:10242000704700F01F01012202FA01F14EF2001282
:102430004009CEF2000242F82010704710B54EF667
:102440000C5CCEF2000CDCF80030C3F3022E8EF0F0
:102450000704042C28BF0424BEF103034FF0FF3E01
:102460000EFA04F438BF0023A14399400EFA03F397
:102470009A43114300F00F02043A624409010C32FE
:1024800000F16043B0F1FF3FC8BF03F56442117033
:1024900010BD00004EF60C51CEF200010A684FF656
:1024A000FF031A4060F30A2242F0806040F0FD70A2
:1024B0000860704780B5012818D0022836D010284F
:1024C00032D141F20401C4F202010A6851F8040C4D
:1024D000C00129D5C2F383402DA3185CD2033DD49B
:1024E00040F60012C0F23D02504343E041F20400C6
:1024F000C4F20200C16940F202320A40B2F5817FA3
:1025000004BF4FF4004080BD01F44071B1F5407F3D
:102510001CD0B1F5007F07D1006A49F64041800721
:1025200001EAE07080BD00BF002080BD00F0DCF952
:1025300041F20401C4F2020109680222C1F38131AF
:1025400002EB4101B0FBF1F080BD00BF50F8040C7C
:102550004FF22441800301EAE07080BD0A6810A3B5
:10256000C2F340429A5C41F20023C0F27A03B3FB0B
:10257000F2F250430968490248BF80BD4AF6AB21D8
:102580004000CAF6AA21A0FB0101480880BD00BF97
:1025900002030405060708090A0B0C0D0E0F1010A4
:1025A000010200002DE9F04182B00446007841F2BA
:1025B0001C06C007C4F202064AD0306810F08058EA
:1025C00008D1306840F080503060306800F08050B2
:1025D0000190019847F20007C4F200073868C0056F
:1025E00012D4386840F480703860FFF7DBFC054691
:1025F0003868C00508D4FFF7D5FC401B6428F7D91C
:10260000032002B0BDE8F081706810F4407012D071
:10261000616801F4407188420DD0706840F2404218
:10262000C4F24222012320F4407113600023C0074A
:10263000136071602AD17068616820F440700843AB
:10264000B8F1000F706003D1306820F08050306026
:102650002068810707D556F8181CA26821F440416C
:10266000114346F8181CC00604D4002002B0BDE88F
:10267000F08100BF56F8180CE16820F48000084390
:1026800046F8180C002002B0BDE8F081FFF78AFC84
:10269000054641F2883700BF70688007CBD4FFF74A
:1026A00081FC401BB8424FF00300F5D9EBE7000076
:1026B0002DE9F04381B0002800F0858042F2000847
:1026C000C4F202080446D8F800000D4600F00700E6
:1026D00088420CD2D8F8000020F007002843C8F840
:1026E0000000D8F8000000F00700A8426BD1206875
:1026F00041F204098107C4F2020917D5410705D543
:10270000D9F8001041F4E061C9F80010010705D5BF
:10271000D9F8001041F46051C9F80010D9F8001040
:10272000A26821F0F0011143C9F80010C00741D19F
:10273000D8F8000000F00700A8420CD9D8F8000033
:1027400020F007002843C8F80000D8F8000000F087
:102750000700A84237D12068410707D5D9F80010F3
:10276000E26821F4E0611143C9F80010000708D5C0
:10277000D9F80000216920F4605040EAC100C9F88E
:102780000000D9F8002002F00C00082841F20020D7
:10279000C0F27A0050D14BF60E43C2F38341C0F62B
:1027A0000003595CD2033BD440F60010C0F23D0058
:1027B000484341E0606802280AD001282AD159F82C
:1027C000041C890308D4012001B0BDE8F08300BFD8
:1027D00059F8041C8901F6D5D9F8001021F003013D
:1027E0000843C9F80000FFF7DDFB064641F28837D1
:1027F000D9F80000616800F00C00B0EB810F97D0B1
:10280000FFF7D0FB801BB842F2D9032001B0BDE82E
:10281000F08300BF59F8041C8907D4D5DCE700BF5A
:10282000D9F800204BF60C33C2F34042C0F6000347
:102830009A5C4843B0FBF2F0D9F800104BF2DC226E
:10284000C1F30311C0F60002515C40F2644220FA69
:1028500001F140F20400C2F200000068C2F200027E
:102860001160FFF761FD002001B0BDE8F0830000BA
:102870000F22026041F20402C4F20202136803F064
:1028800003034360136803F0F0038360136803F4E9
:10289000E063C36012684FF4E06303EAD2020261AE
:1028A00042F20000C4F20200006800F00700086075
:1028B0007047000040F26440C2F2000000687047B8
:1028C00040F2644041F20401C2F20000C4F202018D
:1028D000006809684BF2EC22C1F30221C0F6000245
:1028E000515CC8407047000040F2644041F204016E
:1028F000C2F20000C4F20201006809684BF2EC2247
:10290000C1F3C221C0F60002515CC840704700000C
:102910002DE9F04182B0002868D00446007841F2E9
:102920000006C007C4F2020625D0706800F00C0053
:1029300004281BD0706800F00C00082802D17068D1
:10294000C00313D46068002800F06881B0F5A02FA0
:1029500000F07C81B0F5803F00F07C81306820F48D
:1029600080303060306820F4802076E13068800369
:1029700001D56068D0B32078800718D5706810F052
:102980000C0F07D0706800F00C0008286ED170683A
:10299000C0036BD43068800702D52069012825D197
:1029A0003068616920F0F80040EAC10030602078AA
:1029B00000071FD42078400732D4E56995B17068CC
:1029C00000F00C00082840F08F80012D0ED07068B8
:1029D000216A00F480328A4208D1616A00F47010E2
:1029E000884203D1002002B0BDE8F081012002B08E
:1029F000BDE8F081A069002862D00020C4F2422026
:102A00000121C0F88014FFF7CDFA0546706A8007EF
:102A100000F18C80FFF7C6FA401B0228F6D92AE1A4
:102A2000F06910F0805808D1F06940F08050F061F2
:102A3000F06900F080500090009847F20007C4F25F
:102A400000073868C00529D4386840F480703860C1
:102A5000FFF7A8FA054600BF3868C0051ED4FFF787
:102A6000A1FA401B6428F7D905E100BF20690028BE
:102A700040F20000C4F2422000F082800121016097
:102A8000FFF790FA054600BF306880073FF588AF32
:102A9000FFF788FA401B0228F6D9ECE0E06800282E
:102AA00000F08080052800F09780012800F09880D1
:102AB000306A20F001003062306A20F0040092E0B9
:102AC0000020C4F242200021C0F88014FFF76AFA07
:102AD000054600BF706A80077FF56CAFFFF762FAAA
:102AE000401B0228F6D9C6E00027C4F24227002086
:102AF0003866FFF757FA022D05460BD13068800182
:102B000040F1BE80FFF74EFA401B02284FF0030051
:102B1000F4D968E7306880017FF564AFFFF742FAC7
:102B2000401B02284FF00300F4D95CE740F26440F8
:102B3000C2F20000006844F6D351C1F26201A0FB6A
:102B40000101480A019000BF00BF0198411E002802
:102B500001913FF42FAF00BF0198411E0028019161
:102B60003FF428AF00BF0198411E002801913FF4B7
:102B700021AF00BF0198411E00280191E4D119E75F
:102B800000210160FFF70EFA054600BF306880079C
:102B90007FF50DAFFFF706FA401B02284FF0030048
:102BA000F4D920E7306A20F001003062306A20F06A
:102BB00004003062FFF7F6F9054641F2883700BF9E
:102BC000306A800720D5FFF7EDF9401BB8424FF07F
:102BD0000300F5D907E700BF306A40F00400306217
:102BE000306A40F001003062FFF7DCF9054641F23F
:102BF000883700BF306A800706D4FFF7D3F9401B3F
:102C0000B842F7D937E000BFB8F1000F7FF4D5AE76
:102C1000F06920F08050F061CFE600BF306820F40A
:102C200080303060306820F480203060FFF7BAF9DF
:102C3000054600BF306880037FF59DAEFFF7B2F90F
:102C4000401B64284FF00300F4D9CCE6306840F410
:102C500080203060306840F480303060FFF7A2F9A7
:102C6000054600BF306880033FF585AEFFF79AF94F
:102C7000401B6428F6D9032002B0BDE8F08100BFF4
:102C8000206AB0F5803F05D17168A26821F4003157
:102C9000114371607168626A21F474111043084332
:102CA000706001203866FFF77DF9044630688001C6
:102CB0003FF598AEFFF776F9001B02284FF00300AE
:102CC000F4D990E6411E0020B0EB116F1CBF01202B
:102CD00070474EF21002CEF2000251604EF62351C0
:102CE000CEF20001F0230B70072190601160704755
:102CF000704700007047000010B590F83C20012A92
:102D00004FF0020233D080F83D200268D2F804E090
:102D1000D2F808C00C682EF07003234340F2FF7411
:102D2000C4F20004A24253600ADCB2F1804F13D017
:102D300040F20043C4F200039A420DD011E000BFFC
:102D400042F60043C4F201039A4205D040F6000364
:102D5000C4F200039A4204D149682CF0800319435D
:102D600091600121002280F83D1080F83C2010463F
:102D700010BD0000002804BF0120704710B50446B4
:102D800090F83D0028B9002084F83C00204600F06F
:102D90006FF8022084F83D00206840F2FF7302685B
:102DA000C4F2000342F6004C9842C4F2010C15DC58
:102DB000B0F1804F1AD040F20041C4F200018842C5
:102DC00014D0984218DCB0F1804F1DD040F2004181
:102DD000C4F20001884217D01AE000BF604505D058
:102DE00040F60001C4F200018842EAD1A16822F055
:102DF00070020A439842E6DD604505D040F60001C6
:102E0000C4F20001884203D1216922F440720A43CE
:102E1000A36922F08001D4F804E0E2681943604518
:102E20000160C262C0F828E002D16169CCF83010BC
:102E3000012141610269D20703D0026922F0010237
:102E40000261002084F8461084F83E1084F83F1098
:102E500084F8401084F8411084F8421084F843103C
:102E600084F8441084F8451084F83D1010BD00002B
:102E700081B0006840F20041C4F20001884201D0F4
:102E800001B0704741F21C00C4F20200016841F039
:102E900002010160006800F002000090009801B09B
:102EA0007047000090F83D1001291CBF01207047B9
:102EB000022180F83D10006840F2FF71C4F2000169
:102EC000884209DCB0F1804F12D040F20041C4F2D8
:102ED000000188420CD012E042F60041C4F2010128
:102EE000884205D040F60001C4F20001884206D1B4
:102EF000816801F00701062904BF002070470168BE
:102F000041F00101016000207047000090F83D1081
:102F100001291CBF01207047022180F83D10006884
:102F200040F2FF72C168C4F20002904241F0010118
:102F3000C16009DCB0F1804F12D040F20041C4F210
:102F4000000188420CD012E042F60041C4F20101B7
:102F5000884205D040F60001C4F20001884206D143
:102F6000816801F00701062904BF0020704701684D
:102F700041F00101016000207047000080B590F829
:102F80003C20012A4FF0020200F0C28080F83D2070
:102F9000D0F800C04FF67772DCF8083023EA02025E
:102FA000CCF808200B684F2B28DC1F2B44DD202B8E
:102FB00045D0302B43D0402B40F0AC80D1F804E01A
:102FC000C968DCF82030DCF8202022F00102CCF8BF
:102FD0002020DCF8182022F0F00242EA011123F050
:102FE0000A0242EA0E02CCF81810CCF82020DCF8D5
:102FF000081041F0470121F0300180E06F2B27DD00
:10300000B3F5005F48D0B3F5805F7AD0702B40F005
:103010008180D1E901E3C968DCF8082043EA0E03A6
:1030200022F47F4243EA01211143CCF80810DCF876
:10303000081041F0770162E00BB1102B6AD1DCF887
:10304000081021F07001194341F0070157E000BF5B
:10305000502B35D0602B5DD1D1F804E0C968DCF885
:103060002030DCF8202022F01002CCF82020DCF800
:10307000182022F4704242EA013123F0A00242EA11
:103080000E12CCF81810CCF82020DCF8081041F013
:10309000670121F0100132E0D1E901E3C968DCF8F1
:1030A000082043EA0E0322F47F4243EA0121114340
:1030B000CCF80810DCF8081041F480411FE000BF94
:1030C000D1F804E0C968DCF82030DCF8202022F0D8
:1030D0000102CCF82020DCF8182022F0F00242EAAD
:1030E000011123F00A0242EA0E02CCF81810CCF8C3
:1030F0002020DCF8081041F0570121F02001CCF825
:1031000008100022012180F83D10002180F83C10B9
:10311000104680BD0122F5E77047000070B50446F7
:103120000068C5680669B10716D515F0020113D00D
:103130006FF002010161012121778069800703D0CE
:103140002046FFF7E9FF05E0204600F08FF8204613
:1031500000F08EF800202077700719D515F00400D4
:1031600016D020686FF00401016102212177806987
:1031700010F4407F04D02046FFF7CEFF06E000BFEA
:10318000204600F073F8204600F072F80020207707
:10319000300717D515F0080014D020686FF008012B
:1031A000016104212177C069800703D02046FFF721
:1031B000B3FF05E0204600F059F8204600F058F82B
:1031C00000202077F00619D515F0100016D02068E1
:1031D0006FF01001016108212177C06910F4407F70
:1031E00004D02046FFF798FF06E000BF204600F01D
:1031F0003DF8204600F03CF800202077F00718BF8B
:1032000015F0010002D1300609D412E020686FF0F9
:1032100001010161204600F02DF8300609D515F0B6
:10322000800006D020686FF0800101612046FFF722
:103230005FFD700609D515F0400006D020686FF0DC
:1032400040010161204600F01FF8B00658BF70BD74
:1032500015F0200008D021686FF0200220460A6196
:10326000BDE87040FFF746BD70BD0000704700002C
:1032700070470000006842F60041C4F20101884234
:1032800008BFFFF72FB87047704700007047000075
:1032900070470000B0B582B0044600680168C3689A
:1032A000426901F02F05202D03F0200506D12DB134
:1032B000204602B0BDE8B04001F06EBE5FEA017C7E
:1032C0001EBF02F0010E03F4907212EB0E0255D1F4
:1032D000226B012A05D111F0100218BF13F0100261
:1032E00036D10A0622D513F080021FD094F841107F
:1032F000212941D1A168B1F5805F03D1216900295D
:1033000000F07282216A4A1C226209784160E18CD5
:1033100001390A04E1842FD1C16821F08001C16024
:10332000C16841F04001C16002B0B0BD490623D57B
:1033300013F0400120D0C16821F04001C16020217C
:10334000204684F8411002B0BDE8B04000F0CEBC89
:103350000021019101680191416801910199416940
:10336000490600F18F80A18DE28DE38D002B1CBFFB
:10337000891A5FEA01420CD102B0B0BDCA0718BF7A
:1033800013F4807240F038814A0700F13B8140E13C
:10339000206850E8030F226820F4907042E803038D
:1033A000DBB1206850E8030F226820F4907042E8F7
:1033B000030393B1206850E8030F226820F4907053
:1033C00042E803034BB1206850E8030F226820F461
:1033D000907042E80303002BDAD1206850E8050F13
:1033E000226820F0010042E80503DBB1206850E8C4
:1033F000050F226820F0010042E8050393B1206820
:1034000050E8050F226820F0010042E805034BB1A7
:10341000206850E8050F226820F0010042E805030B
:10342000002BDAD1202084F842000020206320689D
:1034300050E8030F226820F0100042E80303DBB1DC
:10344000206850E8030F226820F0100042E80303D0
:1034500093B1206850E8030F226820F0100042E882
:1034600003034BB1206850E8030F226820F01000DE
:1034700042E80303002BDAD1022289B220466263BC
:10348000B4E000BFE16B0A68526893B2002B3FF4CE
:1034900073AFA58DAB42BFF46FAFE2858969202978
:1034A00000F09D8050E8030F216820F4807041E80F
:1034B0000302EAB1206850E8030F216820F480700D
:1034C00041E80302A2B1206850E8030F216820F40C
:1034D000807041E803025AB1206850E8030F216868
:1034E00020F4807041E8030212B12068DAE700BFDF
:1034F000206850E8050F216820F0010041E805022E
:10350000DAB1206850E8050F216820F0010041E899
:10351000050292B1206850E8050F216820F00100F3
:1035200041E805024AB1206850E8050F216820F003
:10353000010041E80502002ADAD1206850E8050FB1
:10354000216820F0400041E80502DAB1206850E827
:10355000050F216820F0400041E8050292B1206883
:1035600050E8050F216820F0400041E805024AB10B
:10357000206850E8050F216820F0400041E805026E
:10358000002ADAD1202084F842000020206320683D
:1035900050E8030F216820F0100041E80302DAB17F
:1035A000206850E8030F216820F0100041E8030272
:1035B00092B1206850E8030F216820F0100041E824
:1035C00003024AB1206850E8030F216820F0100080
:1035D00041E80302002ADAD1E06BFEF74FFB02203C
:1035E0006063A08DE18D401A81B2204602B0BDE833
:1035F000B040FFF74BBE00BF626C42F00102626454
:103600004A0706D5BEF1000F03D0626C42F00202F9
:1036100062648A0706D5BEF1000F03D0626C42F0E7
:1036200004026264BCF1000F06D555EA0E0203D015
:10363000626C42F008026264626C002A3FF49CAE45
:1036400011F0200118BF002D03D0204601F0A4FC8A
:1036500020684169626C01F0400102F0080289189B
:1036600000F0A28050E8030F216820F4907041E838
:103670000302C2B3206850E8030F216820F4907061
:1036800041E803027AB3206850E8030F216820F470
:10369000907041E8030232B3206850E8030F2168BC
:1036A00020F4907041E80302EAB12068DAE700BF35
:1036B000206850E8050F216820F0010041E805026C
:1036C000DAB1206850E8050F216820F0010041E8D8
:1036D000050292B1206850E8050F216820F0010032
:1036E00041E805024AB1206850E8050F216820F042
:1036F000010041E80502002ADAD1206B012824D11B
:10370000206850E8030F216820F0100041E8030210
:10371000DAB1206850E8030F216820F0100041E87A
:10372000030292B1206850E8030F216820F01000D6
:1037300041E803024AB1206850E8030F216820F0F5
:10374000100041E80302002ADAD1202084F8420068
:10375000002020632068416949063FD550E8050FE5
:10376000216820F0400041E805022AB3206850E8B3
:10377000050F216820F0400041E80502E2B1206811
:1037800050E8050F216820F0400041E805029AB199
:10379000206850E8050F216820F0400041E805024C
:1037A00052B12068DAE700BF2046FFF771FD002024
:1037B000606402B0B0BD00BFE06B78B144F68D71BB
:1037C000C0F600014163FEF77DFA00283FF4D4AD56
:1037D000E06B416B02B0BDE8B0400847204602B044
:1037E000BDE8B040FFF754BD216A31F8022B6FF3FA
:1037F0005F22426021628AE5002804BF01207047F1
:1038000010B5044690F8410028B9002084F8400023
:10381000204600F061F8242084F841002068D4E9B3
:103820000212C36823F40053C360036923F44053B6
:103830001A430261D4E904231143C268194341F2D7
:103840000C639A431143C1604169A26921F440713C
:10385000114343F60002C4F201029042416103D0D9
:10386000FFF72EF802E000BFFFF73EF8626819216B
:1038700048439100B0FBF1F048F21F51C5F2EB1143
:10388000A0FB01235A096FF0630302FB03003223FC
:1038900003EB0010A0FB0101F02303EA51132068A1
:1038A00003EB0212C1F3431111448160016921F459
:1038B00090410161416921F02A014161C16841F4EF
:1038C0000051C16000202021606484F8411084F818
:1038D0004210606310BD000070B586B0006844F20D
:1038E0000041C4F20001002688420596CDE9036636
:1038F00002963FD044F60001C4F20001884271D024
:1039000043F60001C4F20101884240F09D8041F27B
:103910001800C4F20200016840F6000441F480413E
:1039200001600168C4F2010401F480410191019930
:10393000016802AD41F0040101600068294600F011
:103940000400019001984FF400700290022003904F
:10395000032005902046FEF70FFA4FF48060029096
:103960000020CDE9030020462946FEF705FA06B0FF
:1039700070BD00BF41F21800C4F20200416840F679
:10398000000441F4003141604168C4F2010401F4D3
:10399000003101910199016802AD41F0040101601B
:1039A0000068294600F0040001900198042002906C
:1039B00002200390032005902046FEF7DDF9082041
:1039C000CDE90206204629460496FEF7D5F92620C1
:1039D00000210022FEF732FD2620FEF71FFD06B073
:1039E00070BD00BF41F21800C4F20200416802AD90
:1039F00041F480214160416801F4802101910199E5
:103A0000016841F0080101600068294600F00800E3
:103A1000019001984FF480600290022003900320EF
:103A2000059040F60000C4F2010000F580642046D5
:103A3000FEF7A2F94FF4006002900020CDE90300E8
:103A400020462946FEF798F906B070BD90F842303E
:103A5000202B1CBF0220704700294FF0010318BF24
:103A6000002A01D118467047002303638162222196
:103A70008285C285436480F842100169006819B1EB
:103A8000C16841F48071C1604169002341F00101C6
:103A90004161C16841F02001C160184670470000D3
:103AA00040F6F401C2F20001884218BF704770B5B9
:103AB00040F2DC65C2F20005286844F69014032841
:103AC00004BF00202860C2F200042068F92808DB47
:103AD00044F69400C2F20000FA21FCF734FD002005
:103AE000206040F2E056C2F2000631780A2907D180
:103AF00044F6940122A0C2F2000103F0B1FF206855
:103B0000411C0DD02A68022A0ED0012A14D10328A4
:103B10001ADC32783044216080F8202022E000BF97
:103B2000002020601EE000BF726A904214DA3278F2
:103B3000B36A21601A5415E03278216044F694018A
:103B4000C2F200010A540DE04BF61260C0F600000C
:103B500003F086FF06E000BF4BF62260C0F60000CF
:103B600003F07EFF40F6F40040F2E051C2F20000A4
:103B7000C2F200010122BDE87040FFF767BF00BF3D
:103B8000257300002DE9F041044690F841002028FB
:103B90001CBF0220BDE8F0810F4600294FF0010054
:103BA00000F082801646002A08BFBDE8F0814FF081
:103BB000000821201D46C4F8448084F84100FEF727
:103BC000F1F9A684E684A1680646B1F5805F05D1C7
:103BD0002069002814BF3846B8460746E08CC8B1B3
:103BE000681C19D0002D61D1216807E017F8010B7E
:103BF0004860E08C0138E084E08C68B30868000617
:103C00004CD5002FF2D138F8020B00276FF35F205C
:103C1000EEE700BF21681FE0216802E008680006A7
:103C200009D40868000606D4086800065CBF086866
:103C30005FEA0060F2D51FB117F8010B05E000BF85
:103C400038F8020B00276FF35F204860E08C0138E2
:103C5000E084E08C0028E4D1086840061CD4EDB173
:103C6000681C0FD10868400616D40868400613D4B3
:103C70000868400610D4086840064FF00000F1D5EF
:103C80000FE000BFFEF78EF9801BA84208D820681D
:103C9000C16800684006F5D5002002E0FEF782F911
:103CA0000320202184F84110BDE8F081216800BF85
:103CB0000868000608D4FEF775F9801BA842EFD803
:103CC0002168C868F4E700BF17B117F8010B04E0DA
:103CD00038F8020B00276FF35F204860E08C013852
:103CE000E084E08C0028E3D1B6E7000070470000D4
:103CF0002DE9F04383B0044600680D4601680A9F31
:103D00000B9E41F4807199469046016020464FF029
:103D1000011100223B46009600F0AEF850B1206839
:103D20000068C00544BF4FF400702064032003B056
:103D3000BDE8F083206805F0FE0101610221C0F2B8
:103D4000010120463A46334600F080F920B10120B7
:103D500003B0BDE8F08300BF002002902068324627
:103D6000416902918069394602900298204600F02C
:103D7000DDF958B1206C0428E9D12068016841F4CC
:103D800000710160012003B0BDE8F083B9F1010FBB
:103D90000AD020684FEA1821016120463946324690
:103DA00000F0C4F90028E5D120685FFA88F10161CC
:103DB000002003B0BDE8F08370B50368044653F8F3
:103DC000140F400711D40E46481C29D086BB00BFF3
:103DD0001868400527D4FEF7E5F8236853F8140F58
:103DE000400739D518684007F2D5002070BD00BFE4
:103DF00018684007F9D41868400514D418684007BB
:103E0000F3D4186840050ED418684007EDD418683C
:103E1000400508D4186840074FF0000048BF70BD47
:103E200018684005E4D56FF480601860042014E041
:103E3000154603E053F8140F4007D6D41868400520
:103E4000F1D4FEF7AFF8401B2368B042F2D95869AD
:103E50004007EFD4202000E0202000212022216311
:103E600084F83D2084F83E10226C10432064012029
:103E700084F83C1070BD00002DE9F0410546006853
:103E80001E46144601F47F0201338FB242D0DDF8A2
:103E90001880B2F5803F40F0878040693840C01BF1
:103EA000B0FA80F04009A04240F0C8804EB924E04A
:103EB00040693840C01BB0FA80F04009A04240F091
:103EC000BD80FEF76FF8A0EB08012868B142EFD97A
:103ED00041693940C91BB1FA81F14909A142E7D1D1
:103EE0009BE000BF40693840C01BB0FA80F0400939
:103EF000A0424FF0000040F0A680FEF753F828687B
:103F000041693940C91BB1FA81F14909A142E9D19E
:103F100083E000BFB2F5803F24D100BF4169394042
:103F2000C91BB1FA81F14909A14240F0878041697A
:103F30003940C91BB1FA81F14909A14240F07E80A4
:103F400041693940C91BB1FA81F14909A14275D1D2
:103F500041693940C91BB1FA81F14909A142DDD05B
:103F60006CE000BF81693940C91BB1FA81F1490990
:103F7000A14263D181693940C91BB1FA81F1490974
:103F8000A1425BD181693940C91BB1FA81F149096C
:103F9000A14253D181693940C91BB1FA81F1490964
:103FA000A142DFD04AE000BF80693840C01BB0FAB0
:103FB00080F04009A04241D146B923E080693840F1
:103FC000C01BB0FA80F04009A0423BD1FDF7EAFFE8
:103FD000A0EB08012868B142F0D981693940C91BBA
:103FE000B1FA81F14909A142E8D116E0806938406F
:103FF000C01BB0FA80F04009A0424FF0000018BF8B
:10400000BDE8F081FDF7CEFF286881693940C91B02
:10401000B1FA81F14909A142E8D1002020212863A9
:1040200085F83D1085F83E00296C41F02001296497
:1040300085F83C000120BDE8F08100BF0020BDE80C
:10404000F08100BF0020BDE8F0810000F0B581B034
:10405000044600681D4643698FB203EA0701B9426E
:1040600002D1002001B0F0BD41691646013201F4D1
:10407000806125D0002940D1CEB100BFFDF792FF6D
:10408000411B2068B14203D941693940B9424BD143
:1040900041693940B942E4D041694905EED52CE087
:1040A00041693940B942DCD04169490525D4FDF761
:1040B00079FF206841693940B942F1D0202024E0DD
:1040C000D9B941693940B942CBD04169490514D4C5
:1040D00041693940B942C4D0416949050DD44169AB
:1040E0003940B942BDD04169490506D441693940DA
:1040F000B942B6D041694905E3D5016841F4007180
:1041000001606FF48061416104200021202221635D
:1041100084F83D2084F83E10226C1043206484F81B
:104120003C10012001B0F0BD2020EEE770B503681F
:10413000044653F8140F000611D40E46481C29D02B
:1041400086BB00BF1868400527D4FDF72BFF236806
:1041500053F8140F000639D518680006F2D5002070
:1041600070BD00BF18680006F9D41868400514D463
:1041700018680006F3D4186840050ED418680006C5
:10418000EDD41868400508D4186800064FF0000008
:1041900048BF70BD18684005E4D56FF480601860B2
:1041A000042014E0154603E053F8140F0006D6D49B
:1041B00018684005F1D4FDF7F5FE401B2368B042B6
:1041C000F2D958690006EFD4202000E02020002119
:1041D0002022216384F83D2084F83E10226C104395
:1041E0002064012084F83C1070BD0000B0B584B09C
:1041F00040F2687042F20041C2F20000C4F20101D4
:10420000002401254FF4602205730475C261C0E9E2
:10421000001484600561FDF757FA002818BFFDF708
:104220007FF90620CDE9010540F26870C2F2000076
:1042300001A90394FDF77AF9002818BFFDF770F97A
:1042400004B0B0BDB0B584B040F2987042F6000141
:10425000C2F20000C4F20101002401254FF46022E3
:1042600005730475C261C0E9001484600561FDF73F
:104270002BFA002818BFFDF753F940F29870C2F2EC
:10428000000001A9CDE901550394FDF74FF900287D
:1042900018BFFDF745F904B0B0BD0000F0B585B01A
:1042A000002641F218000496C4F20200016840F6AC
:1042B000000441F0200101600168C4F2010401F032
:1042C0002001009100990168002241F00401016081
:1042D000016801F0040100910099016841F00801B2
:1042E00001600068212100F008000090009820463D
:1042F000FDF752FE102001ADCDE90106204629460A
:104300000396FDF739FD202001270190CDE90276C3
:104310000226204629460496FDF72EFD1120CDE900
:1043200002072046294601970496FDF725FD05B0B2
:10433000F0BD000080B540F2C87045F20041C2F205
:104340000000C4F2000148F2A06200234FF4804C48
:10435000C0F2010280E80E00C0E9033CC0E9053369
:10436000C0E90733FDF724FE002808BF80BDBDE883
:104370008040FDF7D5B8000080B586B040F66400F7
:1043800040F200420021C2F20000C4F200022F23DA
:104390004FF6FF7C0591CDE90311CDE90011C0E98D
:1043A0000023C0E9021C01618161FEF7E3FC0028E3
:1043B00018BFFDF7B5F84FF48050029040F6640046
:1043C000C2F2000002A9FEF7D9FD002818BFFDF7D0
:1043D000A7F840F66400C2F200006946FEF78CFCC4
:1043E000002818BFFDF79CF806B080BD80B540F6E8
:1043F000AC0043F60001C2F20000C4F20101002348
:104400004FF00C0C4FF4E13280E80E00C0E90333AA
:10441000C0E905C3C361FFF7EFF9002808BF80BDFD
:10442000BDE88040FDF77CB880B540F6F40044F26A
:104430000041C2F20000C4F2000100234FF00C0C56
:104440004FF4E13280E80E00C0E90333C0E905C350
:10445000C361FFF7D1F9002808BF80BDBDE88040E7
:10446000FDF75EB880B540F63C1044F60001C2F29C
:104470000000C4F2000100234FF00C0C4FF4E132B5
:1044800080E80E00C0E90333C0E905C3C361FFF74C
:10449000B3F9002808BF80BDBDE88040FDF740B8F3
:1044A000FEE70000FEE700002DE9F04F85B040F286
:1044B000C87400254FF480760127C2F200040DF184
:1044C000120B0DF113084FF0000900BF09F1B00005
:1044D0008DF8100004A8CDE90007204678210022BD
:1044E00001230296FDF720FE0DF11100CDE9000732
:1044F00020467821002201238DF811500296FDF705
:1045000013FE10208DF8120020467821002201238E
:10451000CDE900B70296FDF707FE4FF0000A00BF95
:1045200020467821402201238DF81350CDE90087E1
:104530000296FDF7F9FD0AF101004FFA80FABAF18F
:10454000FF3FEDDCB9F1070F09F10109BED305B05A
:10455000BDE8F08F80B5C82004F06AF9BDE880405E
:1045600000F0A2BD2DE9F04F85B00746A1F1500043
:1045700040F2C8748DF80C00012503A8C2F20004B3
:10458000164688464FF48079CDE90005204678210B
:1045900000220123CDF80890FDF7C6FD380900F18F
:1045A000100A0DF10D00CDE900052046782100220A
:1045B00001238DF80DA0CDF80890FDF7B5FD0DF1A4
:1045C0000E0007F00F0BCDE90005204678210022F0
:1045D00001238DF80EB0CDF80890FDF7A5FD40F24F
:1045E0002300C2F20000B101415C00EB86168DF899
:1045F0000F100DF10F072046782140220123CDE94D
:104600000075CDF80890FDF78FFD707878218DF852
:104610000F00204640220123CDE90075CDF8089017
:10462000FDF782FDB07878218DF80F0020464022FA
:104630000123CDE90075CDF80890FDF775FDF07800
:1046400078218DF80F00204640220123CDE9007526
:10465000CDF80890FDF768FD307978218DF80F00CE
:10466000204640220123CDE90075CDF80890FDF7E2
:104670005BFD707978218DF80F00204640220123E0
:10468000CDE90075CDF80890FDF74EFDB0797821A1
:104690008DF80F00204640220123CDE90075CDF8AA
:1046A0000890FDF741FDF07978218DF80F00204644
:1046B00040220123CDE90075CDF80890FDF734FDC7
:1046C000307A78218DF80F00204640220123CDE971
:1046D0000075CDF80890FDF727FD707A78218DF8E8
:1046E0000F00204640220123CDE90075CDF8089047
:1046F000FDF71AFDB07A78218DF80F002046402290
:104700000123CDE90075CDF80890FDF70DFDF07A95
:1047100078218DF80F00204640220123CDE9007555
:10472000CDF80890FDF700FD307B78218DF80F0063
:10473000204640220123CDE90075CDF80890FDF711
:10474000F3FC707B78218DF80F0020464022012376
:10475000CDE90075CDF80890FDF7E6FCB07B782137
:104760008DF80F00204640220123CDE90075CDF8D9
:104770000890FDF7D9FCF07B78218DF80F002046DA
:1047800040220123CDE90075CDF80890FDF7CCFC5F
:10479000A8F14F008DF8100004A8CDE900052046CF
:1047A000782100220123CDF80890FDF7BDFC0DF122
:1047B0001100CDE9000520467821002201238DF863
:1047C00011A0CDF80890FDF7AFFC0DF11200CDE976
:1047D000000520467821002201238DF812B0CDF883
:1047E0000890FDF7A1FC96F820000DF113078DF855
:1047F00013002046782140220123CDE90075CDF831
:104800000890FDF791FC96F8210078218DF81300AF
:10481000204640220123CDE90075CDF80890FDF730
:1048200083FC96F8220078218DF813002046402260
:104830000123CDE90075CDF80890FDF775FC96F8D9
:10484000230078218DF81300204640220123CDE972
:104850000075CDF80890FDF767FC96F824007821E4
:104860008DF81300204640220123CDE90075CDF8D4
:104870000890FDF759FC96F8250078218DF8130073
:10488000204640220123CDE90075CDF80890FDF7C0
:104890004BFC96F8260078218DF813002046402224
:1048A0000123CDE90075CDF80890FDF73DFC96F8A1
:1048B000270078218DF81300204640220123CDE9FE
:1048C0000075CDF80890FDF72FFC96F828007821A8
:1048D0008DF81300204640220123CDE90075CDF864
:1048E0000890FDF721FC96F8290078218DF8130037
:1048F000204640220123CDE90075CDF80890FDF750
:1049000013FC96F82A0078218DF8130020464022E7
:104910000123CDE90075CDF80890FDF705FC96F868
:104920002B0078218DF81300204640220123CDE989
:104930000075CDF80890FDF7F7FB96F82C0078216C
:104940008DF81300204640220123CDE90075CDF8F3
:104950000890FDF7E9FB96F82D0078218DF81300FB
:10496000204640220123CDE90075CDF80890FDF7DF
:10497000DBFB96F82E0078218DF8130020464022AC
:104980000123CDE90075CDF80890FDF7CDFB96F831
:104990002F0078218DF81300204640220123CDE915
:1049A0000075CDF80890FDF7BFFB05B0BDE8F08FAE
:1049B0002DE9F04F89B0064640B20D460028A2F11D
:1049C000200744BF02350026102BA5F1500040F00F
:1049D0003F8140F2C8748DF818004FF0010906A815
:1049E000C2F200044FF48078CDE900092046782116
:1049F00000220123CDF80880FDF796FB3009103026
:104A000005908DF819000DF11900CDE90009204637
:104A1000782100220123CDF80880FDF785FB06F000
:104A20000F0004908DF81A000DF11A00CDE900096D
:104A30002046782100220123CDF80880FDF774FB81
:104A4000F8B24BF21C520101C0F60002515C02EBBD
:104A500000168DF81B100DF11B072046782140220F
:104A60000123CDE90079CDF80880FDF75DFB707872
:104A7000317996F802A096F803B003918DF81B00E7
:104A80002046782140220123CDE90079CDF8088025
:104A9000FDF74AFB20467821402201238DF81BA018
:104AA000CDE90079CDF80880FDF73EFB204678215E
:104AB000402201238DF81BB0CDE90079CDF80880A4
:104AC000FDF732FB039878218DF81B002046402229
:104AD0000123CDE90079CDF80880FDF725FB707939
:104AE00078218DF81B00204640220123CDE9007972
:104AF000CDF80880FDF718FBB07978218DF81B0000
:104B0000204640220123CDE90079CDF80880FDF749
:104B10000BFBF07978218DF81B0020464022012301
:104B2000CDE90079CDF80880FDF7FEFAA5F14F0038
:104B30008DF81C0007A8CDE9000920467821002245
:104B40000123CDF80880FDF7EFFA059878218DF85C
:104B50001D000DF11D00CDE90009204600220123B2
:104B6000CDF80880FDF7E0FA049878218DF81E0052
:104B70000DF11E00CDE90009204600220123CDF8E9
:104B80000880FDF7D1FA307A0DF11F058DF81F006E
:104B90002046782140220123CDE90059CDF8088034
:104BA000FDF7C2FA707A78218DF81F002046402266
:104BB0000123CDE90059CDF80880FDF7B5FAB07AA8
:104BC00078218DF81F00204640220123CDE90059AD
:104BD000CDF80880FDF7A8FAF07A78218DF81F004B
:104BE000204640220123CDE90059CDF80880FDF789
:104BF0009BFA307B78218DF81F002046402201234C
:104C0000CDE90059CDF80880FDF78EFA707B782148
:104C10008DF81F00204640220123CDE90059CDF830
:104C20000880FDF781FAB07B78218DF81F002046BF
:104C300040220123CDE90059CDF80880FDF774FA30
:104C4000F07BCDE900598DF81F00204689E000BFB8
:104C500040F2C87B8DF820004FF0010A08A8C2F28C
:104C6000000B4FF48078CDE9000A584678210022E5
:104C70000123CDF80880FDF757FA300910308DF880
:104C800021000DF12100CDE9000A584678210022CB
:104C90000123CDF80880FDF747FA06F00F008DF8E4
:104CA00022000DF12200CDE9000A584678210022A9
:104CB0000123CDF80880FDF737FAF8B24BF2F42162
:104CC00000EB4000C0F6000111F8102001EB400598
:104CD0008DF823200DF12306584678214022012328
:104CE000CDE9006ACDF80880FDF71EFA6878AF7844
:104CF000EC7895F804908DF82300584678214022EE
:104D00000123CDE9006ACDF80880FDF70DFA584679
:104D10007821402201238DF82370CDE9006ACDF877
:104D20000880FDF701FA58467821402201238DF8CA
:104D30002340CDE9006ACDF80880FDF7F5F9584623
:104D40007821402201238DF82390CDE9006ACDF827
:104D50000880FDF7E9F96879CDE9006A8DF823004C
:104D60005846782140220123CDF80880FDF7DCF970
:104D700009B0BDE8F08F000010B540F26844C2F2FF
:104D80000004207821790022FFF7ECFB207A217BB8
:104D90000122FFF7E7FB207C217D0222FFF7E2FBE7
:104DA000207E217F0322FFF7DDFB94F8200094F89A
:104DB00024100422FFF7D6FB94F8280094F82C1056
:104DC0000522FFF7CFFB94F8700094F874100622C8
:104DD000FFF7C8FB94F8780094F87C100722FFF7DF
:104DE000C1FB94F8800094F884100822FFF7BAFB06
:104DF00094F8880094F88C100922FFF7B3FB94F81C
:104E0000900094F894102E221023FFF7D1FD94F80F
:104E1000980094F89C102E221023FFF7C9FD94F8F7
:104E2000A00094F8A4102E221023BDE81040FFF734
:104E3000BFBD00002DE9F04115461278002A08BFD9
:104E4000BDE8F08198460E4607460024F8B2F1B25C
:104E5000D2B24346FFF7ACFD0837F8B201347828E8
:104E6000E0B288BF02362A5C88BF0027002AEDD155
:104E7000BDE8F08180B502F0D7FD03F0FDFDBDE88F
:104E8000804002F0DFBD0000B0B594B000240120E6
:104E9000CDE90F44CDE90D440A900E904FF48010F7
:104EA0004FF48031022513900AA80494CDE90244FE
:104EB000CDE90B14CDE91151FDF72AFD20B1EFF337
:104EC000108072B6FEE700BF0F20CDE905054FF454
:104ED0008060CDE9080405A801210794FDF7E8FBEF
:104EE00020B1EFF3108072B6FEE700BF0220019000
:104EF0004FF48040039001A8FDF754FB20B1EFF37D
:104F0000108072B6FEE700BF14B0B0BD41F20400DD
:104F1000C4F20200016801F00C01082941F20021ED
:104F2000C0F27A0119D102680368C2F38342DB033D
:104F300002F1020206D440F60011C0F23D015143D5
:104F40000BE000BF03689B0302D4514305E000BFA0
:104F500040F60011C0F23D01514340F26442C2F2FA
:104F60000002116000684BF2DC23C0F30310C0F6AE
:104F70000003185C21FA00F01060704770470000D1
:104F800040F61C00C2F20000FEF7C8B8406A0021DB
:104F9000C185C184FEF77CB981B090F84210222906
:104FA00020D18368B3F5805F08D10169002965D0FD
:104FB00000F128010A6803685B680AE0014651F8BD
:104FC000282F13B90369002BF5D003685B6803F041
:104FD0007F0313700A6801320A60C18D01390A0427
:104FE000C18501D001B070470168CA6822F0200273
:104FF000CA60CA6822F48072CA604A6922F001025B
:105000004A61202280F8422000224263036B012B78
:105010003ED1026351E8031F026821F0100142E80B
:1050200003130168DBB151E8031F026821F010018E
:1050300042E80313016893B151E8031F026821F0AD
:10504000100142E8031301684BB151E8031F0268E5
:1050500021F0100142E803130168002BDAD10A683D
:10506000D20606D5002200920A6800924968009193
:105070000099818D01B0FEF709B900BF0168826A0D
:1050800049686FF35F2122F8021B8262A5E700BF27
:1050900001B0FEF705BD000040F6F400C2F20000CA
:1050A000FEF7F8B8FEE70000F0B583B040F2C87430
:1050B00040F20807C2F200044FF480750126C2F2E4
:1050C00000072046782100220123CDE900760295D1
:1050D000FDF72AF8781CCDE9000620467821002249
:1050E00001230295FDF720F8B81CCDE90006204603
:1050F0007821002201230295FDF716F8F81CCDE96E
:10510000000620467821002201230295FDF70CF8C5
:10511000381DCDE9000620467821002201230295A2
:10512000FDF702F8781DCDE900062046782100221F
:1051300001230295FCF7F8FFB81DCDE900062046D3
:105140007821002201230295FCF7EEFFF81DCDE93E
:10515000000620467821002201230295FCF7E4FF97
:1051600007F10800CDE9000620467821002201233E
:105170000295FCF7D9FF07F10900CDE900062046AA
:105180007821002201230295FCF7CEFF07F10A00E7
:10519000CDE9000620467821002201230295FCF784
:1051A000C3FF07F10B00CDE900062046782100225D
:1051B00001230295FCF7B8FF07F10C00CDE90006CA
:1051C00020467821002201230295FCF7ADFF07F16C
:1051D0000D00CDE90006204678210022012302952A
:1051E000FCF7A2FF07F10E00CDE90006204678216A
:1051F000002201230295FCF797FF07F10F00CDE98C
:10520000000620467821002201230295FCF78CFF3E
:1052100007F11000CDE90006204678210022012385
:105220000295FCF781FF07F11100CDE90006204649
:105230007821002201230295FCF776FF07F1120086
:10524000CDE9000620467821002201230295FCF7D3
:105250006BFF07F11300CDE90006204678210022FC
:1052600001230295FCF760FF07F11400CDE9000669
:1052700020467821002201230295FCF755FF07F113
:105280001500CDE900062046782100220123029571
:10529000FCF74AFF07F11600CDE900062046782109
:1052A000002201230295FCF73FFF07F11700CDE92B
:1052B000000620467821002201230295FCF734FFE6
:1052C00007F11800CDE900062046782100220123CD
:1052D0000295FCF729FF07F11900CDE900062046E9
:1052E0007821002201230295FCF71EFF07F11A0026
:1052F000CDE9000620467821002201230295FCF723
:1053000013FF03B0F0BD0000002804BF0020704769
:10531000C1B209B101200CE010F47F4102D0090AAA
:10532000092006E010F47F0107BF010E1920090CC7
:1053300011204BF60E32C0F60002515C0844704753
:1053400080B500F055FB002080BD000080B500F066
:10535000BBFC002080BD000040F66401C2F20001E9
:10536000096800224A620A6842F001020A6000BF2E
:105370004A6A824208D24A6A824205D24A6A824214
:1053800002D24A6A8242F3D3086A41F211121042F1
:1053900000D07047086A40F24442104218BF70477C
:1053A000086820F0010008607047000070B582B006
:1053B00040F27C664CF234104CF2DC11C2F2000672
:1053C000C0F60000C0F60001C6E900010120782106
:1053D00001F072FF706128B30A201521CDE9001099
:1053E00045F25D4113A0C0F6000100224FF4806336
:1053F000002403F0F7F87269054610A11046002258
:10540000002302F067FE706990F8211041F002015C
:1054100080F821101DB1284603F078FA00242046B8
:1054200002B070BD07A002F01BFB4FF0FF34204616
:1054300002B070BD747368656C6C0000736872783C
:10544000000000006E6F206D656D6F727920666FD1
:1054500072207368656C6C0A0000000040F27C6A80
:10546000C2F2000ADAF8140040F2E46490F8211065
:10547000C2F2000441F0010280F82120880703D421
:105480000020207026E000BFDAF8101041B140F291
:10549000E460C2F200008022FBF79EF81AE000BF31
:1054A00001F0C4FB30B10020207147F26D30C2F230
:1054B000680009E046F67300C0F22000C4F803005B
:1054C00046F66610C7F26E3020602046FAF7C9FF34
:1054D0003E212152204602F0C3FA4CF216164FF03C
:1054E000010B4FF00008C0F60006022702E000BFE3
:1054F00080F820B002F020F88146DAF81400B9F103
:105500001B0FF5D090F82010022909D0012940F096
:105510007580B9F15B0F40F06F8080F82070E9E78B
:10552000A9F14101022980F82080E3D3B9F1440FA9
:1055300000F29280DFE819F046009700970097008C
:105540009700970097009700A000E0007000970078
:1055500097007000970097009700970097009700BA
:105560009700970097009700970097009700970083
:105570009700970097009700970097009700970073
:105580009700970097009700970097009700970063
:105590009700970097009700970097009700970053
:1055A0009700970097009700970097009700970043
:1055B0009700970097009700970097009700480082
:1055C000840100BF96E700BFB0F87410B0F87220F5
:1055D0009142BFF48FAF084490F822104CF218109B
:1055E000C0F6000002F03CFADAF81400B0F87410CB
:1055F0000131A0F874107DE780F82080B9F10D0F1B
:105600002AD8DFE809F007303030303030303979CF
:10561000093030096EE700BF01F008FB012812D104
:10562000DAF8140090F82110C90707D04BF69770EC
:10563000C0F6000002F014FADAF81400B0F87210A4
:10564000223001F0A1F8DAF8140090F82100800768
:1056500078D484F800801DE1B9F17F0F0CD0B9F146
:10566000FF0F3FF447AFB0F87220502A74D30022E6
:10567000A0F87220A4E000BFB0F8741000293FF435
:1056800039AFB0F872200139531E9AB2A0F87230C7
:105690008BB29A42A0F8741040F2B480C11801F1A4
:1056A00022002331D21A02F0D7FADAF81400B0F847
:1056B0007210084480F82280DAF81400B0F87410F0
:1056C000084400F1220189A002F0CAF9DAF81410A6
:1056D000B1F87400B1F8721088423FF60BAF451E66
:1056E000304602F0BDF9DAF814000135B0F8720066
:1056F0008542F5D3FEE600BFB0F8741051B1002525
:10570000304602F0ADF9DAF814000135B0F8741043
:105710008D42F5D300F122054BF69770C0F60000DC
:1057200002F09EF901F082FA012802D1284600F029
:1057300069FFDAF8140090F8210080076ED484F82D
:105740000080C1E0DAF8101000296FD020468022D6
:10575000FAF742FF9EE000BFB0F874309A422FD9AA
:10576000C11801F123002231D21A02F075FADAF8D9
:105770001400B0F87410084480F82290DAF814008D
:1057800090F82110C90709D0B0F87410084400F14E
:1057900022015AA002F064F9DAF81400B0F874504B
:1057A000B0F872108D421DD2304602F059F9DAF885
:1057B00014000135B0F872108D42F5D312E000BF2D
:1057C000104480F82290DAF8140090F82110C907EC
:1057D00008D04CF21810C0F60000494602F040F91B
:1057E000DAF81400B0F87210B0F874200131A0F8A3
:1057F000721089B201325029A0F8742028BFC0F875
:10580000728077E638A002F02BF9DAF81400B0F8CD
:105810007210084480F822806CE600BFDAF810109D
:10582000F1B120468022FAF7D7FE4DE001F0FEF9F3
:1058300000B347F26D3084F80480C2F2680023E0C0
:10584000B0F8740000283FF455AE304602F008F975
:10585000DAF81400B0F874100139A0F8741049E6B1
:1058600001F0E4F900B347F26D3084F80480C2F22D
:10587000680023E046F67300C0F22000C4F803007D
:1058800046F66610C7F26E3020602046FAF7E9FD52
:105890003E212152204602F0E3F8DAF814005421A8
:1058A0002230FAF750FE25E646F67300C0F22000DB
:1058B000C4F8030046F66610C7F26E30206020463A
:1058C000FAF7CFFD3E2121520AA021462A4602F0D6
:1058D000C7F8DAF8145005F12200FAF7C2FDA5F86E
:1058E0007200A5F8740005E608200800082573205A
:1058F00020080000257325730000000025730000B8
:10590000B0B582B004460846154605F09DF90B4631
:1059100000900BA2204629460193FAF7FBFCA8420F
:10592000A5F1010507DA854205DD2218291A10467E
:105930002022FAF700FE0020605502B0B0BD00BF83
:10594000252E31660000000080B502A002F088F824
:10595000002080BD48656C6C6F2052542D546872D5
:10596000656164210A0000002DE9F04381B016A0B2
:1059700002F076F840F27C6040F28069C2F20000EA
:10598000C2F200090768D9F80050AF4218D213A438
:105990000FF24C0803E000BF0C37AF4210D23E6854
:1059A000214630460222FAF77BFD0028F4D07A68BF
:1059B0004046314602F054F8D9F80050ECE700BFF9
:1059C000002001B0BDE8F0832D2D46756E6374692B
:1059D0006F6E204C6973743A0A0000005F5F00002C
:1059E000252D313673202D2D2025730A000000004F
:1059F00010B540F22464C2F20004216806A002F04F
:105A00002FF8216909A002F02BF861690CA0BDE80C
:105A1000104002F025B800BF746F74616C206D6592
:105A20006D6F72793A2025640A0000007573656411
:105A3000206D656D6F7279203A2025640A000000A0
:105A40006D6178696D756D20616C6C6F63617465F3
:105A500064206D656D6F72793A2025640A0000003C
:105A60002DE9F04F8DB0022002F04AFA00F104084F
:105A70007AA081A2082101F0F3FF4CF2D404C0F611
:105A80000004204601F0ECFF204601F0E9FF20462B
:105A900001F0E6FF204601F0E3FF204601F0E0FFC1
:105AA000204601F0DDFF204601F0DAFF204601F03C
:105AB000D7FF74A001F0D4FF00260DF1140B7BA7D3
:105AC0007BA4CDF80C8005E0049EDDF80C80002E50
:105AD00000F0C0803546002E08BF4546FAF7A0FB0F
